{
	"src/Marketplace.sol": {
		"Marketplace": {
			"abi": [
				{
					"inputs": [
						{
							"internalType": "contract IItem",
							"name": "item_",
							"type": "address"
						},
						{
							"internalType": "contract IGold",
							"name": "gold_",
							"type": "address"
						}
					],
					"stateMutability": "nonpayable",
					"type": "constructor"
				},
				{
					"inputs": [
						{
							"internalType": "uint256",
							"name": "buyOrderId_",
							"type": "uint256"
						}
					],
					"name": "BuyOrderDoesNotExistError",
					"type": "error"
				},
				{
					"inputs": [],
					"name": "NoOrdersError",
					"type": "error"
				},
				{
					"inputs": [
						{
							"internalType": "uint256",
							"name": "buyOrderId_",
							"type": "uint256"
						}
					],
					"name": "NotBuyerError",
					"type": "error"
				},
				{
					"inputs": [
						{
							"internalType": "uint256",
							"name": "sellOrderId_",
							"type": "uint256"
						}
					],
					"name": "NotSellerError",
					"type": "error"
				},
				{
					"inputs": [
						{
							"internalType": "uint256",
							"name": "sellOrderId_",
							"type": "uint256"
						}
					],
					"name": "SellOrderDoesNotExistError",
					"type": "error"
				},
				{
					"anonymous": false,
					"inputs": [
						{
							"indexed": true,
							"internalType": "address",
							"name": "buyer",
							"type": "address"
						},
						{
							"indexed": false,
							"internalType": "uint16",
							"name": "itemId",
							"type": "uint16"
						},
						{
							"indexed": false,
							"internalType": "uint80",
							"name": "price",
							"type": "uint80"
						}
					],
					"name": "BuyOrderCancelled",
					"type": "event"
				},
				{
					"anonymous": false,
					"inputs": [
						{
							"indexed": true,
							"internalType": "address",
							"name": "buyer",
							"type": "address"
						},
						{
							"indexed": false,
							"internalType": "uint16",
							"name": "itemId",
							"type": "uint16"
						},
						{
							"indexed": false,
							"internalType": "uint80",
							"name": "price",
							"type": "uint80"
						}
					],
					"name": "BuyOrderFulfilled",
					"type": "event"
				},
				{
					"anonymous": false,
					"inputs": [
						{
							"indexed": true,
							"internalType": "address",
							"name": "buyer",
							"type": "address"
						},
						{
							"indexed": false,
							"internalType": "uint16",
							"name": "itemId",
							"type": "uint16"
						},
						{
							"indexed": false,
							"internalType": "uint80",
							"name": "price",
							"type": "uint80"
						}
					],
					"name": "BuyOrderPlaced",
					"type": "event"
				},
				{
					"anonymous": false,
					"inputs": [
						{
							"indexed": true,
							"internalType": "address",
							"name": "seller",
							"type": "address"
						},
						{
							"indexed": false,
							"internalType": "uint16",
							"name": "itemId",
							"type": "uint16"
						},
						{
							"indexed": false,
							"internalType": "uint80",
							"name": "price",
							"type": "uint80"
						}
					],
					"name": "SellOrderCancelled",
					"type": "event"
				},
				{
					"anonymous": false,
					"inputs": [
						{
							"indexed": true,
							"internalType": "address",
							"name": "seller",
							"type": "address"
						},
						{
							"indexed": false,
							"internalType": "uint16",
							"name": "itemId",
							"type": "uint16"
						},
						{
							"indexed": false,
							"internalType": "uint80",
							"name": "price",
							"type": "uint80"
						}
					],
					"name": "SellOrderFulfilled",
					"type": "event"
				},
				{
					"anonymous": false,
					"inputs": [
						{
							"indexed": true,
							"internalType": "address",
							"name": "seller",
							"type": "address"
						},
						{
							"indexed": false,
							"internalType": "uint16",
							"name": "itemId",
							"type": "uint16"
						},
						{
							"indexed": false,
							"internalType": "uint80",
							"name": "price",
							"type": "uint80"
						}
					],
					"name": "SellOrderPlaced",
					"type": "event"
				},
				{
					"inputs": [
						{
							"internalType": "uint256[]",
							"name": "sellOrderIds_",
							"type": "uint256[]"
						},
						{
							"internalType": "uint256[]",
							"name": "buyOrderIds_",
							"type": "uint256[]"
						}
					],
					"name": "cancelOrders",
					"outputs": [],
					"stateMutability": "nonpayable",
					"type": "function"
				},
				{
					"inputs": [
						{
							"internalType": "uint256[]",
							"name": "sellOrderIds_",
							"type": "uint256[]"
						},
						{
							"internalType": "uint256[]",
							"name": "buyOrderIds_",
							"type": "uint256[]"
						}
					],
					"name": "fulfilOrders",
					"outputs": [],
					"stateMutability": "nonpayable",
					"type": "function"
				},
				{
					"inputs": [],
					"name": "getBuyOrders",
					"outputs": [
						{
							"components": [
								{
									"internalType": "address",
									"name": "buyer",
									"type": "address"
								},
								{
									"internalType": "uint16",
									"name": "itemId",
									"type": "uint16"
								},
								{
									"internalType": "uint80",
									"name": "price",
									"type": "uint80"
								}
							],
							"internalType": "struct IMarketplace.BuyOrder[]",
							"name": "",
							"type": "tuple[]"
						}
					],
					"stateMutability": "view",
					"type": "function"
				},
				{
					"inputs": [],
					"name": "getSellOrders",
					"outputs": [
						{
							"components": [
								{
									"internalType": "address",
									"name": "seller",
									"type": "address"
								},
								{
									"internalType": "uint16",
									"name": "itemId",
									"type": "uint16"
								},
								{
									"internalType": "uint80",
									"name": "price",
									"type": "uint80"
								}
							],
							"internalType": "struct IMarketplace.SellOrder[]",
							"name": "",
							"type": "tuple[]"
						}
					],
					"stateMutability": "view",
					"type": "function"
				},
				{
					"inputs": [
						{
							"components": [
								{
									"internalType": "address",
									"name": "seller",
									"type": "address"
								},
								{
									"internalType": "uint16",
									"name": "itemId",
									"type": "uint16"
								},
								{
									"internalType": "uint80",
									"name": "price",
									"type": "uint80"
								}
							],
							"internalType": "struct IMarketplace.SellOrder[]",
							"name": "sellOrders_",
							"type": "tuple[]"
						},
						{
							"components": [
								{
									"internalType": "address",
									"name": "buyer",
									"type": "address"
								},
								{
									"internalType": "uint16",
									"name": "itemId",
									"type": "uint16"
								},
								{
									"internalType": "uint80",
									"name": "price",
									"type": "uint80"
								}
							],
							"internalType": "struct IMarketplace.BuyOrder[]",
							"name": "buyOrders_",
							"type": "tuple[]"
						}
					],
					"name": "placeOrders",
					"outputs": [],
					"stateMutability": "nonpayable",
					"type": "function"
				}
			],
			"devdoc": {
				"kind": "dev",
				"methods": {},
				"version": 1
			},
			"evm": {
				"assembly": "    /* \"src/Marketplace.sol\":226:5058  contract Marketplace is IMarketplace {... */\n  mstore(0x40, 0xc0)\n    /* \"src/Marketplace.sol\":413:504  constructor(IItem item_, IGold gold_) {... */\n  callvalue\n  dup1\n  iszero\n  tag_1\n  jumpi\n  0x00\n  dup1\n  revert\ntag_1:\n  pop\n  mload(0x40)\n  sub(codesize, bytecodeSize)\n  dup1\n  bytecodeSize\n  dup4\n  codecopy\n  dup2\n  dup2\n  add\n  0x40\n  mstore\n  dup2\n  add\n  swap1\n  tag_2\n  swap2\n  swap1\n  tag_3\n  jump\t// in\ntag_2:\n    /* \"src/Marketplace.sol\":469:474  item_ */\n  dup2\n    /* \"src/Marketplace.sol\":461:474  _item = item_ */\n  0xffffffffffffffffffffffffffffffffffffffff\n  and\n  0x80\n  dup2\n  0xffffffffffffffffffffffffffffffffffffffff\n  and\n  dup2\n  mstore\n  pop\n  pop\n    /* \"src/Marketplace.sol\":492:497  gold_ */\n  dup1\n    /* \"src/Marketplace.sol\":484:497  _gold = gold_ */\n  0xffffffffffffffffffffffffffffffffffffffff\n  and\n  0xa0\n  dup2\n  0xffffffffffffffffffffffffffffffffffffffff\n  and\n  dup2\n  mstore\n  pop\n  pop\n    /* \"src/Marketplace.sol\":413:504  constructor(IItem item_, IGold gold_) {... */\n  pop\n  pop\n    /* \"src/Marketplace.sol\":226:5058  contract Marketplace is IMarketplace {... */\n  jump(tag_6)\n    /* \"#utility.yul\":88:205   */\ntag_8:\n    /* \"#utility.yul\":197:198   */\n  0x00\n    /* \"#utility.yul\":194:195   */\n  dup1\n    /* \"#utility.yul\":187:199   */\n  revert\n    /* \"#utility.yul\":334:460   */\ntag_10:\n    /* \"#utility.yul\":371:378   */\n  0x00\n    /* \"#utility.yul\":411:453   */\n  0xffffffffffffffffffffffffffffffffffffffff\n    /* \"#utility.yul\":404:409   */\n  dup3\n    /* \"#utility.yul\":400:454   */\n  and\n    /* \"#utility.yul\":389:454   */\n  swap1\n  pop\n    /* \"#utility.yul\":334:460   */\n  swap2\n  swap1\n  pop\n  jump\t// out\n    /* \"#utility.yul\":466:562   */\ntag_11:\n    /* \"#utility.yul\":503:510   */\n  0x00\n    /* \"#utility.yul\":532:556   */\n  tag_24\n    /* \"#utility.yul\":550:555   */\n  dup3\n    /* \"#utility.yul\":532:556   */\n  tag_10\n  jump\t// in\ntag_24:\n    /* \"#utility.yul\":521:556   */\n  swap1\n  pop\n    /* \"#utility.yul\":466:562   */\n  swap2\n  swap1\n  pop\n  jump\t// out\n    /* \"#utility.yul\":568:678   */\ntag_12:\n    /* \"#utility.yul\":619:626   */\n  0x00\n    /* \"#utility.yul\":648:672   */\n  tag_26\n    /* \"#utility.yul\":666:671   */\n  dup3\n    /* \"#utility.yul\":648:672   */\n  tag_11\n  jump\t// in\ntag_26:\n    /* \"#utility.yul\":637:672   */\n  swap1\n  pop\n    /* \"#utility.yul\":568:678   */\n  swap2\n  swap1\n  pop\n  jump\t// out\n    /* \"#utility.yul\":684:834   */\ntag_13:\n    /* \"#utility.yul\":771:809   */\n  tag_28\n    /* \"#utility.yul\":803:808   */\n  dup2\n    /* \"#utility.yul\":771:809   */\n  tag_12\n  jump\t// in\ntag_28:\n    /* \"#utility.yul\":764:769   */\n  dup2\n    /* \"#utility.yul\":761:810   */\n  eq\n    /* \"#utility.yul\":751:828   */\n  tag_29\n  jumpi\n    /* \"#utility.yul\":824:825   */\n  0x00\n    /* \"#utility.yul\":821:822   */\n  dup1\n    /* \"#utility.yul\":814:826   */\n  revert\n    /* \"#utility.yul\":751:828   */\ntag_29:\n    /* \"#utility.yul\":684:834   */\n  pop\n  jump\t// out\n    /* \"#utility.yul\":840:1011   */\ntag_14:\n    /* \"#utility.yul\":911:916   */\n  0x00\n    /* \"#utility.yul\":942:948   */\n  dup2\n    /* \"#utility.yul\":936:949   */\n  mload\n    /* \"#utility.yul\":927:949   */\n  swap1\n  pop\n    /* \"#utility.yul\":958:1005   */\n  tag_31\n    /* \"#utility.yul\":999:1004   */\n  dup2\n    /* \"#utility.yul\":958:1005   */\n  tag_13\n  jump\t// in\ntag_31:\n    /* \"#utility.yul\":840:1011   */\n  swap3\n  swap2\n  pop\n  pop\n  jump\t// out\n    /* \"#utility.yul\":1017:1127   */\ntag_15:\n    /* \"#utility.yul\":1068:1075   */\n  0x00\n    /* \"#utility.yul\":1097:1121   */\n  tag_33\n    /* \"#utility.yul\":1115:1120   */\n  dup3\n    /* \"#utility.yul\":1097:1121   */\n  tag_11\n  jump\t// in\ntag_33:\n    /* \"#utility.yul\":1086:1121   */\n  swap1\n  pop\n    /* \"#utility.yul\":1017:1127   */\n  swap2\n  swap1\n  pop\n  jump\t// out\n    /* \"#utility.yul\":1133:1283   */\ntag_16:\n    /* \"#utility.yul\":1220:1258   */\n  tag_35\n    /* \"#utility.yul\":1252:1257   */\n  dup2\n    /* \"#utility.yul\":1220:1258   */\n  tag_15\n  jump\t// in\ntag_35:\n    /* \"#utility.yul\":1213:1218   */\n  dup2\n    /* \"#utility.yul\":1210:1259   */\n  eq\n    /* \"#utility.yul\":1200:1277   */\n  tag_36\n  jumpi\n    /* \"#utility.yul\":1273:1274   */\n  0x00\n    /* \"#utility.yul\":1270:1271   */\n  dup1\n    /* \"#utility.yul\":1263:1275   */\n  revert\n    /* \"#utility.yul\":1200:1277   */\ntag_36:\n    /* \"#utility.yul\":1133:1283   */\n  pop\n  jump\t// out\n    /* \"#utility.yul\":1289:1460   */\ntag_17:\n    /* \"#utility.yul\":1360:1365   */\n  0x00\n    /* \"#utility.yul\":1391:1397   */\n  dup2\n    /* \"#utility.yul\":1385:1398   */\n  mload\n    /* \"#utility.yul\":1376:1398   */\n  swap1\n  pop\n    /* \"#utility.yul\":1407:1454   */\n  tag_38\n    /* \"#utility.yul\":1448:1453   */\n  dup2\n    /* \"#utility.yul\":1407:1454   */\n  tag_16\n  jump\t// in\ntag_38:\n    /* \"#utility.yul\":1289:1460   */\n  swap3\n  swap2\n  pop\n  pop\n  jump\t// out\n    /* \"#utility.yul\":1466:2029   */\ntag_3:\n    /* \"#utility.yul\":1573:1579   */\n  0x00\n    /* \"#utility.yul\":1581:1587   */\n  dup1\n    /* \"#utility.yul\":1630:1632   */\n  0x40\n    /* \"#utility.yul\":1618:1627   */\n  dup4\n    /* \"#utility.yul\":1609:1616   */\n  dup6\n    /* \"#utility.yul\":1605:1628   */\n  sub\n    /* \"#utility.yul\":1601:1633   */\n  slt\n    /* \"#utility.yul\":1598:1717   */\n  iszero\n  tag_40\n  jumpi\n    /* \"#utility.yul\":1636:1715   */\n  tag_41\n  tag_8\n  jump\t// in\ntag_41:\n    /* \"#utility.yul\":1598:1717   */\ntag_40:\n    /* \"#utility.yul\":1756:1757   */\n  0x00\n    /* \"#utility.yul\":1781:1859   */\n  tag_42\n    /* \"#utility.yul\":1851:1858   */\n  dup6\n    /* \"#utility.yul\":1842:1848   */\n  dup3\n    /* \"#utility.yul\":1831:1840   */\n  dup7\n    /* \"#utility.yul\":1827:1849   */\n  add\n    /* \"#utility.yul\":1781:1859   */\n  tag_14\n  jump\t// in\ntag_42:\n    /* \"#utility.yul\":1771:1859   */\n  swap3\n  pop\n    /* \"#utility.yul\":1727:1869   */\n  pop\n    /* \"#utility.yul\":1908:1910   */\n  0x20\n    /* \"#utility.yul\":1934:2012   */\n  tag_43\n    /* \"#utility.yul\":2004:2011   */\n  dup6\n    /* \"#utility.yul\":1995:2001   */\n  dup3\n    /* \"#utility.yul\":1984:1993   */\n  dup7\n    /* \"#utility.yul\":1980:2002   */\n  add\n    /* \"#utility.yul\":1934:2012   */\n  tag_17\n  jump\t// in\ntag_43:\n    /* \"#utility.yul\":1924:2012   */\n  swap2\n  pop\n    /* \"#utility.yul\":1879:2022   */\n  pop\n    /* \"#utility.yul\":1466:2029   */\n  swap3\n  pop\n  swap3\n  swap1\n  pop\n  jump\t// out\n    /* \"src/Marketplace.sol\":226:5058  contract Marketplace is IMarketplace {... */\ntag_6:\n  mload(0x80)\n  mload(0xa0)\n  codecopy(0x00, dataOffset(sub_0), dataSize(sub_0))\n  0x00\n  assignImmutable(\"0x6085f6f924f4d3289e6bd2dcf255c34b40082df304bec05239cb2746d1d3eb0d\")\n  0x00\n  assignImmutable(\"0x2c8fba555b11fb06433ead2e3e73a93968b4d4dbd46bbdc289c1b08f53377bbe\")\n  return(0x00, dataSize(sub_0))\nstop\n\nsub_0: assembly {\n        /* \"src/Marketplace.sol\":226:5058  contract Marketplace is IMarketplace {... */\n      mstore(0x40, 0x80)\n      callvalue\n      dup1\n      iszero\n      tag_1\n      jumpi\n      0x00\n      dup1\n      revert\n    tag_1:\n      pop\n      jumpi(tag_2, lt(calldatasize, 0x04))\n      shr(0xe0, calldataload(0x00))\n      dup1\n      0x14dca602\n      eq\n      tag_3\n      jumpi\n      dup1\n      0x88a66e58\n      eq\n      tag_4\n      jumpi\n      dup1\n      0x8d4f8186\n      eq\n      tag_5\n      jumpi\n      dup1\n      0x9b47bce7\n      eq\n      tag_6\n      jumpi\n      dup1\n      0xe0c5a277\n      eq\n      tag_7\n      jumpi\n    tag_2:\n      0x00\n      dup1\n      revert\n        /* \"src/Marketplace.sol\":4944:5056  function getSellOrders() external view override returns (SellOrder[] memory) {... */\n    tag_3:\n      tag_8\n      tag_9\n      jump\t// in\n    tag_8:\n      mload(0x40)\n      tag_10\n      swap2\n      swap1\n      tag_11\n      jump\t// in\n    tag_10:\n      mload(0x40)\n      dup1\n      swap2\n      sub\n      swap1\n      return\n        /* \"src/Marketplace.sol\":1875:3349  function fulfilOrders(uint256[] calldata sellOrderIds_, uint256[] calldata buyOrderIds_) external override {... */\n    tag_4:\n      tag_12\n      0x04\n      dup1\n      calldatasize\n      sub\n      dup2\n      add\n      swap1\n      tag_13\n      swap2\n      swap1\n      tag_14\n      jump\t// in\n    tag_13:\n      tag_15\n      jump\t// in\n    tag_12:\n      stop\n        /* \"src/Marketplace.sol\":3355:4823  function cancelOrders(uint256[] calldata sellOrderIds_, uint256[] calldata buyOrderIds_) external override {... */\n    tag_5:\n      tag_16\n      0x04\n      dup1\n      calldatasize\n      sub\n      dup2\n      add\n      swap1\n      tag_17\n      swap2\n      swap1\n      tag_14\n      jump\t// in\n    tag_17:\n      tag_18\n      jump\t// in\n    tag_16:\n      stop\n        /* \"src/Marketplace.sol\":510:1869  function placeOrders(SellOrder[] memory sellOrders_, BuyOrder[] memory buyOrders_) external override {... */\n    tag_6:\n      tag_19\n      0x04\n      dup1\n      calldatasize\n      sub\n      dup2\n      add\n      swap1\n      tag_20\n      swap2\n      swap1\n      tag_21\n      jump\t// in\n    tag_20:\n      tag_22\n      jump\t// in\n    tag_19:\n      stop\n        /* \"src/Marketplace.sol\":4829:4938  function getBuyOrders() external view override returns (BuyOrder[] memory) {... */\n    tag_7:\n      tag_23\n      tag_24\n      jump\t// in\n    tag_23:\n      mload(0x40)\n      tag_25\n      swap2\n      swap1\n      tag_26\n      jump\t// in\n    tag_25:\n      mload(0x40)\n      dup1\n      swap2\n      sub\n      swap1\n      return\n        /* \"src/Marketplace.sol\":4944:5056  function getSellOrders() external view override returns (SellOrder[] memory) {... */\n    tag_9:\n        /* \"src/Marketplace.sol\":5001:5019  SellOrder[] memory */\n      0x60\n        /* \"src/Marketplace.sol\":5038:5049  _sellOrders */\n      0x01\n        /* \"src/Marketplace.sol\":5031:5049  return _sellOrders */\n      dup1\n      sload\n      dup1\n      0x20\n      mul\n      0x20\n      add\n      mload(0x40)\n      swap1\n      dup2\n      add\n      0x40\n      mstore\n      dup1\n      swap3\n      swap2\n      swap1\n      dup2\n      dup2\n      mstore\n      0x20\n      add\n      0x00\n      swap1\n    tag_28:\n      dup3\n      dup3\n      lt\n      iszero\n      tag_29\n      jumpi\n      dup4\n      dup3\n      swap1\n      0x00\n      mstore\n      keccak256(0x00, 0x20)\n      add\n      mload(0x40)\n      dup1\n      0x60\n      add\n      0x40\n      mstore\n      swap1\n      dup2\n      0x00\n      dup3\n      add\n      0x00\n      swap1\n      sload\n      swap1\n      0x0100\n      exp\n      swap1\n      div\n      0xffffffffffffffffffffffffffffffffffffffff\n      and\n      0xffffffffffffffffffffffffffffffffffffffff\n      and\n      0xffffffffffffffffffffffffffffffffffffffff\n      and\n      dup2\n      mstore\n      0x20\n      add\n      0x00\n      dup3\n      add\n      0x14\n      swap1\n      sload\n      swap1\n      0x0100\n      exp\n      swap1\n      div\n      0xffff\n      and\n      0xffff\n      and\n      0xffff\n      and\n      dup2\n      mstore\n      0x20\n      add\n      0x00\n      dup3\n      add\n      0x16\n      swap1\n      sload\n      swap1\n      0x0100\n      exp\n      swap1\n      div\n      0xffffffffffffffffffff\n      and\n      0xffffffffffffffffffff\n      and\n      0xffffffffffffffffffff\n      and\n      dup2\n      mstore\n      pop\n      pop\n      dup2\n      mstore\n      0x20\n      add\n      swap1\n      0x01\n      add\n      swap1\n      jump(tag_28)\n    tag_29:\n      pop\n      pop\n      pop\n      pop\n      swap1\n      pop\n        /* \"src/Marketplace.sol\":4944:5056  function getSellOrders() external view override returns (SellOrder[] memory) {... */\n      swap1\n      jump\t// out\n        /* \"src/Marketplace.sol\":1875:3349  function fulfilOrders(uint256[] calldata sellOrderIds_, uint256[] calldata buyOrderIds_) external override {... */\n    tag_15:\n        /* \"src/Marketplace.sol\":2020:2021  0 */\n      0x00\n        /* \"src/Marketplace.sol\":1996:2009  sellOrderIds_ */\n      dup5\n      dup5\n        /* \"src/Marketplace.sol\":1996:2016  sellOrderIds_.length */\n      swap1\n      pop\n        /* \"src/Marketplace.sol\":1996:2021  sellOrderIds_.length == 0 */\n      eq\n        /* \"src/Marketplace.sol\":1996:2049  sellOrderIds_.length == 0 && buyOrderIds_.length == 0 */\n      dup1\n      iszero\n      tag_32\n      jumpi\n      pop\n        /* \"src/Marketplace.sol\":2048:2049  0 */\n      0x00\n        /* \"src/Marketplace.sol\":2025:2037  buyOrderIds_ */\n      dup3\n      dup3\n        /* \"src/Marketplace.sol\":2025:2044  buyOrderIds_.length */\n      swap1\n      pop\n        /* \"src/Marketplace.sol\":2025:2049  buyOrderIds_.length == 0 */\n      eq\n        /* \"src/Marketplace.sol\":1996:2049  sellOrderIds_.length == 0 && buyOrderIds_.length == 0 */\n    tag_32:\n        /* \"src/Marketplace.sol\":1992:2073  if (sellOrderIds_.length == 0 && buyOrderIds_.length == 0) revert NoOrdersError() */\n      iszero\n      tag_33\n      jumpi\n        /* \"src/Marketplace.sol\":2058:2073  NoOrdersError() */\n      mload(0x40)\n      0x07da169700000000000000000000000000000000000000000000000000000000\n      dup2\n      mstore\n      0x04\n      add\n      mload(0x40)\n      dup1\n      swap2\n      sub\n      swap1\n      revert\n        /* \"src/Marketplace.sol\":1992:2073  if (sellOrderIds_.length == 0 && buyOrderIds_.length == 0) revert NoOrdersError() */\n    tag_33:\n        /* \"src/Marketplace.sol\":2089:2099  uint256 i_ */\n      0x00\n        /* \"src/Marketplace.sol\":2084:2667  for (uint256 i_; i_ < sellOrderIds_.length;) {... */\n    tag_34:\n        /* \"src/Marketplace.sol\":2106:2119  sellOrderIds_ */\n      dup5\n      dup5\n        /* \"src/Marketplace.sol\":2106:2126  sellOrderIds_.length */\n      swap1\n      pop\n        /* \"src/Marketplace.sol\":2101:2103  i_ */\n      dup2\n        /* \"src/Marketplace.sol\":2101:2126  i_ < sellOrderIds_.length */\n      lt\n        /* \"src/Marketplace.sol\":2084:2667  for (uint256 i_; i_ < sellOrderIds_.length;) {... */\n      iszero\n      tag_35\n      jumpi\n        /* \"src/Marketplace.sol\":2143:2170  SellOrder memory sellOrder_ */\n      0x00\n        /* \"src/Marketplace.sol\":2173:2184  _sellOrders */\n      0x01\n        /* \"src/Marketplace.sol\":2185:2198  sellOrderIds_ */\n      dup7\n      dup7\n        /* \"src/Marketplace.sol\":2199:2201  i_ */\n      dup5\n        /* \"src/Marketplace.sol\":2185:2202  sellOrderIds_[i_] */\n      dup2\n      dup2\n      lt\n      tag_37\n      jumpi\n      tag_38\n      tag_39\n      jump\t// in\n    tag_38:\n    tag_37:\n      swap1\n      pop\n      0x20\n      mul\n      add\n      calldataload\n        /* \"src/Marketplace.sol\":2173:2203  _sellOrders[sellOrderIds_[i_]] */\n      dup2\n      sload\n      dup2\n      lt\n      tag_40\n      jumpi\n      tag_41\n      tag_39\n      jump\t// in\n    tag_41:\n    tag_40:\n      swap1\n      0x00\n      mstore\n      keccak256(0x00, 0x20)\n      add\n        /* \"src/Marketplace.sol\":2143:2203  SellOrder memory sellOrder_ = _sellOrders[sellOrderIds_[i_]] */\n      mload(0x40)\n      dup1\n      0x60\n      add\n      0x40\n      mstore\n      swap1\n      dup2\n      0x00\n      dup3\n      add\n      0x00\n      swap1\n      sload\n      swap1\n      0x0100\n      exp\n      swap1\n      div\n      0xffffffffffffffffffffffffffffffffffffffff\n      and\n      0xffffffffffffffffffffffffffffffffffffffff\n      and\n      0xffffffffffffffffffffffffffffffffffffffff\n      and\n      dup2\n      mstore\n      0x20\n      add\n      0x00\n      dup3\n      add\n      0x14\n      swap1\n      sload\n      swap1\n      0x0100\n      exp\n      swap1\n      div\n      0xffff\n      and\n      0xffff\n      and\n      0xffff\n      and\n      dup2\n      mstore\n      0x20\n      add\n      0x00\n      dup3\n      add\n      0x16\n      swap1\n      sload\n      swap1\n      0x0100\n      exp\n      swap1\n      div\n      0xffffffffffffffffffff\n      and\n      0xffffffffffffffffffff\n      and\n      0xffffffffffffffffffff\n      and\n      dup2\n      mstore\n      pop\n      pop\n      swap1\n      pop\n        /* \"src/Marketplace.sol\":2250:2251  0 */\n      0x00\n        /* \"src/Marketplace.sol\":2221:2252  sellOrder_.seller == address(0) */\n      0xffffffffffffffffffffffffffffffffffffffff\n      and\n        /* \"src/Marketplace.sol\":2221:2231  sellOrder_ */\n      dup2\n        /* \"src/Marketplace.sol\":2221:2238  sellOrder_.seller */\n      0x00\n      add\n      mload\n        /* \"src/Marketplace.sol\":2221:2252  sellOrder_.seller == address(0) */\n      0xffffffffffffffffffffffffffffffffffffffff\n      and\n      sub\n        /* \"src/Marketplace.sol\":2217:2306  if (sellOrder_.seller == address(0)) revert SellOrderDoesNotExistError(sellOrderIds_[i_]) */\n      tag_43\n      jumpi\n        /* \"src/Marketplace.sol\":2288:2301  sellOrderIds_ */\n      dup6\n      dup6\n        /* \"src/Marketplace.sol\":2302:2304  i_ */\n      dup4\n        /* \"src/Marketplace.sol\":2288:2305  sellOrderIds_[i_] */\n      dup2\n      dup2\n      lt\n      tag_44\n      jumpi\n      tag_45\n      tag_39\n      jump\t// in\n    tag_45:\n    tag_44:\n      swap1\n      pop\n      0x20\n      mul\n      add\n      calldataload\n        /* \"src/Marketplace.sol\":2261:2306  SellOrderDoesNotExistError(sellOrderIds_[i_]) */\n      mload(0x40)\n      0x2a0b2cb500000000000000000000000000000000000000000000000000000000\n      dup2\n      mstore\n      0x04\n      add\n      tag_46\n      swap2\n      swap1\n      tag_47\n      jump\t// in\n    tag_46:\n      mload(0x40)\n      dup1\n      swap2\n      sub\n      swap1\n      revert\n        /* \"src/Marketplace.sol\":2217:2306  if (sellOrder_.seller == address(0)) revert SellOrderDoesNotExistError(sellOrderIds_[i_]) */\n    tag_43:\n        /* \"src/Marketplace.sol\":2327:2338  _sellOrders */\n      0x01\n        /* \"src/Marketplace.sol\":2339:2352  sellOrderIds_ */\n      dup7\n      dup7\n        /* \"src/Marketplace.sol\":2353:2355  i_ */\n      dup5\n        /* \"src/Marketplace.sol\":2339:2356  sellOrderIds_[i_] */\n      dup2\n      dup2\n      lt\n      tag_48\n      jumpi\n      tag_49\n      tag_39\n      jump\t// in\n    tag_49:\n    tag_48:\n      swap1\n      pop\n      0x20\n      mul\n      add\n      calldataload\n        /* \"src/Marketplace.sol\":2327:2357  _sellOrders[sellOrderIds_[i_]] */\n      dup2\n      sload\n      dup2\n      lt\n      tag_50\n      jumpi\n      tag_51\n      tag_39\n      jump\t// in\n    tag_51:\n    tag_50:\n      swap1\n      0x00\n      mstore\n      keccak256(0x00, 0x20)\n      add\n      0x00\n        /* \"src/Marketplace.sol\":2320:2357  delete _sellOrders[sellOrderIds_[i_]] */\n      dup1\n      dup3\n      add\n      exp(0x0100, 0x00)\n      dup2\n      sload\n      swap1\n      0xffffffffffffffffffffffffffffffffffffffff\n      mul\n      not\n      and\n      swap1\n      sstore\n      0x00\n      dup3\n      add\n      exp(0x0100, 0x14)\n      dup2\n      sload\n      swap1\n      0xffff\n      mul\n      not\n      and\n      swap1\n      sstore\n      0x00\n      dup3\n      add\n      exp(0x0100, 0x16)\n      dup2\n      sload\n      swap1\n      0xffffffffffffffffffff\n      mul\n      not\n      and\n      swap1\n      sstore\n      pop\n      pop\n        /* \"src/Marketplace.sol\":2371:2376  _gold */\n      immutable(\"0x6085f6f924f4d3289e6bd2dcf255c34b40082df304bec05239cb2746d1d3eb0d\")\n        /* \"src/Marketplace.sol\":2371:2399  _gold.privilegedTransferFrom */\n      0xffffffffffffffffffffffffffffffffffffffff\n      and\n      0xa8c0a100\n        /* \"src/Marketplace.sol\":2400:2410  msg.sender */\n      caller\n        /* \"src/Marketplace.sol\":2412:2422  sellOrder_ */\n      dup4\n        /* \"src/Marketplace.sol\":2412:2429  sellOrder_.seller */\n      0x00\n      add\n      mload\n        /* \"src/Marketplace.sol\":2431:2441  sellOrder_ */\n      dup5\n        /* \"src/Marketplace.sol\":2431:2447  sellOrder_.price */\n      0x40\n      add\n      mload\n        /* \"src/Marketplace.sol\":2371:2448  _gold.privilegedTransferFrom(msg.sender, sellOrder_.seller, sellOrder_.price) */\n      mload(0x40)\n      dup5\n      0xffffffff\n      and\n      0xe0\n      shl\n      dup2\n      mstore\n      0x04\n      add\n      tag_53\n      swap4\n      swap3\n      swap2\n      swap1\n      tag_54\n      jump\t// in\n    tag_53:\n      0x00\n      mload(0x40)\n      dup1\n      dup4\n      sub\n      dup2\n      0x00\n      dup8\n      dup1\n      extcodesize\n      iszero\n      dup1\n      iszero\n      tag_55\n      jumpi\n      0x00\n      dup1\n      revert\n    tag_55:\n      pop\n      gas\n      call\n      iszero\n      dup1\n      iszero\n      tag_57\n      jumpi\n      returndatasize\n      0x00\n      dup1\n      returndatacopy\n      revert(0x00, returndatasize)\n    tag_57:\n      pop\n      pop\n      pop\n      pop\n        /* \"src/Marketplace.sol\":2462:2467  _item */\n      immutable(\"0x2c8fba555b11fb06433ead2e3e73a93968b4d4dbd46bbdc289c1b08f53377bbe\")\n        /* \"src/Marketplace.sol\":2462:2472  _item.mint */\n      0xffffffffffffffffffffffffffffffffffffffff\n      and\n      0x40c10f19\n        /* \"src/Marketplace.sol\":2473:2483  msg.sender */\n      caller\n        /* \"src/Marketplace.sol\":2485:2495  sellOrder_ */\n      dup4\n        /* \"src/Marketplace.sol\":2485:2502  sellOrder_.itemId */\n      0x20\n      add\n      mload\n        /* \"src/Marketplace.sol\":2462:2503  _item.mint(msg.sender, sellOrder_.itemId) */\n      mload(0x40)\n      dup4\n      0xffffffff\n      and\n      0xe0\n      shl\n      dup2\n      mstore\n      0x04\n      add\n      tag_58\n      swap3\n      swap2\n      swap1\n      tag_59\n      jump\t// in\n    tag_58:\n      0x00\n      mload(0x40)\n      dup1\n      dup4\n      sub\n      dup2\n      0x00\n      dup8\n      dup1\n      extcodesize\n      iszero\n      dup1\n      iszero\n      tag_60\n      jumpi\n      0x00\n      dup1\n      revert\n    tag_60:\n      pop\n      gas\n      call\n      iszero\n      dup1\n      iszero\n      tag_62\n      jumpi\n      returndatasize\n      0x00\n      dup1\n      returndatacopy\n      revert(0x00, returndatasize)\n    tag_62:\n      pop\n      pop\n      pop\n      pop\n        /* \"src/Marketplace.sol\":2541:2551  sellOrder_ */\n      dup1\n        /* \"src/Marketplace.sol\":2541:2558  sellOrder_.seller */\n      0x00\n      add\n      mload\n        /* \"src/Marketplace.sol\":2522:2596  SellOrderFulfilled(sellOrder_.seller, sellOrder_.itemId, sellOrder_.price) */\n      0xffffffffffffffffffffffffffffffffffffffff\n      and\n      0x42575477750d93faa6263d63274a24b7107221fd2d093eadf4a094a6894db052\n        /* \"src/Marketplace.sol\":2560:2570  sellOrder_ */\n      dup3\n        /* \"src/Marketplace.sol\":2560:2577  sellOrder_.itemId */\n      0x20\n      add\n      mload\n        /* \"src/Marketplace.sol\":2579:2589  sellOrder_ */\n      dup4\n        /* \"src/Marketplace.sol\":2579:2595  sellOrder_.price */\n      0x40\n      add\n      mload\n        /* \"src/Marketplace.sol\":2522:2596  SellOrderFulfilled(sellOrder_.seller, sellOrder_.itemId, sellOrder_.price) */\n      mload(0x40)\n      tag_63\n      swap3\n      swap2\n      swap1\n      tag_64\n      jump\t// in\n    tag_63:\n      mload(0x40)\n      dup1\n      swap2\n      sub\n      swap1\n      log2\n        /* \"src/Marketplace.sol\":2638:2642  ++i_ */\n      dup2\n      0x01\n      add\n      swap2\n      pop\n        /* \"src/Marketplace.sol\":2129:2667  {... */\n      pop\n        /* \"src/Marketplace.sol\":2084:2667  for (uint256 i_; i_ < sellOrderIds_.length;) {... */\n      jump(tag_34)\n    tag_35:\n      pop\n        /* \"src/Marketplace.sol\":2677:2706  uint256 totalGoldInBuyOrders_ */\n      0x00\n        /* \"src/Marketplace.sol\":2721:2731  uint256 i_ */\n      dup1\n        /* \"src/Marketplace.sol\":2716:3284  for (uint256 i_; i_ < buyOrderIds_.length;) {... */\n    tag_65:\n        /* \"src/Marketplace.sol\":2738:2750  buyOrderIds_ */\n      dup4\n      dup4\n        /* \"src/Marketplace.sol\":2738:2757  buyOrderIds_.length */\n      swap1\n      pop\n        /* \"src/Marketplace.sol\":2733:2735  i_ */\n      dup2\n        /* \"src/Marketplace.sol\":2733:2757  i_ < buyOrderIds_.length */\n      lt\n        /* \"src/Marketplace.sol\":2716:3284  for (uint256 i_; i_ < buyOrderIds_.length;) {... */\n      iszero\n      tag_66\n      jumpi\n        /* \"src/Marketplace.sol\":2774:2799  BuyOrder memory buyOrder_ */\n      0x00\n        /* \"src/Marketplace.sol\":2802:2812  _buyOrders */\n      dup1\n        /* \"src/Marketplace.sol\":2813:2825  buyOrderIds_ */\n      dup6\n      dup6\n        /* \"src/Marketplace.sol\":2826:2828  i_ */\n      dup5\n        /* \"src/Marketplace.sol\":2813:2829  buyOrderIds_[i_] */\n      dup2\n      dup2\n      lt\n      tag_68\n      jumpi\n      tag_69\n      tag_39\n      jump\t// in\n    tag_69:\n    tag_68:\n      swap1\n      pop\n      0x20\n      mul\n      add\n      calldataload\n        /* \"src/Marketplace.sol\":2802:2830  _buyOrders[buyOrderIds_[i_]] */\n      dup2\n      sload\n      dup2\n      lt\n      tag_70\n      jumpi\n      tag_71\n      tag_39\n      jump\t// in\n    tag_71:\n    tag_70:\n      swap1\n      0x00\n      mstore\n      keccak256(0x00, 0x20)\n      add\n        /* \"src/Marketplace.sol\":2774:2830  BuyOrder memory buyOrder_ = _buyOrders[buyOrderIds_[i_]] */\n      mload(0x40)\n      dup1\n      0x60\n      add\n      0x40\n      mstore\n      swap1\n      dup2\n      0x00\n      dup3\n      add\n      0x00\n      swap1\n      sload\n      swap1\n      0x0100\n      exp\n      swap1\n      div\n      0xffffffffffffffffffffffffffffffffffffffff\n      and\n      0xffffffffffffffffffffffffffffffffffffffff\n      and\n      0xffffffffffffffffffffffffffffffffffffffff\n      and\n      dup2\n      mstore\n      0x20\n      add\n      0x00\n      dup3\n      add\n      0x14\n      swap1\n      sload\n      swap1\n      0x0100\n      exp\n      swap1\n      div\n      0xffff\n      and\n      0xffff\n      and\n      0xffff\n      and\n      dup2\n      mstore\n      0x20\n      add\n      0x00\n      dup3\n      add\n      0x16\n      swap1\n      sload\n      swap1\n      0x0100\n      exp\n      swap1\n      div\n      0xffffffffffffffffffff\n      and\n      0xffffffffffffffffffff\n      and\n      0xffffffffffffffffffff\n      and\n      dup2\n      mstore\n      pop\n      pop\n      swap1\n      pop\n        /* \"src/Marketplace.sol\":2875:2876  0 */\n      0x00\n        /* \"src/Marketplace.sol\":2848:2877  buyOrder_.buyer == address(0) */\n      0xffffffffffffffffffffffffffffffffffffffff\n      and\n        /* \"src/Marketplace.sol\":2848:2857  buyOrder_ */\n      dup2\n        /* \"src/Marketplace.sol\":2848:2863  buyOrder_.buyer */\n      0x00\n      add\n      mload\n        /* \"src/Marketplace.sol\":2848:2877  buyOrder_.buyer == address(0) */\n      0xffffffffffffffffffffffffffffffffffffffff\n      and\n      sub\n        /* \"src/Marketplace.sol\":2844:2929  if (buyOrder_.buyer == address(0)) revert BuyOrderDoesNotExistError(buyOrderIds_[i_]) */\n      tag_73\n      jumpi\n        /* \"src/Marketplace.sol\":2912:2924  buyOrderIds_ */\n      dup5\n      dup5\n        /* \"src/Marketplace.sol\":2925:2927  i_ */\n      dup4\n        /* \"src/Marketplace.sol\":2912:2928  buyOrderIds_[i_] */\n      dup2\n      dup2\n      lt\n      tag_74\n      jumpi\n      tag_75\n      tag_39\n      jump\t// in\n    tag_75:\n    tag_74:\n      swap1\n      pop\n      0x20\n      mul\n      add\n      calldataload\n        /* \"src/Marketplace.sol\":2886:2929  BuyOrderDoesNotExistError(buyOrderIds_[i_]) */\n      mload(0x40)\n      0xac1b1ef500000000000000000000000000000000000000000000000000000000\n      dup2\n      mstore\n      0x04\n      add\n      tag_76\n      swap2\n      swap1\n      tag_47\n      jump\t// in\n    tag_76:\n      mload(0x40)\n      dup1\n      swap2\n      sub\n      swap1\n      revert\n        /* \"src/Marketplace.sol\":2844:2929  if (buyOrder_.buyer == address(0)) revert BuyOrderDoesNotExistError(buyOrderIds_[i_]) */\n    tag_73:\n        /* \"src/Marketplace.sol\":2950:2960  _buyOrders */\n      0x00\n        /* \"src/Marketplace.sol\":2961:2973  buyOrderIds_ */\n      dup6\n      dup6\n        /* \"src/Marketplace.sol\":2974:2976  i_ */\n      dup5\n        /* \"src/Marketplace.sol\":2961:2977  buyOrderIds_[i_] */\n      dup2\n      dup2\n      lt\n      tag_77\n      jumpi\n      tag_78\n      tag_39\n      jump\t// in\n    tag_78:\n    tag_77:\n      swap1\n      pop\n      0x20\n      mul\n      add\n      calldataload\n        /* \"src/Marketplace.sol\":2950:2978  _buyOrders[buyOrderIds_[i_]] */\n      dup2\n      sload\n      dup2\n      lt\n      tag_79\n      jumpi\n      tag_80\n      tag_39\n      jump\t// in\n    tag_80:\n    tag_79:\n      swap1\n      0x00\n      mstore\n      keccak256(0x00, 0x20)\n      add\n      0x00\n        /* \"src/Marketplace.sol\":2943:2978  delete _buyOrders[buyOrderIds_[i_]] */\n      dup1\n      dup3\n      add\n      exp(0x0100, 0x00)\n      dup2\n      sload\n      swap1\n      0xffffffffffffffffffffffffffffffffffffffff\n      mul\n      not\n      and\n      swap1\n      sstore\n      0x00\n      dup3\n      add\n      exp(0x0100, 0x14)\n      dup2\n      sload\n      swap1\n      0xffff\n      mul\n      not\n      and\n      swap1\n      sstore\n      0x00\n      dup3\n      add\n      exp(0x0100, 0x16)\n      dup2\n      sload\n      swap1\n      0xffffffffffffffffffff\n      mul\n      not\n      and\n      swap1\n      sstore\n      pop\n      pop\n        /* \"src/Marketplace.sol\":3017:3026  buyOrder_ */\n      dup1\n        /* \"src/Marketplace.sol\":3017:3032  buyOrder_.price */\n      0x40\n      add\n      mload\n        /* \"src/Marketplace.sol\":2992:3032  totalGoldInBuyOrders_ += buyOrder_.price */\n      0xffffffffffffffffffff\n      and\n      dup4\n      tag_82\n      swap2\n      swap1\n      tag_83\n      jump\t// in\n    tag_82:\n      swap3\n      pop\n        /* \"src/Marketplace.sol\":3046:3051  _item */\n      immutable(\"0x2c8fba555b11fb06433ead2e3e73a93968b4d4dbd46bbdc289c1b08f53377bbe\")\n        /* \"src/Marketplace.sol\":3046:3078  _item.privilegedSafeTransferFrom */\n      0xffffffffffffffffffffffffffffffffffffffff\n      and\n      0x83720753\n        /* \"src/Marketplace.sol\":3079:3089  msg.sender */\n      caller\n        /* \"src/Marketplace.sol\":3091:3100  buyOrder_ */\n      dup4\n        /* \"src/Marketplace.sol\":3091:3106  buyOrder_.buyer */\n      0x00\n      add\n      mload\n        /* \"src/Marketplace.sol\":3108:3117  buyOrder_ */\n      dup5\n        /* \"src/Marketplace.sol\":3108:3124  buyOrder_.itemId */\n      0x20\n      add\n      mload\n        /* \"src/Marketplace.sol\":3046:3125  _item.privilegedSafeTransferFrom(msg.sender, buyOrder_.buyer, buyOrder_.itemId) */\n      mload(0x40)\n      dup5\n      0xffffffff\n      and\n      0xe0\n      shl\n      dup2\n      mstore\n      0x04\n      add\n      tag_84\n      swap4\n      swap3\n      swap2\n      swap1\n      tag_85\n      jump\t// in\n    tag_84:\n      0x00\n      mload(0x40)\n      dup1\n      dup4\n      sub\n      dup2\n      0x00\n      dup8\n      dup1\n      extcodesize\n      iszero\n      dup1\n      iszero\n      tag_86\n      jumpi\n      0x00\n      dup1\n      revert\n    tag_86:\n      pop\n      gas\n      call\n      iszero\n      dup1\n      iszero\n      tag_88\n      jumpi\n      returndatasize\n      0x00\n      dup1\n      returndatacopy\n      revert(0x00, returndatasize)\n    tag_88:\n      pop\n      pop\n      pop\n      pop\n        /* \"src/Marketplace.sol\":3162:3171  buyOrder_ */\n      dup1\n        /* \"src/Marketplace.sol\":3162:3177  buyOrder_.buyer */\n      0x00\n      add\n      mload\n        /* \"src/Marketplace.sol\":3144:3213  BuyOrderFulfilled(buyOrder_.buyer, buyOrder_.itemId, buyOrder_.price) */\n      0xffffffffffffffffffffffffffffffffffffffff\n      and\n      0xce60f425c1b79c667f6b28f3e98e7f44bbda72ae106ec8f06c2ef8a6645be875\n        /* \"src/Marketplace.sol\":3179:3188  buyOrder_ */\n      dup3\n        /* \"src/Marketplace.sol\":3179:3195  buyOrder_.itemId */\n      0x20\n      add\n      mload\n        /* \"src/Marketplace.sol\":3197:3206  buyOrder_ */\n      dup4\n        /* \"src/Marketplace.sol\":3197:3212  buyOrder_.price */\n      0x40\n      add\n      mload\n        /* \"src/Marketplace.sol\":3144:3213  BuyOrderFulfilled(buyOrder_.buyer, buyOrder_.itemId, buyOrder_.price) */\n      mload(0x40)\n      tag_89\n      swap3\n      swap2\n      swap1\n      tag_64\n      jump\t// in\n    tag_89:\n      mload(0x40)\n      dup1\n      swap2\n      sub\n      swap1\n      log2\n        /* \"src/Marketplace.sol\":3255:3259  ++i_ */\n      dup2\n      0x01\n      add\n      swap2\n      pop\n        /* \"src/Marketplace.sol\":2760:3284  {... */\n      pop\n        /* \"src/Marketplace.sol\":2716:3284  for (uint256 i_; i_ < buyOrderIds_.length;) {... */\n      jump(tag_65)\n    tag_66:\n      pop\n        /* \"src/Marketplace.sol\":3293:3298  _gold */\n      immutable(\"0x6085f6f924f4d3289e6bd2dcf255c34b40082df304bec05239cb2746d1d3eb0d\")\n        /* \"src/Marketplace.sol\":3293:3307  _gold.transfer */\n      0xffffffffffffffffffffffffffffffffffffffff\n      and\n      0xa9059cbb\n        /* \"src/Marketplace.sol\":3308:3318  msg.sender */\n      caller\n        /* \"src/Marketplace.sol\":3320:3341  totalGoldInBuyOrders_ */\n      dup4\n        /* \"src/Marketplace.sol\":3293:3342  _gold.transfer(msg.sender, totalGoldInBuyOrders_) */\n      mload(0x40)\n      dup4\n      0xffffffff\n      and\n      0xe0\n      shl\n      dup2\n      mstore\n      0x04\n      add\n      tag_90\n      swap3\n      swap2\n      swap1\n      tag_91\n      jump\t// in\n    tag_90:\n      0x20\n      mload(0x40)\n      dup1\n      dup4\n      sub\n      dup2\n      0x00\n      dup8\n      gas\n      call\n      iszero\n      dup1\n      iszero\n      tag_93\n      jumpi\n      returndatasize\n      0x00\n      dup1\n      returndatacopy\n      revert(0x00, returndatasize)\n    tag_93:\n      pop\n      pop\n      pop\n      pop\n      mload(0x40)\n      returndatasize\n      not(0x1f)\n      0x1f\n      dup3\n      add\n      and\n      dup3\n      add\n      dup1\n      0x40\n      mstore\n      pop\n      dup2\n      add\n      swap1\n      tag_94\n      swap2\n      swap1\n      tag_95\n      jump\t// in\n    tag_94:\n      pop\n        /* \"src/Marketplace.sol\":1982:3349  {... */\n      pop\n        /* \"src/Marketplace.sol\":1875:3349  function fulfilOrders(uint256[] calldata sellOrderIds_, uint256[] calldata buyOrderIds_) external override {... */\n      pop\n      pop\n      pop\n      pop\n      jump\t// out\n        /* \"src/Marketplace.sol\":3355:4823  function cancelOrders(uint256[] calldata sellOrderIds_, uint256[] calldata buyOrderIds_) external override {... */\n    tag_18:\n        /* \"src/Marketplace.sol\":3500:3501  0 */\n      0x00\n        /* \"src/Marketplace.sol\":3476:3489  sellOrderIds_ */\n      dup5\n      dup5\n        /* \"src/Marketplace.sol\":3476:3496  sellOrderIds_.length */\n      swap1\n      pop\n        /* \"src/Marketplace.sol\":3476:3501  sellOrderIds_.length == 0 */\n      eq\n        /* \"src/Marketplace.sol\":3476:3529  sellOrderIds_.length == 0 && buyOrderIds_.length == 0 */\n      dup1\n      iszero\n      tag_97\n      jumpi\n      pop\n        /* \"src/Marketplace.sol\":3528:3529  0 */\n      0x00\n        /* \"src/Marketplace.sol\":3505:3517  buyOrderIds_ */\n      dup3\n      dup3\n        /* \"src/Marketplace.sol\":3505:3524  buyOrderIds_.length */\n      swap1\n      pop\n        /* \"src/Marketplace.sol\":3505:3529  buyOrderIds_.length == 0 */\n      eq\n        /* \"src/Marketplace.sol\":3476:3529  sellOrderIds_.length == 0 && buyOrderIds_.length == 0 */\n    tag_97:\n        /* \"src/Marketplace.sol\":3472:3553  if (sellOrderIds_.length == 0 && buyOrderIds_.length == 0) revert NoOrdersError() */\n      iszero\n      tag_98\n      jumpi\n        /* \"src/Marketplace.sol\":3538:3553  NoOrdersError() */\n      mload(0x40)\n      0x07da169700000000000000000000000000000000000000000000000000000000\n      dup2\n      mstore\n      0x04\n      add\n      mload(0x40)\n      dup1\n      swap2\n      sub\n      swap1\n      revert\n        /* \"src/Marketplace.sol\":3472:3553  if (sellOrderIds_.length == 0 && buyOrderIds_.length == 0) revert NoOrdersError() */\n    tag_98:\n        /* \"src/Marketplace.sol\":3569:3579  uint256 i_ */\n      0x00\n        /* \"src/Marketplace.sol\":3564:4147  for (uint256 i_; i_ < sellOrderIds_.length;) {... */\n    tag_99:\n        /* \"src/Marketplace.sol\":3586:3599  sellOrderIds_ */\n      dup5\n      dup5\n        /* \"src/Marketplace.sol\":3586:3606  sellOrderIds_.length */\n      swap1\n      pop\n        /* \"src/Marketplace.sol\":3581:3583  i_ */\n      dup2\n        /* \"src/Marketplace.sol\":3581:3606  i_ < sellOrderIds_.length */\n      lt\n        /* \"src/Marketplace.sol\":3564:4147  for (uint256 i_; i_ < sellOrderIds_.length;) {... */\n      iszero\n      tag_100\n      jumpi\n        /* \"src/Marketplace.sol\":3623:3650  SellOrder memory sellOrder_ */\n      0x00\n        /* \"src/Marketplace.sol\":3653:3664  _sellOrders */\n      0x01\n        /* \"src/Marketplace.sol\":3665:3678  sellOrderIds_ */\n      dup7\n      dup7\n        /* \"src/Marketplace.sol\":3679:3681  i_ */\n      dup5\n        /* \"src/Marketplace.sol\":3665:3682  sellOrderIds_[i_] */\n      dup2\n      dup2\n      lt\n      tag_102\n      jumpi\n      tag_103\n      tag_39\n      jump\t// in\n    tag_103:\n    tag_102:\n      swap1\n      pop\n      0x20\n      mul\n      add\n      calldataload\n        /* \"src/Marketplace.sol\":3653:3683  _sellOrders[sellOrderIds_[i_]] */\n      dup2\n      sload\n      dup2\n      lt\n      tag_104\n      jumpi\n      tag_105\n      tag_39\n      jump\t// in\n    tag_105:\n    tag_104:\n      swap1\n      0x00\n      mstore\n      keccak256(0x00, 0x20)\n      add\n        /* \"src/Marketplace.sol\":3623:3683  SellOrder memory sellOrder_ = _sellOrders[sellOrderIds_[i_]] */\n      mload(0x40)\n      dup1\n      0x60\n      add\n      0x40\n      mstore\n      swap1\n      dup2\n      0x00\n      dup3\n      add\n      0x00\n      swap1\n      sload\n      swap1\n      0x0100\n      exp\n      swap1\n      div\n      0xffffffffffffffffffffffffffffffffffffffff\n      and\n      0xffffffffffffffffffffffffffffffffffffffff\n      and\n      0xffffffffffffffffffffffffffffffffffffffff\n      and\n      dup2\n      mstore\n      0x20\n      add\n      0x00\n      dup3\n      add\n      0x14\n      swap1\n      sload\n      swap1\n      0x0100\n      exp\n      swap1\n      div\n      0xffff\n      and\n      0xffff\n      and\n      0xffff\n      and\n      dup2\n      mstore\n      0x20\n      add\n      0x00\n      dup3\n      add\n      0x16\n      swap1\n      sload\n      swap1\n      0x0100\n      exp\n      swap1\n      div\n      0xffffffffffffffffffff\n      and\n      0xffffffffffffffffffff\n      and\n      0xffffffffffffffffffff\n      and\n      dup2\n      mstore\n      pop\n      pop\n      swap1\n      pop\n        /* \"src/Marketplace.sol\":3730:3731  0 */\n      0x00\n        /* \"src/Marketplace.sol\":3701:3732  sellOrder_.seller == address(0) */\n      0xffffffffffffffffffffffffffffffffffffffff\n      and\n        /* \"src/Marketplace.sol\":3701:3711  sellOrder_ */\n      dup2\n        /* \"src/Marketplace.sol\":3701:3718  sellOrder_.seller */\n      0x00\n      add\n      mload\n        /* \"src/Marketplace.sol\":3701:3732  sellOrder_.seller == address(0) */\n      0xffffffffffffffffffffffffffffffffffffffff\n      and\n      sub\n        /* \"src/Marketplace.sol\":3697:3786  if (sellOrder_.seller == address(0)) revert SellOrderDoesNotExistError(sellOrderIds_[i_]) */\n      tag_107\n      jumpi\n        /* \"src/Marketplace.sol\":3768:3781  sellOrderIds_ */\n      dup6\n      dup6\n        /* \"src/Marketplace.sol\":3782:3784  i_ */\n      dup4\n        /* \"src/Marketplace.sol\":3768:3785  sellOrderIds_[i_] */\n      dup2\n      dup2\n      lt\n      tag_108\n      jumpi\n      tag_109\n      tag_39\n      jump\t// in\n    tag_109:\n    tag_108:\n      swap1\n      pop\n      0x20\n      mul\n      add\n      calldataload\n        /* \"src/Marketplace.sol\":3741:3786  SellOrderDoesNotExistError(sellOrderIds_[i_]) */\n      mload(0x40)\n      0x2a0b2cb500000000000000000000000000000000000000000000000000000000\n      dup2\n      mstore\n      0x04\n      add\n      tag_110\n      swap2\n      swap1\n      tag_47\n      jump\t// in\n    tag_110:\n      mload(0x40)\n      dup1\n      swap2\n      sub\n      swap1\n      revert\n        /* \"src/Marketplace.sol\":3697:3786  if (sellOrder_.seller == address(0)) revert SellOrderDoesNotExistError(sellOrderIds_[i_]) */\n    tag_107:\n        /* \"src/Marketplace.sol\":3825:3835  msg.sender */\n      caller\n        /* \"src/Marketplace.sol\":3804:3835  sellOrder_.seller != msg.sender */\n      0xffffffffffffffffffffffffffffffffffffffff\n      and\n        /* \"src/Marketplace.sol\":3804:3814  sellOrder_ */\n      dup2\n        /* \"src/Marketplace.sol\":3804:3821  sellOrder_.seller */\n      0x00\n      add\n      mload\n        /* \"src/Marketplace.sol\":3804:3835  sellOrder_.seller != msg.sender */\n      0xffffffffffffffffffffffffffffffffffffffff\n      and\n      eq\n        /* \"src/Marketplace.sol\":3800:3877  if (sellOrder_.seller != msg.sender) revert NotSellerError(sellOrderIds_[i_]) */\n      tag_111\n      jumpi\n        /* \"src/Marketplace.sol\":3859:3872  sellOrderIds_ */\n      dup6\n      dup6\n        /* \"src/Marketplace.sol\":3873:3875  i_ */\n      dup4\n        /* \"src/Marketplace.sol\":3859:3876  sellOrderIds_[i_] */\n      dup2\n      dup2\n      lt\n      tag_112\n      jumpi\n      tag_113\n      tag_39\n      jump\t// in\n    tag_113:\n    tag_112:\n      swap1\n      pop\n      0x20\n      mul\n      add\n      calldataload\n        /* \"src/Marketplace.sol\":3844:3877  NotSellerError(sellOrderIds_[i_]) */\n      mload(0x40)\n      0x257abc9400000000000000000000000000000000000000000000000000000000\n      dup2\n      mstore\n      0x04\n      add\n      tag_114\n      swap2\n      swap1\n      tag_47\n      jump\t// in\n    tag_114:\n      mload(0x40)\n      dup1\n      swap2\n      sub\n      swap1\n      revert\n        /* \"src/Marketplace.sol\":3800:3877  if (sellOrder_.seller != msg.sender) revert NotSellerError(sellOrderIds_[i_]) */\n    tag_111:\n        /* \"src/Marketplace.sol\":3898:3909  _sellOrders */\n      0x01\n        /* \"src/Marketplace.sol\":3910:3923  sellOrderIds_ */\n      dup7\n      dup7\n        /* \"src/Marketplace.sol\":3924:3926  i_ */\n      dup5\n        /* \"src/Marketplace.sol\":3910:3927  sellOrderIds_[i_] */\n      dup2\n      dup2\n      lt\n      tag_115\n      jumpi\n      tag_116\n      tag_39\n      jump\t// in\n    tag_116:\n    tag_115:\n      swap1\n      pop\n      0x20\n      mul\n      add\n      calldataload\n        /* \"src/Marketplace.sol\":3898:3928  _sellOrders[sellOrderIds_[i_]] */\n      dup2\n      sload\n      dup2\n      lt\n      tag_117\n      jumpi\n      tag_118\n      tag_39\n      jump\t// in\n    tag_118:\n    tag_117:\n      swap1\n      0x00\n      mstore\n      keccak256(0x00, 0x20)\n      add\n      0x00\n        /* \"src/Marketplace.sol\":3891:3928  delete _sellOrders[sellOrderIds_[i_]] */\n      dup1\n      dup3\n      add\n      exp(0x0100, 0x00)\n      dup2\n      sload\n      swap1\n      0xffffffffffffffffffffffffffffffffffffffff\n      mul\n      not\n      and\n      swap1\n      sstore\n      0x00\n      dup3\n      add\n      exp(0x0100, 0x14)\n      dup2\n      sload\n      swap1\n      0xffff\n      mul\n      not\n      and\n      swap1\n      sstore\n      0x00\n      dup3\n      add\n      exp(0x0100, 0x16)\n      dup2\n      sload\n      swap1\n      0xffffffffffffffffffff\n      mul\n      not\n      and\n      swap1\n      sstore\n      pop\n      pop\n        /* \"src/Marketplace.sol\":3942:3947  _item */\n      immutable(\"0x2c8fba555b11fb06433ead2e3e73a93968b4d4dbd46bbdc289c1b08f53377bbe\")\n        /* \"src/Marketplace.sol\":3942:3952  _item.mint */\n      0xffffffffffffffffffffffffffffffffffffffff\n      and\n      0x40c10f19\n        /* \"src/Marketplace.sol\":3953:3963  msg.sender */\n      caller\n        /* \"src/Marketplace.sol\":3965:3975  sellOrder_ */\n      dup4\n        /* \"src/Marketplace.sol\":3965:3982  sellOrder_.itemId */\n      0x20\n      add\n      mload\n        /* \"src/Marketplace.sol\":3942:3983  _item.mint(msg.sender, sellOrder_.itemId) */\n      mload(0x40)\n      dup4\n      0xffffffff\n      and\n      0xe0\n      shl\n      dup2\n      mstore\n      0x04\n      add\n      tag_120\n      swap3\n      swap2\n      swap1\n      tag_59\n      jump\t// in\n    tag_120:\n      0x00\n      mload(0x40)\n      dup1\n      dup4\n      sub\n      dup2\n      0x00\n      dup8\n      dup1\n      extcodesize\n      iszero\n      dup1\n      iszero\n      tag_121\n      jumpi\n      0x00\n      dup1\n      revert\n    tag_121:\n      pop\n      gas\n      call\n      iszero\n      dup1\n      iszero\n      tag_123\n      jumpi\n      returndatasize\n      0x00\n      dup1\n      returndatacopy\n      revert(0x00, returndatasize)\n    tag_123:\n      pop\n      pop\n      pop\n      pop\n        /* \"src/Marketplace.sol\":4021:4031  sellOrder_ */\n      dup1\n        /* \"src/Marketplace.sol\":4021:4038  sellOrder_.seller */\n      0x00\n      add\n      mload\n        /* \"src/Marketplace.sol\":4002:4076  SellOrderCancelled(sellOrder_.seller, sellOrder_.itemId, sellOrder_.price) */\n      0xffffffffffffffffffffffffffffffffffffffff\n      and\n      0xe0d2d550f275a4f9605d9c8bbf2f4dd37b05a67cb1fa5a62aef750f97d082a7c\n        /* \"src/Marketplace.sol\":4040:4050  sellOrder_ */\n      dup3\n        /* \"src/Marketplace.sol\":4040:4057  sellOrder_.itemId */\n      0x20\n      add\n      mload\n        /* \"src/Marketplace.sol\":4059:4069  sellOrder_ */\n      dup4\n        /* \"src/Marketplace.sol\":4059:4075  sellOrder_.price */\n      0x40\n      add\n      mload\n        /* \"src/Marketplace.sol\":4002:4076  SellOrderCancelled(sellOrder_.seller, sellOrder_.itemId, sellOrder_.price) */\n      mload(0x40)\n      tag_124\n      swap3\n      swap2\n      swap1\n      tag_64\n      jump\t// in\n    tag_124:\n      mload(0x40)\n      dup1\n      swap2\n      sub\n      swap1\n      log2\n        /* \"src/Marketplace.sol\":4118:4122  ++i_ */\n      dup2\n      0x01\n      add\n      swap2\n      pop\n        /* \"src/Marketplace.sol\":3609:4147  {... */\n      pop\n        /* \"src/Marketplace.sol\":3564:4147  for (uint256 i_; i_ < sellOrderIds_.length;) {... */\n      jump(tag_99)\n    tag_100:\n      pop\n        /* \"src/Marketplace.sol\":4157:4186  uint256 totalGoldInBuyOrders_ */\n      0x00\n        /* \"src/Marketplace.sol\":4201:4211  uint256 i_ */\n      dup1\n        /* \"src/Marketplace.sol\":4196:4758  for (uint256 i_; i_ < buyOrderIds_.length;) {... */\n    tag_125:\n        /* \"src/Marketplace.sol\":4218:4230  buyOrderIds_ */\n      dup4\n      dup4\n        /* \"src/Marketplace.sol\":4218:4237  buyOrderIds_.length */\n      swap1\n      pop\n        /* \"src/Marketplace.sol\":4213:4215  i_ */\n      dup2\n        /* \"src/Marketplace.sol\":4213:4237  i_ < buyOrderIds_.length */\n      lt\n        /* \"src/Marketplace.sol\":4196:4758  for (uint256 i_; i_ < buyOrderIds_.length;) {... */\n      iszero\n      tag_126\n      jumpi\n        /* \"src/Marketplace.sol\":4254:4279  BuyOrder memory buyOrder_ */\n      0x00\n        /* \"src/Marketplace.sol\":4282:4292  _buyOrders */\n      dup1\n        /* \"src/Marketplace.sol\":4293:4305  buyOrderIds_ */\n      dup6\n      dup6\n        /* \"src/Marketplace.sol\":4306:4308  i_ */\n      dup5\n        /* \"src/Marketplace.sol\":4293:4309  buyOrderIds_[i_] */\n      dup2\n      dup2\n      lt\n      tag_128\n      jumpi\n      tag_129\n      tag_39\n      jump\t// in\n    tag_129:\n    tag_128:\n      swap1\n      pop\n      0x20\n      mul\n      add\n      calldataload\n        /* \"src/Marketplace.sol\":4282:4310  _buyOrders[buyOrderIds_[i_]] */\n      dup2\n      sload\n      dup2\n      lt\n      tag_130\n      jumpi\n      tag_131\n      tag_39\n      jump\t// in\n    tag_131:\n    tag_130:\n      swap1\n      0x00\n      mstore\n      keccak256(0x00, 0x20)\n      add\n        /* \"src/Marketplace.sol\":4254:4310  BuyOrder memory buyOrder_ = _buyOrders[buyOrderIds_[i_]] */\n      mload(0x40)\n      dup1\n      0x60\n      add\n      0x40\n      mstore\n      swap1\n      dup2\n      0x00\n      dup3\n      add\n      0x00\n      swap1\n      sload\n      swap1\n      0x0100\n      exp\n      swap1\n      div\n      0xffffffffffffffffffffffffffffffffffffffff\n      and\n      0xffffffffffffffffffffffffffffffffffffffff\n      and\n      0xffffffffffffffffffffffffffffffffffffffff\n      and\n      dup2\n      mstore\n      0x20\n      add\n      0x00\n      dup3\n      add\n      0x14\n      swap1\n      sload\n      swap1\n      0x0100\n      exp\n      swap1\n      div\n      0xffff\n      and\n      0xffff\n      and\n      0xffff\n      and\n      dup2\n      mstore\n      0x20\n      add\n      0x00\n      dup3\n      add\n      0x16\n      swap1\n      sload\n      swap1\n      0x0100\n      exp\n      swap1\n      div\n      0xffffffffffffffffffff\n      and\n      0xffffffffffffffffffff\n      and\n      0xffffffffffffffffffff\n      and\n      dup2\n      mstore\n      pop\n      pop\n      swap1\n      pop\n        /* \"src/Marketplace.sol\":4355:4356  0 */\n      0x00\n        /* \"src/Marketplace.sol\":4328:4357  buyOrder_.buyer == address(0) */\n      0xffffffffffffffffffffffffffffffffffffffff\n      and\n        /* \"src/Marketplace.sol\":4328:4337  buyOrder_ */\n      dup2\n        /* \"src/Marketplace.sol\":4328:4343  buyOrder_.buyer */\n      0x00\n      add\n      mload\n        /* \"src/Marketplace.sol\":4328:4357  buyOrder_.buyer == address(0) */\n      0xffffffffffffffffffffffffffffffffffffffff\n      and\n      sub\n        /* \"src/Marketplace.sol\":4324:4409  if (buyOrder_.buyer == address(0)) revert BuyOrderDoesNotExistError(buyOrderIds_[i_]) */\n      tag_133\n      jumpi\n        /* \"src/Marketplace.sol\":4392:4404  buyOrderIds_ */\n      dup5\n      dup5\n        /* \"src/Marketplace.sol\":4405:4407  i_ */\n      dup4\n        /* \"src/Marketplace.sol\":4392:4408  buyOrderIds_[i_] */\n      dup2\n      dup2\n      lt\n      tag_134\n      jumpi\n      tag_135\n      tag_39\n      jump\t// in\n    tag_135:\n    tag_134:\n      swap1\n      pop\n      0x20\n      mul\n      add\n      calldataload\n        /* \"src/Marketplace.sol\":4366:4409  BuyOrderDoesNotExistError(buyOrderIds_[i_]) */\n      mload(0x40)\n      0xac1b1ef500000000000000000000000000000000000000000000000000000000\n      dup2\n      mstore\n      0x04\n      add\n      tag_136\n      swap2\n      swap1\n      tag_47\n      jump\t// in\n    tag_136:\n      mload(0x40)\n      dup1\n      swap2\n      sub\n      swap1\n      revert\n        /* \"src/Marketplace.sol\":4324:4409  if (buyOrder_.buyer == address(0)) revert BuyOrderDoesNotExistError(buyOrderIds_[i_]) */\n    tag_133:\n        /* \"src/Marketplace.sol\":4446:4456  msg.sender */\n      caller\n        /* \"src/Marketplace.sol\":4427:4456  buyOrder_.buyer != msg.sender */\n      0xffffffffffffffffffffffffffffffffffffffff\n      and\n        /* \"src/Marketplace.sol\":4427:4436  buyOrder_ */\n      dup2\n        /* \"src/Marketplace.sol\":4427:4442  buyOrder_.buyer */\n      0x00\n      add\n      mload\n        /* \"src/Marketplace.sol\":4427:4456  buyOrder_.buyer != msg.sender */\n      0xffffffffffffffffffffffffffffffffffffffff\n      and\n      eq\n        /* \"src/Marketplace.sol\":4423:4496  if (buyOrder_.buyer != msg.sender) revert NotBuyerError(buyOrderIds_[i_]) */\n      tag_137\n      jumpi\n        /* \"src/Marketplace.sol\":4479:4491  buyOrderIds_ */\n      dup5\n      dup5\n        /* \"src/Marketplace.sol\":4492:4494  i_ */\n      dup4\n        /* \"src/Marketplace.sol\":4479:4495  buyOrderIds_[i_] */\n      dup2\n      dup2\n      lt\n      tag_138\n      jumpi\n      tag_139\n      tag_39\n      jump\t// in\n    tag_139:\n    tag_138:\n      swap1\n      pop\n      0x20\n      mul\n      add\n      calldataload\n        /* \"src/Marketplace.sol\":4465:4496  NotBuyerError(buyOrderIds_[i_]) */\n      mload(0x40)\n      0xba64fd5700000000000000000000000000000000000000000000000000000000\n      dup2\n      mstore\n      0x04\n      add\n      tag_140\n      swap2\n      swap1\n      tag_47\n      jump\t// in\n    tag_140:\n      mload(0x40)\n      dup1\n      swap2\n      sub\n      swap1\n      revert\n        /* \"src/Marketplace.sol\":4423:4496  if (buyOrder_.buyer != msg.sender) revert NotBuyerError(buyOrderIds_[i_]) */\n    tag_137:\n        /* \"src/Marketplace.sol\":4517:4527  _buyOrders */\n      0x00\n        /* \"src/Marketplace.sol\":4528:4540  buyOrderIds_ */\n      dup6\n      dup6\n        /* \"src/Marketplace.sol\":4541:4543  i_ */\n      dup5\n        /* \"src/Marketplace.sol\":4528:4544  buyOrderIds_[i_] */\n      dup2\n      dup2\n      lt\n      tag_141\n      jumpi\n      tag_142\n      tag_39\n      jump\t// in\n    tag_142:\n    tag_141:\n      swap1\n      pop\n      0x20\n      mul\n      add\n      calldataload\n        /* \"src/Marketplace.sol\":4517:4545  _buyOrders[buyOrderIds_[i_]] */\n      dup2\n      sload\n      dup2\n      lt\n      tag_143\n      jumpi\n      tag_144\n      tag_39\n      jump\t// in\n    tag_144:\n    tag_143:\n      swap1\n      0x00\n      mstore\n      keccak256(0x00, 0x20)\n      add\n      0x00\n        /* \"src/Marketplace.sol\":4510:4545  delete _buyOrders[buyOrderIds_[i_]] */\n      dup1\n      dup3\n      add\n      exp(0x0100, 0x00)\n      dup2\n      sload\n      swap1\n      0xffffffffffffffffffffffffffffffffffffffff\n      mul\n      not\n      and\n      swap1\n      sstore\n      0x00\n      dup3\n      add\n      exp(0x0100, 0x14)\n      dup2\n      sload\n      swap1\n      0xffff\n      mul\n      not\n      and\n      swap1\n      sstore\n      0x00\n      dup3\n      add\n      exp(0x0100, 0x16)\n      dup2\n      sload\n      swap1\n      0xffffffffffffffffffff\n      mul\n      not\n      and\n      swap1\n      sstore\n      pop\n      pop\n        /* \"src/Marketplace.sol\":4584:4593  buyOrder_ */\n      dup1\n        /* \"src/Marketplace.sol\":4584:4599  buyOrder_.price */\n      0x40\n      add\n      mload\n        /* \"src/Marketplace.sol\":4559:4599  totalGoldInBuyOrders_ += buyOrder_.price */\n      0xffffffffffffffffffff\n      and\n      dup4\n      tag_146\n      swap2\n      swap1\n      tag_83\n      jump\t// in\n    tag_146:\n      swap3\n      pop\n        /* \"src/Marketplace.sol\":4636:4645  buyOrder_ */\n      dup1\n        /* \"src/Marketplace.sol\":4636:4651  buyOrder_.buyer */\n      0x00\n      add\n      mload\n        /* \"src/Marketplace.sol\":4618:4687  BuyOrderCancelled(buyOrder_.buyer, buyOrder_.itemId, buyOrder_.price) */\n      0xffffffffffffffffffffffffffffffffffffffff\n      and\n      0xd012ffa67ba231feebb0c72dfb6363a78738c94e9f08a2eb205fb727d3cc35ef\n        /* \"src/Marketplace.sol\":4653:4662  buyOrder_ */\n      dup3\n        /* \"src/Marketplace.sol\":4653:4669  buyOrder_.itemId */\n      0x20\n      add\n      mload\n        /* \"src/Marketplace.sol\":4671:4680  buyOrder_ */\n      dup4\n        /* \"src/Marketplace.sol\":4671:4686  buyOrder_.price */\n      0x40\n      add\n      mload\n        /* \"src/Marketplace.sol\":4618:4687  BuyOrderCancelled(buyOrder_.buyer, buyOrder_.itemId, buyOrder_.price) */\n      mload(0x40)\n      tag_147\n      swap3\n      swap2\n      swap1\n      tag_64\n      jump\t// in\n    tag_147:\n      mload(0x40)\n      dup1\n      swap2\n      sub\n      swap1\n      log2\n        /* \"src/Marketplace.sol\":4729:4733  ++i_ */\n      dup2\n      0x01\n      add\n      swap2\n      pop\n        /* \"src/Marketplace.sol\":4240:4758  {... */\n      pop\n        /* \"src/Marketplace.sol\":4196:4758  for (uint256 i_; i_ < buyOrderIds_.length;) {... */\n      jump(tag_125)\n    tag_126:\n      pop\n        /* \"src/Marketplace.sol\":4767:4772  _gold */\n      immutable(\"0x6085f6f924f4d3289e6bd2dcf255c34b40082df304bec05239cb2746d1d3eb0d\")\n        /* \"src/Marketplace.sol\":4767:4781  _gold.transfer */\n      0xffffffffffffffffffffffffffffffffffffffff\n      and\n      0xa9059cbb\n        /* \"src/Marketplace.sol\":4782:4792  msg.sender */\n      caller\n        /* \"src/Marketplace.sol\":4794:4815  totalGoldInBuyOrders_ */\n      dup4\n        /* \"src/Marketplace.sol\":4767:4816  _gold.transfer(msg.sender, totalGoldInBuyOrders_) */\n      mload(0x40)\n      dup4\n      0xffffffff\n      and\n      0xe0\n      shl\n      dup2\n      mstore\n      0x04\n      add\n      tag_148\n      swap3\n      swap2\n      swap1\n      tag_91\n      jump\t// in\n    tag_148:\n      0x20\n      mload(0x40)\n      dup1\n      dup4\n      sub\n      dup2\n      0x00\n      dup8\n      gas\n      call\n      iszero\n      dup1\n      iszero\n      tag_150\n      jumpi\n      returndatasize\n      0x00\n      dup1\n      returndatacopy\n      revert(0x00, returndatasize)\n    tag_150:\n      pop\n      pop\n      pop\n      pop\n      mload(0x40)\n      returndatasize\n      not(0x1f)\n      0x1f\n      dup3\n      add\n      and\n      dup3\n      add\n      dup1\n      0x40\n      mstore\n      pop\n      dup2\n      add\n      swap1\n      tag_151\n      swap2\n      swap1\n      tag_95\n      jump\t// in\n    tag_151:\n      pop\n        /* \"src/Marketplace.sol\":3462:4823  {... */\n      pop\n        /* \"src/Marketplace.sol\":3355:4823  function cancelOrders(uint256[] calldata sellOrderIds_, uint256[] calldata buyOrderIds_) external override {... */\n      pop\n      pop\n      pop\n      pop\n      jump\t// out\n        /* \"src/Marketplace.sol\":510:1869  function placeOrders(SellOrder[] memory sellOrders_, BuyOrder[] memory buyOrders_) external override {... */\n    tag_22:\n        /* \"src/Marketplace.sol\":647:648  0 */\n      0x00\n        /* \"src/Marketplace.sol\":625:636  sellOrders_ */\n      dup3\n        /* \"src/Marketplace.sol\":625:643  sellOrders_.length */\n      mload\n        /* \"src/Marketplace.sol\":625:648  sellOrders_.length == 0 */\n      eq\n        /* \"src/Marketplace.sol\":625:674  sellOrders_.length == 0 && buyOrders_.length == 0 */\n      dup1\n      iszero\n      tag_153\n      jumpi\n      pop\n        /* \"src/Marketplace.sol\":673:674  0 */\n      0x00\n        /* \"src/Marketplace.sol\":652:662  buyOrders_ */\n      dup2\n        /* \"src/Marketplace.sol\":652:669  buyOrders_.length */\n      mload\n        /* \"src/Marketplace.sol\":652:674  buyOrders_.length == 0 */\n      eq\n        /* \"src/Marketplace.sol\":625:674  sellOrders_.length == 0 && buyOrders_.length == 0 */\n    tag_153:\n        /* \"src/Marketplace.sol\":621:698  if (sellOrders_.length == 0 && buyOrders_.length == 0) revert NoOrdersError() */\n      iszero\n      tag_154\n      jumpi\n        /* \"src/Marketplace.sol\":683:698  NoOrdersError() */\n      mload(0x40)\n      0x07da169700000000000000000000000000000000000000000000000000000000\n      dup2\n      mstore\n      0x04\n      add\n      mload(0x40)\n      dup1\n      swap2\n      sub\n      swap1\n      revert\n        /* \"src/Marketplace.sol\":621:698  if (sellOrders_.length == 0 && buyOrders_.length == 0) revert NoOrdersError() */\n    tag_154:\n        /* \"src/Marketplace.sol\":709:738  uint256 totalGoldInBuyOrders_ */\n      0x00\n        /* \"src/Marketplace.sol\":753:763  uint256 i_ */\n      dup1\n        /* \"src/Marketplace.sol\":748:1112  for (uint256 i_; i_ < buyOrders_.length;) {... */\n    tag_155:\n        /* \"src/Marketplace.sol\":770:780  buyOrders_ */\n      dup3\n        /* \"src/Marketplace.sol\":770:787  buyOrders_.length */\n      mload\n        /* \"src/Marketplace.sol\":765:767  i_ */\n      dup2\n        /* \"src/Marketplace.sol\":765:787  i_ < buyOrders_.length */\n      lt\n        /* \"src/Marketplace.sol\":748:1112  for (uint256 i_; i_ < buyOrders_.length;) {... */\n      iszero\n      tag_156\n      jumpi\n        /* \"src/Marketplace.sol\":827:837  msg.sender */\n      caller\n        /* \"src/Marketplace.sol\":804:814  buyOrders_ */\n      dup4\n        /* \"src/Marketplace.sol\":815:817  i_ */\n      dup3\n        /* \"src/Marketplace.sol\":804:818  buyOrders_[i_] */\n      dup2\n      mload\n      dup2\n      lt\n      tag_158\n      jumpi\n      tag_159\n      tag_39\n      jump\t// in\n    tag_159:\n    tag_158:\n      0x20\n      mul\n      0x20\n      add\n      add\n      mload\n        /* \"src/Marketplace.sol\":804:824  buyOrders_[i_].buyer */\n      0x00\n      add\n        /* \"src/Marketplace.sol\":804:837  buyOrders_[i_].buyer = msg.sender */\n      swap1\n      0xffffffffffffffffffffffffffffffffffffffff\n      and\n      swap1\n      dup2\n      0xffffffffffffffffffffffffffffffffffffffff\n      and\n      dup2\n      mstore\n      pop\n      pop\n        /* \"src/Marketplace.sol\":876:886  buyOrders_ */\n      dup3\n        /* \"src/Marketplace.sol\":887:889  i_ */\n      dup2\n        /* \"src/Marketplace.sol\":876:890  buyOrders_[i_] */\n      dup2\n      mload\n      dup2\n      lt\n      tag_160\n      jumpi\n      tag_161\n      tag_39\n      jump\t// in\n    tag_161:\n    tag_160:\n      0x20\n      mul\n      0x20\n      add\n      add\n      mload\n        /* \"src/Marketplace.sol\":876:896  buyOrders_[i_].price */\n      0x40\n      add\n      mload\n        /* \"src/Marketplace.sol\":851:896  totalGoldInBuyOrders_ += buyOrders_[i_].price */\n      0xffffffffffffffffffff\n      and\n      dup3\n      tag_162\n      swap2\n      swap1\n      tag_83\n      jump\t// in\n    tag_162:\n      swap2\n      pop\n        /* \"src/Marketplace.sol\":910:920  _buyOrders */\n      0x00\n        /* \"src/Marketplace.sol\":926:936  buyOrders_ */\n      dup4\n        /* \"src/Marketplace.sol\":937:939  i_ */\n      dup3\n        /* \"src/Marketplace.sol\":926:940  buyOrders_[i_] */\n      dup2\n      mload\n      dup2\n      lt\n      tag_163\n      jumpi\n      tag_164\n      tag_39\n      jump\t// in\n    tag_164:\n    tag_163:\n      0x20\n      mul\n      0x20\n      add\n      add\n      mload\n        /* \"src/Marketplace.sol\":910:941  _buyOrders.push(buyOrders_[i_]) */\n      swap1\n      dup1\n      0x01\n      dup2\n      sload\n      add\n      dup1\n      dup3\n      sstore\n      dup1\n      swap2\n      pop\n      pop\n      0x01\n      swap1\n      sub\n      swap1\n      0x00\n      mstore\n      keccak256(0x00, 0x20)\n      add\n      0x00\n      swap1\n      swap2\n      swap1\n      swap2\n      swap1\n      swap2\n      pop\n      0x00\n      dup3\n      add\n      mload\n      dup2\n      0x00\n      add\n      exp(0x0100, 0x00)\n      dup2\n      sload\n      dup2\n      0xffffffffffffffffffffffffffffffffffffffff\n      mul\n      not\n      and\n      swap1\n      dup4\n      0xffffffffffffffffffffffffffffffffffffffff\n      and\n      mul\n      or\n      swap1\n      sstore\n      pop\n      0x20\n      dup3\n      add\n      mload\n      dup2\n      0x00\n      add\n      exp(0x0100, 0x14)\n      dup2\n      sload\n      dup2\n      0xffff\n      mul\n      not\n      and\n      swap1\n      dup4\n      0xffff\n      and\n      mul\n      or\n      swap1\n      sstore\n      pop\n      0x40\n      dup3\n      add\n      mload\n      dup2\n      0x00\n      add\n      exp(0x0100, 0x16)\n      dup2\n      sload\n      dup2\n      0xffffffffffffffffffff\n      mul\n      not\n      and\n      swap1\n      dup4\n      0xffffffffffffffffffff\n      and\n      mul\n      or\n      swap1\n      sstore\n      pop\n      pop\n      pop\n        /* \"src/Marketplace.sol\":975:985  buyOrders_ */\n      dup3\n        /* \"src/Marketplace.sol\":986:988  i_ */\n      dup2\n        /* \"src/Marketplace.sol\":975:989  buyOrders_[i_] */\n      dup2\n      mload\n      dup2\n      lt\n      tag_166\n      jumpi\n      tag_167\n      tag_39\n      jump\t// in\n    tag_167:\n    tag_166:\n      0x20\n      mul\n      0x20\n      add\n      add\n      mload\n        /* \"src/Marketplace.sol\":975:995  buyOrders_[i_].buyer */\n      0x00\n      add\n      mload\n        /* \"src/Marketplace.sol\":960:1041  BuyOrderPlaced(buyOrders_[i_].buyer, buyOrders_[i_].itemId, buyOrders_[i_].price) */\n      0xffffffffffffffffffffffffffffffffffffffff\n      and\n      0x6fb194c0ed9d019bf344980591e10498571b0a8271fc464513aabc5a21448ca1\n        /* \"src/Marketplace.sol\":997:1007  buyOrders_ */\n      dup5\n        /* \"src/Marketplace.sol\":1008:1010  i_ */\n      dup4\n        /* \"src/Marketplace.sol\":997:1011  buyOrders_[i_] */\n      dup2\n      mload\n      dup2\n      lt\n      tag_168\n      jumpi\n      tag_169\n      tag_39\n      jump\t// in\n    tag_169:\n    tag_168:\n      0x20\n      mul\n      0x20\n      add\n      add\n      mload\n        /* \"src/Marketplace.sol\":997:1018  buyOrders_[i_].itemId */\n      0x20\n      add\n      mload\n        /* \"src/Marketplace.sol\":1020:1030  buyOrders_ */\n      dup6\n        /* \"src/Marketplace.sol\":1031:1033  i_ */\n      dup5\n        /* \"src/Marketplace.sol\":1020:1034  buyOrders_[i_] */\n      dup2\n      mload\n      dup2\n      lt\n      tag_170\n      jumpi\n      tag_171\n      tag_39\n      jump\t// in\n    tag_171:\n    tag_170:\n      0x20\n      mul\n      0x20\n      add\n      add\n      mload\n        /* \"src/Marketplace.sol\":1020:1040  buyOrders_[i_].price */\n      0x40\n      add\n      mload\n        /* \"src/Marketplace.sol\":960:1041  BuyOrderPlaced(buyOrders_[i_].buyer, buyOrders_[i_].itemId, buyOrders_[i_].price) */\n      mload(0x40)\n      tag_172\n      swap3\n      swap2\n      swap1\n      tag_64\n      jump\t// in\n    tag_172:\n      mload(0x40)\n      dup1\n      swap2\n      sub\n      swap1\n      log2\n        /* \"src/Marketplace.sol\":1083:1087  ++i_ */\n      dup1\n      0x01\n      add\n      swap1\n      pop\n        /* \"src/Marketplace.sol\":748:1112  for (uint256 i_; i_ < buyOrders_.length;) {... */\n      jump(tag_155)\n    tag_156:\n      pop\n        /* \"src/Marketplace.sol\":1150:1151  0 */\n      0x00\n        /* \"src/Marketplace.sol\":1125:1146  totalGoldInBuyOrders_ */\n      dup2\n        /* \"src/Marketplace.sol\":1125:1151  totalGoldInBuyOrders_ != 0 */\n      eq\n        /* \"src/Marketplace.sol\":1121:1231  if (totalGoldInBuyOrders_ != 0) _gold.privilegedTransferFrom(msg.sender, address(this), totalGoldInBuyOrders_) */\n      tag_173\n      jumpi\n        /* \"src/Marketplace.sol\":1153:1158  _gold */\n      immutable(\"0x6085f6f924f4d3289e6bd2dcf255c34b40082df304bec05239cb2746d1d3eb0d\")\n        /* \"src/Marketplace.sol\":1153:1181  _gold.privilegedTransferFrom */\n      0xffffffffffffffffffffffffffffffffffffffff\n      and\n      0xa8c0a100\n        /* \"src/Marketplace.sol\":1182:1192  msg.sender */\n      caller\n        /* \"src/Marketplace.sol\":1202:1206  this */\n      address\n        /* \"src/Marketplace.sol\":1209:1230  totalGoldInBuyOrders_ */\n      dup5\n        /* \"src/Marketplace.sol\":1153:1231  _gold.privilegedTransferFrom(msg.sender, address(this), totalGoldInBuyOrders_) */\n      mload(0x40)\n      dup5\n      0xffffffff\n      and\n      0xe0\n      shl\n      dup2\n      mstore\n      0x04\n      add\n      tag_174\n      swap4\n      swap3\n      swap2\n      swap1\n      tag_175\n      jump\t// in\n    tag_174:\n      0x00\n      mload(0x40)\n      dup1\n      dup4\n      sub\n      dup2\n      0x00\n      dup8\n      dup1\n      extcodesize\n      iszero\n      dup1\n      iszero\n      tag_176\n      jumpi\n      0x00\n      dup1\n      revert\n    tag_176:\n      pop\n      gas\n      call\n      iszero\n      dup1\n      iszero\n      tag_178\n      jumpi\n      returndatasize\n      0x00\n      dup1\n      returndatacopy\n      revert(0x00, returndatasize)\n    tag_178:\n      pop\n      pop\n      pop\n      pop\n        /* \"src/Marketplace.sol\":1121:1231  if (totalGoldInBuyOrders_ != 0) _gold.privilegedTransferFrom(msg.sender, address(this), totalGoldInBuyOrders_) */\n    tag_173:\n        /* \"src/Marketplace.sol\":1242:1267  uint256[] memory itemIds_ */\n      0x00\n        /* \"src/Marketplace.sol\":1284:1295  sellOrders_ */\n      dup4\n        /* \"src/Marketplace.sol\":1284:1302  sellOrders_.length */\n      mload\n        /* \"src/Marketplace.sol\":1270:1303  new uint256[](sellOrders_.length) */\n      0xffffffffffffffff\n      dup2\n      gt\n      iszero\n      tag_179\n      jumpi\n      tag_180\n      tag_181\n      jump\t// in\n    tag_180:\n    tag_179:\n      mload(0x40)\n      swap1\n      dup1\n      dup3\n      mstore\n      dup1\n      0x20\n      mul\n      0x20\n      add\n      dup3\n      add\n      0x40\n      mstore\n      dup1\n      iszero\n      tag_182\n      jumpi\n      dup2\n      0x20\n      add\n      0x20\n      dup3\n      mul\n      dup1\n      calldatasize\n      dup4\n      calldatacopy\n      dup1\n      dup3\n      add\n      swap2\n      pop\n      pop\n      swap1\n      pop\n    tag_182:\n      pop\n        /* \"src/Marketplace.sol\":1242:1303  uint256[] memory itemIds_ = new uint256[](sellOrders_.length) */\n      swap1\n      pop\n        /* \"src/Marketplace.sol\":1313:1338  uint256[] memory amounts_ */\n      0x00\n        /* \"src/Marketplace.sol\":1355:1366  sellOrders_ */\n      dup5\n        /* \"src/Marketplace.sol\":1355:1373  sellOrders_.length */\n      mload\n        /* \"src/Marketplace.sol\":1341:1374  new uint256[](sellOrders_.length) */\n      0xffffffffffffffff\n      dup2\n      gt\n      iszero\n      tag_183\n      jumpi\n      tag_184\n      tag_181\n      jump\t// in\n    tag_184:\n    tag_183:\n      mload(0x40)\n      swap1\n      dup1\n      dup3\n      mstore\n      dup1\n      0x20\n      mul\n      0x20\n      add\n      dup3\n      add\n      0x40\n      mstore\n      dup1\n      iszero\n      tag_185\n      jumpi\n      dup2\n      0x20\n      add\n      0x20\n      dup3\n      mul\n      dup1\n      calldatasize\n      dup4\n      calldatacopy\n      dup1\n      dup3\n      add\n      swap2\n      pop\n      pop\n      swap1\n      pop\n    tag_185:\n      pop\n        /* \"src/Marketplace.sol\":1313:1374  uint256[] memory amounts_ = new uint256[](sellOrders_.length) */\n      swap1\n      pop\n        /* \"src/Marketplace.sol\":1389:1399  uint256 i_ */\n      0x00\n        /* \"src/Marketplace.sol\":1384:1780  for (uint256 i_; i_ < sellOrders_.length;) {... */\n    tag_186:\n        /* \"src/Marketplace.sol\":1406:1417  sellOrders_ */\n      dup6\n        /* \"src/Marketplace.sol\":1406:1424  sellOrders_.length */\n      mload\n        /* \"src/Marketplace.sol\":1401:1403  i_ */\n      dup2\n        /* \"src/Marketplace.sol\":1401:1424  i_ < sellOrders_.length */\n      lt\n        /* \"src/Marketplace.sol\":1384:1780  for (uint256 i_; i_ < sellOrders_.length;) {... */\n      iszero\n      tag_187\n      jumpi\n        /* \"src/Marketplace.sol\":1466:1476  msg.sender */\n      caller\n        /* \"src/Marketplace.sol\":1441:1452  sellOrders_ */\n      dup7\n        /* \"src/Marketplace.sol\":1453:1455  i_ */\n      dup3\n        /* \"src/Marketplace.sol\":1441:1456  sellOrders_[i_] */\n      dup2\n      mload\n      dup2\n      lt\n      tag_189\n      jumpi\n      tag_190\n      tag_39\n      jump\t// in\n    tag_190:\n    tag_189:\n      0x20\n      mul\n      0x20\n      add\n      add\n      mload\n        /* \"src/Marketplace.sol\":1441:1463  sellOrders_[i_].seller */\n      0x00\n      add\n        /* \"src/Marketplace.sol\":1441:1476  sellOrders_[i_].seller = msg.sender */\n      swap1\n      0xffffffffffffffffffffffffffffffffffffffff\n      and\n      swap1\n      dup2\n      0xffffffffffffffffffffffffffffffffffffffff\n      and\n      dup2\n      mstore\n      pop\n      pop\n        /* \"src/Marketplace.sol\":1505:1516  sellOrders_ */\n      dup6\n        /* \"src/Marketplace.sol\":1517:1519  i_ */\n      dup2\n        /* \"src/Marketplace.sol\":1505:1520  sellOrders_[i_] */\n      dup2\n      mload\n      dup2\n      lt\n      tag_191\n      jumpi\n      tag_192\n      tag_39\n      jump\t// in\n    tag_192:\n    tag_191:\n      0x20\n      mul\n      0x20\n      add\n      add\n      mload\n        /* \"src/Marketplace.sol\":1505:1527  sellOrders_[i_].itemId */\n      0x20\n      add\n      mload\n        /* \"src/Marketplace.sol\":1490:1527  itemIds_[i_] = sellOrders_[i_].itemId */\n      0xffff\n      and\n        /* \"src/Marketplace.sol\":1490:1498  itemIds_ */\n      dup4\n        /* \"src/Marketplace.sol\":1499:1501  i_ */\n      dup3\n        /* \"src/Marketplace.sol\":1490:1502  itemIds_[i_] */\n      dup2\n      mload\n      dup2\n      lt\n      tag_193\n      jumpi\n      tag_194\n      tag_39\n      jump\t// in\n    tag_194:\n    tag_193:\n      0x20\n      mul\n      0x20\n      add\n      add\n        /* \"src/Marketplace.sol\":1490:1527  itemIds_[i_] = sellOrders_[i_].itemId */\n      dup2\n      dup2\n      mstore\n      pop\n      pop\n        /* \"src/Marketplace.sol\":1556:1557  1 */\n      0x01\n        /* \"src/Marketplace.sol\":1541:1549  amounts_ */\n      dup3\n        /* \"src/Marketplace.sol\":1550:1552  i_ */\n      dup3\n        /* \"src/Marketplace.sol\":1541:1553  amounts_[i_] */\n      dup2\n      mload\n      dup2\n      lt\n      tag_195\n      jumpi\n      tag_196\n      tag_39\n      jump\t// in\n    tag_196:\n    tag_195:\n      0x20\n      mul\n      0x20\n      add\n      add\n        /* \"src/Marketplace.sol\":1541:1557  amounts_[i_] = 1 */\n      dup2\n      dup2\n      mstore\n      pop\n      pop\n        /* \"src/Marketplace.sol\":1571:1582  _sellOrders */\n      0x01\n        /* \"src/Marketplace.sol\":1588:1599  sellOrders_ */\n      dup7\n        /* \"src/Marketplace.sol\":1600:1602  i_ */\n      dup3\n        /* \"src/Marketplace.sol\":1588:1603  sellOrders_[i_] */\n      dup2\n      mload\n      dup2\n      lt\n      tag_197\n      jumpi\n      tag_198\n      tag_39\n      jump\t// in\n    tag_198:\n    tag_197:\n      0x20\n      mul\n      0x20\n      add\n      add\n      mload\n        /* \"src/Marketplace.sol\":1571:1604  _sellOrders.push(sellOrders_[i_]) */\n      swap1\n      dup1\n      0x01\n      dup2\n      sload\n      add\n      dup1\n      dup3\n      sstore\n      dup1\n      swap2\n      pop\n      pop\n      0x01\n      swap1\n      sub\n      swap1\n      0x00\n      mstore\n      keccak256(0x00, 0x20)\n      add\n      0x00\n      swap1\n      swap2\n      swap1\n      swap2\n      swap1\n      swap2\n      pop\n      0x00\n      dup3\n      add\n      mload\n      dup2\n      0x00\n      add\n      exp(0x0100, 0x00)\n      dup2\n      sload\n      dup2\n      0xffffffffffffffffffffffffffffffffffffffff\n      mul\n      not\n      and\n      swap1\n      dup4\n      0xffffffffffffffffffffffffffffffffffffffff\n      and\n      mul\n      or\n      swap1\n      sstore\n      pop\n      0x20\n      dup3\n      add\n      mload\n      dup2\n      0x00\n      add\n      exp(0x0100, 0x14)\n      dup2\n      sload\n      dup2\n      0xffff\n      mul\n      not\n      and\n      swap1\n      dup4\n      0xffff\n      and\n      mul\n      or\n      swap1\n      sstore\n      pop\n      0x40\n      dup3\n      add\n      mload\n      dup2\n      0x00\n      add\n      exp(0x0100, 0x16)\n      dup2\n      sload\n      dup2\n      0xffffffffffffffffffff\n      mul\n      not\n      and\n      swap1\n      dup4\n      0xffffffffffffffffffff\n      and\n      mul\n      or\n      swap1\n      sstore\n      pop\n      pop\n      pop\n        /* \"src/Marketplace.sol\":1639:1650  sellOrders_ */\n      dup6\n        /* \"src/Marketplace.sol\":1651:1653  i_ */\n      dup2\n        /* \"src/Marketplace.sol\":1639:1654  sellOrders_[i_] */\n      dup2\n      mload\n      dup2\n      lt\n      tag_200\n      jumpi\n      tag_201\n      tag_39\n      jump\t// in\n    tag_201:\n    tag_200:\n      0x20\n      mul\n      0x20\n      add\n      add\n      mload\n        /* \"src/Marketplace.sol\":1639:1661  sellOrders_[i_].seller */\n      0x00\n      add\n      mload\n        /* \"src/Marketplace.sol\":1623:1709  SellOrderPlaced(sellOrders_[i_].seller, sellOrders_[i_].itemId, sellOrders_[i_].price) */\n      0xffffffffffffffffffffffffffffffffffffffff\n      and\n      0x1465588286d363e8152f7fe441d891f2e6d5852f4048e883f144b5768ba9cda2\n        /* \"src/Marketplace.sol\":1663:1674  sellOrders_ */\n      dup8\n        /* \"src/Marketplace.sol\":1675:1677  i_ */\n      dup4\n        /* \"src/Marketplace.sol\":1663:1678  sellOrders_[i_] */\n      dup2\n      mload\n      dup2\n      lt\n      tag_202\n      jumpi\n      tag_203\n      tag_39\n      jump\t// in\n    tag_203:\n    tag_202:\n      0x20\n      mul\n      0x20\n      add\n      add\n      mload\n        /* \"src/Marketplace.sol\":1663:1685  sellOrders_[i_].itemId */\n      0x20\n      add\n      mload\n        /* \"src/Marketplace.sol\":1687:1698  sellOrders_ */\n      dup9\n        /* \"src/Marketplace.sol\":1699:1701  i_ */\n      dup5\n        /* \"src/Marketplace.sol\":1687:1702  sellOrders_[i_] */\n      dup2\n      mload\n      dup2\n      lt\n      tag_204\n      jumpi\n      tag_205\n      tag_39\n      jump\t// in\n    tag_205:\n    tag_204:\n      0x20\n      mul\n      0x20\n      add\n      add\n      mload\n        /* \"src/Marketplace.sol\":1687:1708  sellOrders_[i_].price */\n      0x40\n      add\n      mload\n        /* \"src/Marketplace.sol\":1623:1709  SellOrderPlaced(sellOrders_[i_].seller, sellOrders_[i_].itemId, sellOrders_[i_].price) */\n      mload(0x40)\n      tag_206\n      swap3\n      swap2\n      swap1\n      tag_64\n      jump\t// in\n    tag_206:\n      mload(0x40)\n      dup1\n      swap2\n      sub\n      swap1\n      log2\n        /* \"src/Marketplace.sol\":1751:1755  ++i_ */\n      dup1\n      0x01\n      add\n      swap1\n      pop\n        /* \"src/Marketplace.sol\":1384:1780  for (uint256 i_; i_ < sellOrders_.length;) {... */\n      jump(tag_186)\n    tag_187:\n      pop\n        /* \"src/Marketplace.sol\":1812:1813  0 */\n      0x00\n        /* \"src/Marketplace.sol\":1793:1801  itemIds_ */\n      dup3\n        /* \"src/Marketplace.sol\":1793:1808  itemIds_.length */\n      mload\n        /* \"src/Marketplace.sol\":1793:1813  itemIds_.length != 0 */\n      eq\n        /* \"src/Marketplace.sol\":1789:1862  if (itemIds_.length != 0) _item.burnBatch(msg.sender, itemIds_, amounts_) */\n      tag_207\n      jumpi\n        /* \"src/Marketplace.sol\":1815:1820  _item */\n      immutable(\"0x2c8fba555b11fb06433ead2e3e73a93968b4d4dbd46bbdc289c1b08f53377bbe\")\n        /* \"src/Marketplace.sol\":1815:1830  _item.burnBatch */\n      0xffffffffffffffffffffffffffffffffffffffff\n      and\n      0x6b20c454\n        /* \"src/Marketplace.sol\":1831:1841  msg.sender */\n      caller\n        /* \"src/Marketplace.sol\":1843:1851  itemIds_ */\n      dup5\n        /* \"src/Marketplace.sol\":1853:1861  amounts_ */\n      dup5\n        /* \"src/Marketplace.sol\":1815:1862  _item.burnBatch(msg.sender, itemIds_, amounts_) */\n      mload(0x40)\n      dup5\n      0xffffffff\n      and\n      0xe0\n      shl\n      dup2\n      mstore\n      0x04\n      add\n      tag_208\n      swap4\n      swap3\n      swap2\n      swap1\n      tag_209\n      jump\t// in\n    tag_208:\n      0x00\n      mload(0x40)\n      dup1\n      dup4\n      sub\n      dup2\n      0x00\n      dup8\n      dup1\n      extcodesize\n      iszero\n      dup1\n      iszero\n      tag_210\n      jumpi\n      0x00\n      dup1\n      revert\n    tag_210:\n      pop\n      gas\n      call\n      iszero\n      dup1\n      iszero\n      tag_212\n      jumpi\n      returndatasize\n      0x00\n      dup1\n      returndatacopy\n      revert(0x00, returndatasize)\n    tag_212:\n      pop\n      pop\n      pop\n      pop\n        /* \"src/Marketplace.sol\":1789:1862  if (itemIds_.length != 0) _item.burnBatch(msg.sender, itemIds_, amounts_) */\n    tag_207:\n        /* \"src/Marketplace.sol\":611:1869  {... */\n      pop\n      pop\n      pop\n        /* \"src/Marketplace.sol\":510:1869  function placeOrders(SellOrder[] memory sellOrders_, BuyOrder[] memory buyOrders_) external override {... */\n      pop\n      pop\n      jump\t// out\n        /* \"src/Marketplace.sol\":4829:4938  function getBuyOrders() external view override returns (BuyOrder[] memory) {... */\n    tag_24:\n        /* \"src/Marketplace.sol\":4885:4902  BuyOrder[] memory */\n      0x60\n        /* \"src/Marketplace.sol\":4921:4931  _buyOrders */\n      0x00\n        /* \"src/Marketplace.sol\":4914:4931  return _buyOrders */\n      dup1\n      sload\n      dup1\n      0x20\n      mul\n      0x20\n      add\n      mload(0x40)\n      swap1\n      dup2\n      add\n      0x40\n      mstore\n      dup1\n      swap3\n      swap2\n      swap1\n      dup2\n      dup2\n      mstore\n      0x20\n      add\n      0x00\n      swap1\n    tag_214:\n      dup3\n      dup3\n      lt\n      iszero\n      tag_215\n      jumpi\n      dup4\n      dup3\n      swap1\n      0x00\n      mstore\n      keccak256(0x00, 0x20)\n      add\n      mload(0x40)\n      dup1\n      0x60\n      add\n      0x40\n      mstore\n      swap1\n      dup2\n      0x00\n      dup3\n      add\n      0x00\n      swap1\n      sload\n      swap1\n      0x0100\n      exp\n      swap1\n      div\n      0xffffffffffffffffffffffffffffffffffffffff\n      and\n      0xffffffffffffffffffffffffffffffffffffffff\n      and\n      0xffffffffffffffffffffffffffffffffffffffff\n      and\n      dup2\n      mstore\n      0x20\n      add\n      0x00\n      dup3\n      add\n      0x14\n      swap1\n      sload\n      swap1\n      0x0100\n      exp\n      swap1\n      div\n      0xffff\n      and\n      0xffff\n      and\n      0xffff\n      and\n      dup2\n      mstore\n      0x20\n      add\n      0x00\n      dup3\n      add\n      0x16\n      swap1\n      sload\n      swap1\n      0x0100\n      exp\n      swap1\n      div\n      0xffffffffffffffffffff\n      and\n      0xffffffffffffffffffff\n      and\n      0xffffffffffffffffffff\n      and\n      dup2\n      mstore\n      pop\n      pop\n      dup2\n      mstore\n      0x20\n      add\n      swap1\n      0x01\n      add\n      swap1\n      jump(tag_214)\n    tag_215:\n      pop\n      pop\n      pop\n      pop\n      swap1\n      pop\n        /* \"src/Marketplace.sol\":4829:4938  function getBuyOrders() external view override returns (BuyOrder[] memory) {... */\n      swap1\n      jump\t// out\n        /* \"#utility.yul\":7:148   */\n    tag_217:\n        /* \"#utility.yul\":101:107   */\n      0x00\n        /* \"#utility.yul\":135:140   */\n      dup2\n        /* \"#utility.yul\":129:141   */\n      mload\n        /* \"#utility.yul\":119:141   */\n      swap1\n      pop\n        /* \"#utility.yul\":7:148   */\n      swap2\n      swap1\n      pop\n      jump\t// out\n        /* \"#utility.yul\":154:365   */\n    tag_218:\n        /* \"#utility.yul\":280:291   */\n      0x00\n        /* \"#utility.yul\":314:320   */\n      dup3\n        /* \"#utility.yul\":309:312   */\n      dup3\n        /* \"#utility.yul\":302:321   */\n      mstore\n        /* \"#utility.yul\":354:358   */\n      0x20\n        /* \"#utility.yul\":349:352   */\n      dup3\n        /* \"#utility.yul\":345:359   */\n      add\n        /* \"#utility.yul\":330:359   */\n      swap1\n      pop\n        /* \"#utility.yul\":154:365   */\n      swap3\n      swap2\n      pop\n      pop\n      jump\t// out\n        /* \"#utility.yul\":371:530   */\n    tag_219:\n        /* \"#utility.yul\":465:469   */\n      0x00\n        /* \"#utility.yul\":488:491   */\n      dup2\n        /* \"#utility.yul\":480:491   */\n      swap1\n      pop\n        /* \"#utility.yul\":518:522   */\n      0x20\n        /* \"#utility.yul\":513:516   */\n      dup3\n        /* \"#utility.yul\":509:523   */\n      add\n        /* \"#utility.yul\":501:523   */\n      swap1\n      pop\n        /* \"#utility.yul\":371:530   */\n      swap2\n      swap1\n      pop\n      jump\t// out\n        /* \"#utility.yul\":536:662   */\n    tag_220:\n        /* \"#utility.yul\":573:580   */\n      0x00\n        /* \"#utility.yul\":613:655   */\n      0xffffffffffffffffffffffffffffffffffffffff\n        /* \"#utility.yul\":606:611   */\n      dup3\n        /* \"#utility.yul\":602:656   */\n      and\n        /* \"#utility.yul\":591:656   */\n      swap1\n      pop\n        /* \"#utility.yul\":536:662   */\n      swap2\n      swap1\n      pop\n      jump\t// out\n        /* \"#utility.yul\":668:764   */\n    tag_221:\n        /* \"#utility.yul\":705:712   */\n      0x00\n        /* \"#utility.yul\":734:758   */\n      tag_291\n        /* \"#utility.yul\":752:757   */\n      dup3\n        /* \"#utility.yul\":734:758   */\n      tag_220\n      jump\t// in\n    tag_291:\n        /* \"#utility.yul\":723:758   */\n      swap1\n      pop\n        /* \"#utility.yul\":668:764   */\n      swap2\n      swap1\n      pop\n      jump\t// out\n        /* \"#utility.yul\":770:878   */\n    tag_222:\n        /* \"#utility.yul\":847:871   */\n      tag_293\n        /* \"#utility.yul\":865:870   */\n      dup2\n        /* \"#utility.yul\":847:871   */\n      tag_221\n      jump\t// in\n    tag_293:\n        /* \"#utility.yul\":842:845   */\n      dup3\n        /* \"#utility.yul\":835:872   */\n      mstore\n        /* \"#utility.yul\":770:878   */\n      pop\n      pop\n      jump\t// out\n        /* \"#utility.yul\":884:973   */\n    tag_223:\n        /* \"#utility.yul\":920:927   */\n      0x00\n        /* \"#utility.yul\":960:966   */\n      0xffff\n        /* \"#utility.yul\":953:958   */\n      dup3\n        /* \"#utility.yul\":949:967   */\n      and\n        /* \"#utility.yul\":938:967   */\n      swap1\n      pop\n        /* \"#utility.yul\":884:973   */\n      swap2\n      swap1\n      pop\n      jump\t// out\n        /* \"#utility.yul\":979:1084   */\n    tag_224:\n        /* \"#utility.yul\":1054:1077   */\n      tag_296\n        /* \"#utility.yul\":1071:1076   */\n      dup2\n        /* \"#utility.yul\":1054:1077   */\n      tag_223\n      jump\t// in\n    tag_296:\n        /* \"#utility.yul\":1049:1052   */\n      dup3\n        /* \"#utility.yul\":1042:1078   */\n      mstore\n        /* \"#utility.yul\":979:1084   */\n      pop\n      pop\n      jump\t// out\n        /* \"#utility.yul\":1090:1195   */\n    tag_225:\n        /* \"#utility.yul\":1126:1133   */\n      0x00\n        /* \"#utility.yul\":1166:1188   */\n      0xffffffffffffffffffff\n        /* \"#utility.yul\":1159:1164   */\n      dup3\n        /* \"#utility.yul\":1155:1189   */\n      and\n        /* \"#utility.yul\":1144:1189   */\n      swap1\n      pop\n        /* \"#utility.yul\":1090:1195   */\n      swap2\n      swap1\n      pop\n      jump\t// out\n        /* \"#utility.yul\":1201:1306   */\n    tag_226:\n        /* \"#utility.yul\":1276:1299   */\n      tag_299\n        /* \"#utility.yul\":1293:1298   */\n      dup2\n        /* \"#utility.yul\":1276:1299   */\n      tag_225\n      jump\t// in\n    tag_299:\n        /* \"#utility.yul\":1271:1274   */\n      dup3\n        /* \"#utility.yul\":1264:1300   */\n      mstore\n        /* \"#utility.yul\":1201:1306   */\n      pop\n      pop\n      jump\t// out\n        /* \"#utility.yul\":1382:2058   */\n    tag_227:\n        /* \"#utility.yul\":1523:1527   */\n      0x60\n        /* \"#utility.yul\":1518:1521   */\n      dup3\n        /* \"#utility.yul\":1514:1528   */\n      add\n        /* \"#utility.yul\":1612:1616   */\n      0x00\n        /* \"#utility.yul\":1605:1610   */\n      dup3\n        /* \"#utility.yul\":1601:1617   */\n      add\n        /* \"#utility.yul\":1595:1618   */\n      mload\n        /* \"#utility.yul\":1631:1694   */\n      tag_301\n        /* \"#utility.yul\":1688:1692   */\n      0x00\n        /* \"#utility.yul\":1683:1686   */\n      dup6\n        /* \"#utility.yul\":1679:1693   */\n      add\n        /* \"#utility.yul\":1665:1677   */\n      dup3\n        /* \"#utility.yul\":1631:1694   */\n      tag_222\n      jump\t// in\n    tag_301:\n        /* \"#utility.yul\":1538:1704   */\n      pop\n        /* \"#utility.yul\":1788:1792   */\n      0x20\n        /* \"#utility.yul\":1781:1786   */\n      dup3\n        /* \"#utility.yul\":1777:1793   */\n      add\n        /* \"#utility.yul\":1771:1794   */\n      mload\n        /* \"#utility.yul\":1807:1868   */\n      tag_302\n        /* \"#utility.yul\":1862:1866   */\n      0x20\n        /* \"#utility.yul\":1857:1860   */\n      dup6\n        /* \"#utility.yul\":1853:1867   */\n      add\n        /* \"#utility.yul\":1839:1851   */\n      dup3\n        /* \"#utility.yul\":1807:1868   */\n      tag_224\n      jump\t// in\n    tag_302:\n        /* \"#utility.yul\":1714:1878   */\n      pop\n        /* \"#utility.yul\":1961:1965   */\n      0x40\n        /* \"#utility.yul\":1954:1959   */\n      dup3\n        /* \"#utility.yul\":1950:1966   */\n      add\n        /* \"#utility.yul\":1944:1967   */\n      mload\n        /* \"#utility.yul\":1980:2041   */\n      tag_303\n        /* \"#utility.yul\":2035:2039   */\n      0x40\n        /* \"#utility.yul\":2030:2033   */\n      dup6\n        /* \"#utility.yul\":2026:2040   */\n      add\n        /* \"#utility.yul\":2012:2024   */\n      dup3\n        /* \"#utility.yul\":1980:2041   */\n      tag_226\n      jump\t// in\n    tag_303:\n        /* \"#utility.yul\":1888:2051   */\n      pop\n        /* \"#utility.yul\":1492:2058   */\n      pop\n        /* \"#utility.yul\":1382:2058   */\n      pop\n      pop\n      jump\t// out\n        /* \"#utility.yul\":2064:2351   */\n    tag_228:\n        /* \"#utility.yul\":2187:2197   */\n      0x00\n        /* \"#utility.yul\":2208:2308   */\n      tag_305\n        /* \"#utility.yul\":2304:2307   */\n      dup4\n        /* \"#utility.yul\":2296:2302   */\n      dup4\n        /* \"#utility.yul\":2208:2308   */\n      tag_227\n      jump\t// in\n    tag_305:\n        /* \"#utility.yul\":2340:2344   */\n      0x60\n        /* \"#utility.yul\":2335:2338   */\n      dup4\n        /* \"#utility.yul\":2331:2345   */\n      add\n        /* \"#utility.yul\":2317:2345   */\n      swap1\n      pop\n        /* \"#utility.yul\":2064:2351   */\n      swap3\n      swap2\n      pop\n      pop\n      jump\t// out\n        /* \"#utility.yul\":2357:2497   */\n    tag_229:\n        /* \"#utility.yul\":2454:2458   */\n      0x00\n        /* \"#utility.yul\":2486:2490   */\n      0x20\n        /* \"#utility.yul\":2481:2484   */\n      dup3\n        /* \"#utility.yul\":2477:2491   */\n      add\n        /* \"#utility.yul\":2469:2491   */\n      swap1\n      pop\n        /* \"#utility.yul\":2357:2497   */\n      swap2\n      swap1\n      pop\n      jump\t// out\n        /* \"#utility.yul\":2577:3525   */\n    tag_230:\n        /* \"#utility.yul\":2750:2753   */\n      0x00\n        /* \"#utility.yul\":2779:2860   */\n      tag_308\n        /* \"#utility.yul\":2854:2859   */\n      dup3\n        /* \"#utility.yul\":2779:2860   */\n      tag_217\n      jump\t// in\n    tag_308:\n        /* \"#utility.yul\":2876:2989   */\n      tag_309\n        /* \"#utility.yul\":2982:2988   */\n      dup2\n        /* \"#utility.yul\":2977:2980   */\n      dup6\n        /* \"#utility.yul\":2876:2989   */\n      tag_218\n      jump\t// in\n    tag_309:\n        /* \"#utility.yul\":2869:2989   */\n      swap4\n      pop\n        /* \"#utility.yul\":3013:3096   */\n      tag_310\n        /* \"#utility.yul\":3090:3095   */\n      dup4\n        /* \"#utility.yul\":3013:3096   */\n      tag_219\n      jump\t// in\n    tag_310:\n        /* \"#utility.yul\":3119:3126   */\n      dup1\n        /* \"#utility.yul\":3150:3151   */\n      0x00\n        /* \"#utility.yul\":3135:3500   */\n    tag_311:\n        /* \"#utility.yul\":3160:3166   */\n      dup4\n        /* \"#utility.yul\":3157:3158   */\n      dup2\n        /* \"#utility.yul\":3154:3167   */\n      lt\n        /* \"#utility.yul\":3135:3500   */\n      iszero\n      tag_313\n      jumpi\n        /* \"#utility.yul\":3236:3242   */\n      dup2\n        /* \"#utility.yul\":3230:3243   */\n      mload\n        /* \"#utility.yul\":3263:3380   */\n      tag_314\n        /* \"#utility.yul\":3376:3379   */\n      dup9\n        /* \"#utility.yul\":3361:3374   */\n      dup3\n        /* \"#utility.yul\":3263:3380   */\n      tag_228\n      jump\t// in\n    tag_314:\n        /* \"#utility.yul\":3256:3380   */\n      swap8\n      pop\n        /* \"#utility.yul\":3403:3490   */\n      tag_315\n        /* \"#utility.yul\":3483:3489   */\n      dup4\n        /* \"#utility.yul\":3403:3490   */\n      tag_229\n      jump\t// in\n    tag_315:\n        /* \"#utility.yul\":3393:3490   */\n      swap3\n      pop\n        /* \"#utility.yul\":3195:3500   */\n      pop\n        /* \"#utility.yul\":3182:3183   */\n      0x01\n        /* \"#utility.yul\":3179:3180   */\n      dup2\n        /* \"#utility.yul\":3175:3184   */\n      add\n        /* \"#utility.yul\":3170:3184   */\n      swap1\n      pop\n        /* \"#utility.yul\":3135:3500   */\n      jump(tag_311)\n    tag_313:\n        /* \"#utility.yul\":3139:3153   */\n      pop\n        /* \"#utility.yul\":3516:3519   */\n      dup6\n        /* \"#utility.yul\":3509:3519   */\n      swap4\n      pop\n        /* \"#utility.yul\":2755:3525   */\n      pop\n      pop\n      pop\n        /* \"#utility.yul\":2577:3525   */\n      swap3\n      swap2\n      pop\n      pop\n      jump\t// out\n        /* \"#utility.yul\":3531:4012   */\n    tag_11:\n        /* \"#utility.yul\":3728:3732   */\n      0x00\n        /* \"#utility.yul\":3766:3768   */\n      0x20\n        /* \"#utility.yul\":3755:3764   */\n      dup3\n        /* \"#utility.yul\":3751:3769   */\n      add\n        /* \"#utility.yul\":3743:3769   */\n      swap1\n      pop\n        /* \"#utility.yul\":3815:3824   */\n      dup2\n        /* \"#utility.yul\":3809:3813   */\n      dup2\n        /* \"#utility.yul\":3805:3825   */\n      sub\n        /* \"#utility.yul\":3801:3802   */\n      0x00\n        /* \"#utility.yul\":3790:3799   */\n      dup4\n        /* \"#utility.yul\":3786:3803   */\n      add\n        /* \"#utility.yul\":3779:3826   */\n      mstore\n        /* \"#utility.yul\":3843:4005   */\n      tag_317\n        /* \"#utility.yul\":4000:4004   */\n      dup2\n        /* \"#utility.yul\":3991:3997   */\n      dup5\n        /* \"#utility.yul\":3843:4005   */\n      tag_230\n      jump\t// in\n    tag_317:\n        /* \"#utility.yul\":3835:4005   */\n      swap1\n      pop\n        /* \"#utility.yul\":3531:4012   */\n      swap3\n      swap2\n      pop\n      pop\n      jump\t// out\n        /* \"#utility.yul\":4018:4093   */\n    tag_231:\n        /* \"#utility.yul\":4051:4057   */\n      0x00\n        /* \"#utility.yul\":4084:4086   */\n      0x40\n        /* \"#utility.yul\":4078:4087   */\n      mload\n        /* \"#utility.yul\":4068:4087   */\n      swap1\n      pop\n        /* \"#utility.yul\":4018:4093   */\n      swap1\n      jump\t// out\n        /* \"#utility.yul\":4099:4216   */\n    tag_232:\n        /* \"#utility.yul\":4208:4209   */\n      0x00\n        /* \"#utility.yul\":4205:4206   */\n      dup1\n        /* \"#utility.yul\":4198:4210   */\n      revert\n        /* \"#utility.yul\":4222:4339   */\n    tag_233:\n        /* \"#utility.yul\":4331:4332   */\n      0x00\n        /* \"#utility.yul\":4328:4329   */\n      dup1\n        /* \"#utility.yul\":4321:4333   */\n      revert\n        /* \"#utility.yul\":4345:4462   */\n    tag_234:\n        /* \"#utility.yul\":4454:4455   */\n      0x00\n        /* \"#utility.yul\":4451:4452   */\n      dup1\n        /* \"#utility.yul\":4444:4456   */\n      revert\n        /* \"#utility.yul\":4468:4585   */\n    tag_235:\n        /* \"#utility.yul\":4577:4578   */\n      0x00\n        /* \"#utility.yul\":4574:4575   */\n      dup1\n        /* \"#utility.yul\":4567:4579   */\n      revert\n        /* \"#utility.yul\":4591:4708   */\n    tag_236:\n        /* \"#utility.yul\":4700:4701   */\n      0x00\n        /* \"#utility.yul\":4697:4698   */\n      dup1\n        /* \"#utility.yul\":4690:4702   */\n      revert\n        /* \"#utility.yul\":4731:5299   */\n    tag_237:\n        /* \"#utility.yul\":4804:4812   */\n      0x00\n        /* \"#utility.yul\":4814:4820   */\n      dup1\n        /* \"#utility.yul\":4864:4867   */\n      dup4\n        /* \"#utility.yul\":4857:4861   */\n      0x1f\n        /* \"#utility.yul\":4849:4855   */\n      dup5\n        /* \"#utility.yul\":4845:4862   */\n      add\n        /* \"#utility.yul\":4841:4868   */\n      slt\n        /* \"#utility.yul\":4831:4953   */\n      tag_325\n      jumpi\n        /* \"#utility.yul\":4872:4951   */\n      tag_326\n      tag_234\n      jump\t// in\n    tag_326:\n        /* \"#utility.yul\":4831:4953   */\n    tag_325:\n        /* \"#utility.yul\":4985:4991   */\n      dup3\n        /* \"#utility.yul\":4972:4992   */\n      calldataload\n        /* \"#utility.yul\":4962:4992   */\n      swap1\n      pop\n        /* \"#utility.yul\":5015:5033   */\n      0xffffffffffffffff\n        /* \"#utility.yul\":5007:5013   */\n      dup2\n        /* \"#utility.yul\":5004:5034   */\n      gt\n        /* \"#utility.yul\":5001:5118   */\n      iszero\n      tag_327\n      jumpi\n        /* \"#utility.yul\":5037:5116   */\n      tag_328\n      tag_235\n      jump\t// in\n    tag_328:\n        /* \"#utility.yul\":5001:5118   */\n    tag_327:\n        /* \"#utility.yul\":5151:5155   */\n      0x20\n        /* \"#utility.yul\":5143:5149   */\n      dup4\n        /* \"#utility.yul\":5139:5156   */\n      add\n        /* \"#utility.yul\":5127:5156   */\n      swap2\n      pop\n        /* \"#utility.yul\":5205:5208   */\n      dup4\n        /* \"#utility.yul\":5197:5201   */\n      0x20\n        /* \"#utility.yul\":5189:5195   */\n      dup3\n        /* \"#utility.yul\":5185:5202   */\n      mul\n        /* \"#utility.yul\":5175:5183   */\n      dup4\n        /* \"#utility.yul\":5171:5203   */\n      add\n        /* \"#utility.yul\":5168:5209   */\n      gt\n        /* \"#utility.yul\":5165:5293   */\n      iszero\n      tag_329\n      jumpi\n        /* \"#utility.yul\":5212:5291   */\n      tag_330\n      tag_236\n      jump\t// in\n    tag_330:\n        /* \"#utility.yul\":5165:5293   */\n    tag_329:\n        /* \"#utility.yul\":4731:5299   */\n      swap3\n      pop\n      swap3\n      swap1\n      pop\n      jump\t// out\n        /* \"#utility.yul\":5305:6239   */\n    tag_14:\n        /* \"#utility.yul\":5427:5433   */\n      0x00\n        /* \"#utility.yul\":5435:5441   */\n      dup1\n        /* \"#utility.yul\":5443:5449   */\n      0x00\n        /* \"#utility.yul\":5451:5457   */\n      dup1\n        /* \"#utility.yul\":5500:5502   */\n      0x40\n        /* \"#utility.yul\":5488:5497   */\n      dup6\n        /* \"#utility.yul\":5479:5486   */\n      dup8\n        /* \"#utility.yul\":5475:5498   */\n      sub\n        /* \"#utility.yul\":5471:5503   */\n      slt\n        /* \"#utility.yul\":5468:5587   */\n      iszero\n      tag_332\n      jumpi\n        /* \"#utility.yul\":5506:5585   */\n      tag_333\n      tag_232\n      jump\t// in\n    tag_333:\n        /* \"#utility.yul\":5468:5587   */\n    tag_332:\n        /* \"#utility.yul\":5654:5655   */\n      0x00\n        /* \"#utility.yul\":5643:5652   */\n      dup6\n        /* \"#utility.yul\":5639:5656   */\n      add\n        /* \"#utility.yul\":5626:5657   */\n      calldataload\n        /* \"#utility.yul\":5684:5702   */\n      0xffffffffffffffff\n        /* \"#utility.yul\":5676:5682   */\n      dup2\n        /* \"#utility.yul\":5673:5703   */\n      gt\n        /* \"#utility.yul\":5670:5787   */\n      iszero\n      tag_334\n      jumpi\n        /* \"#utility.yul\":5706:5785   */\n      tag_335\n      tag_233\n      jump\t// in\n    tag_335:\n        /* \"#utility.yul\":5670:5787   */\n    tag_334:\n        /* \"#utility.yul\":5819:5899   */\n      tag_336\n        /* \"#utility.yul\":5891:5898   */\n      dup8\n        /* \"#utility.yul\":5882:5888   */\n      dup3\n        /* \"#utility.yul\":5871:5880   */\n      dup9\n        /* \"#utility.yul\":5867:5889   */\n      add\n        /* \"#utility.yul\":5819:5899   */\n      tag_237\n      jump\t// in\n    tag_336:\n        /* \"#utility.yul\":5801:5899   */\n      swap5\n      pop\n      swap5\n      pop\n        /* \"#utility.yul\":5597:5909   */\n      pop\n        /* \"#utility.yul\":5976:5978   */\n      0x20\n        /* \"#utility.yul\":5965:5974   */\n      dup6\n        /* \"#utility.yul\":5961:5979   */\n      add\n        /* \"#utility.yul\":5948:5980   */\n      calldataload\n        /* \"#utility.yul\":6007:6025   */\n      0xffffffffffffffff\n        /* \"#utility.yul\":5999:6005   */\n      dup2\n        /* \"#utility.yul\":5996:6026   */\n      gt\n        /* \"#utility.yul\":5993:6110   */\n      iszero\n      tag_337\n      jumpi\n        /* \"#utility.yul\":6029:6108   */\n      tag_338\n      tag_233\n      jump\t// in\n    tag_338:\n        /* \"#utility.yul\":5993:6110   */\n    tag_337:\n        /* \"#utility.yul\":6142:6222   */\n      tag_339\n        /* \"#utility.yul\":6214:6221   */\n      dup8\n        /* \"#utility.yul\":6205:6211   */\n      dup3\n        /* \"#utility.yul\":6194:6203   */\n      dup9\n        /* \"#utility.yul\":6190:6212   */\n      add\n        /* \"#utility.yul\":6142:6222   */\n      tag_237\n      jump\t// in\n    tag_339:\n        /* \"#utility.yul\":6124:6222   */\n      swap3\n      pop\n      swap3\n      pop\n        /* \"#utility.yul\":5919:6232   */\n      pop\n        /* \"#utility.yul\":5305:6239   */\n      swap3\n      swap6\n      swap2\n      swap5\n      pop\n      swap3\n      pop\n      jump\t// out\n        /* \"#utility.yul\":6245:6347   */\n    tag_238:\n        /* \"#utility.yul\":6286:6292   */\n      0x00\n        /* \"#utility.yul\":6337:6339   */\n      0x1f\n        /* \"#utility.yul\":6333:6340   */\n      not\n        /* \"#utility.yul\":6328:6330   */\n      0x1f\n        /* \"#utility.yul\":6321:6326   */\n      dup4\n        /* \"#utility.yul\":6317:6331   */\n      add\n        /* \"#utility.yul\":6313:6341   */\n      and\n        /* \"#utility.yul\":6303:6341   */\n      swap1\n      pop\n        /* \"#utility.yul\":6245:6347   */\n      swap2\n      swap1\n      pop\n      jump\t// out\n        /* \"#utility.yul\":6353:6533   */\n    tag_181:\n        /* \"#utility.yul\":6401:6478   */\n      0x4e487b7100000000000000000000000000000000000000000000000000000000\n        /* \"#utility.yul\":6398:6399   */\n      0x00\n        /* \"#utility.yul\":6391:6479   */\n      mstore\n        /* \"#utility.yul\":6498:6502   */\n      0x41\n        /* \"#utility.yul\":6495:6496   */\n      0x04\n        /* \"#utility.yul\":6488:6503   */\n      mstore\n        /* \"#utility.yul\":6522:6526   */\n      0x24\n        /* \"#utility.yul\":6519:6520   */\n      0x00\n        /* \"#utility.yul\":6512:6527   */\n      revert\n        /* \"#utility.yul\":6539:6820   */\n    tag_239:\n        /* \"#utility.yul\":6622:6649   */\n      tag_343\n        /* \"#utility.yul\":6644:6648   */\n      dup3\n        /* \"#utility.yul\":6622:6649   */\n      tag_238\n      jump\t// in\n    tag_343:\n        /* \"#utility.yul\":6614:6620   */\n      dup2\n        /* \"#utility.yul\":6610:6650   */\n      add\n        /* \"#utility.yul\":6752:6758   */\n      dup2\n        /* \"#utility.yul\":6740:6750   */\n      dup2\n        /* \"#utility.yul\":6737:6759   */\n      lt\n        /* \"#utility.yul\":6716:6734   */\n      0xffffffffffffffff\n        /* \"#utility.yul\":6704:6714   */\n      dup3\n        /* \"#utility.yul\":6701:6735   */\n      gt\n        /* \"#utility.yul\":6698:6760   */\n      or\n        /* \"#utility.yul\":6695:6783   */\n      iszero\n      tag_344\n      jumpi\n        /* \"#utility.yul\":6763:6781   */\n      tag_345\n      tag_181\n      jump\t// in\n    tag_345:\n        /* \"#utility.yul\":6695:6783   */\n    tag_344:\n        /* \"#utility.yul\":6803:6813   */\n      dup1\n        /* \"#utility.yul\":6799:6801   */\n      0x40\n        /* \"#utility.yul\":6792:6814   */\n      mstore\n        /* \"#utility.yul\":6582:6820   */\n      pop\n        /* \"#utility.yul\":6539:6820   */\n      pop\n      pop\n      jump\t// out\n        /* \"#utility.yul\":6826:6955   */\n    tag_240:\n        /* \"#utility.yul\":6860:6866   */\n      0x00\n        /* \"#utility.yul\":6887:6907   */\n      tag_347\n      tag_231\n      jump\t// in\n    tag_347:\n        /* \"#utility.yul\":6877:6907   */\n      swap1\n      pop\n        /* \"#utility.yul\":6916:6949   */\n      tag_348\n        /* \"#utility.yul\":6944:6948   */\n      dup3\n        /* \"#utility.yul\":6936:6942   */\n      dup3\n        /* \"#utility.yul\":6916:6949   */\n      tag_239\n      jump\t// in\n    tag_348:\n        /* \"#utility.yul\":6826:6955   */\n      swap2\n      swap1\n      pop\n      jump\t// out\n        /* \"#utility.yul\":6961:7299   */\n    tag_241:\n        /* \"#utility.yul\":7065:7069   */\n      0x00\n        /* \"#utility.yul\":7155:7173   */\n      0xffffffffffffffff\n        /* \"#utility.yul\":7147:7153   */\n      dup3\n        /* \"#utility.yul\":7144:7174   */\n      gt\n        /* \"#utility.yul\":7141:7197   */\n      iszero\n      tag_350\n      jumpi\n        /* \"#utility.yul\":7177:7195   */\n      tag_351\n      tag_181\n      jump\t// in\n    tag_351:\n        /* \"#utility.yul\":7141:7197   */\n    tag_350:\n        /* \"#utility.yul\":7227:7231   */\n      0x20\n        /* \"#utility.yul\":7219:7225   */\n      dup3\n        /* \"#utility.yul\":7215:7232   */\n      mul\n        /* \"#utility.yul\":7207:7232   */\n      swap1\n      pop\n        /* \"#utility.yul\":7287:7291   */\n      0x20\n        /* \"#utility.yul\":7281:7285   */\n      dup2\n        /* \"#utility.yul\":7277:7292   */\n      add\n        /* \"#utility.yul\":7269:7292   */\n      swap1\n      pop\n        /* \"#utility.yul\":6961:7299   */\n      swap2\n      swap1\n      pop\n      jump\t// out\n        /* \"#utility.yul\":7305:7422   */\n    tag_242:\n        /* \"#utility.yul\":7414:7415   */\n      0x00\n        /* \"#utility.yul\":7411:7412   */\n      dup1\n        /* \"#utility.yul\":7404:7416   */\n      revert\n        /* \"#utility.yul\":7551:7673   */\n    tag_244:\n        /* \"#utility.yul\":7624:7648   */\n      tag_355\n        /* \"#utility.yul\":7642:7647   */\n      dup2\n        /* \"#utility.yul\":7624:7648   */\n      tag_221\n      jump\t// in\n    tag_355:\n        /* \"#utility.yul\":7617:7622   */\n      dup2\n        /* \"#utility.yul\":7614:7649   */\n      eq\n        /* \"#utility.yul\":7604:7667   */\n      tag_356\n      jumpi\n        /* \"#utility.yul\":7663:7664   */\n      0x00\n        /* \"#utility.yul\":7660:7661   */\n      dup1\n        /* \"#utility.yul\":7653:7665   */\n      revert\n        /* \"#utility.yul\":7604:7667   */\n    tag_356:\n        /* \"#utility.yul\":7551:7673   */\n      pop\n      jump\t// out\n        /* \"#utility.yul\":7679:7818   */\n    tag_245:\n        /* \"#utility.yul\":7725:7730   */\n      0x00\n        /* \"#utility.yul\":7763:7769   */\n      dup2\n        /* \"#utility.yul\":7750:7770   */\n      calldataload\n        /* \"#utility.yul\":7741:7770   */\n      swap1\n      pop\n        /* \"#utility.yul\":7779:7812   */\n      tag_358\n        /* \"#utility.yul\":7806:7811   */\n      dup2\n        /* \"#utility.yul\":7779:7812   */\n      tag_244\n      jump\t// in\n    tag_358:\n        /* \"#utility.yul\":7679:7818   */\n      swap3\n      swap2\n      pop\n      pop\n      jump\t// out\n        /* \"#utility.yul\":7824:7944   */\n    tag_246:\n        /* \"#utility.yul\":7896:7919   */\n      tag_360\n        /* \"#utility.yul\":7913:7918   */\n      dup2\n        /* \"#utility.yul\":7896:7919   */\n      tag_223\n      jump\t// in\n    tag_360:\n        /* \"#utility.yul\":7889:7894   */\n      dup2\n        /* \"#utility.yul\":7886:7920   */\n      eq\n        /* \"#utility.yul\":7876:7938   */\n      tag_361\n      jumpi\n        /* \"#utility.yul\":7934:7935   */\n      0x00\n        /* \"#utility.yul\":7931:7932   */\n      dup1\n        /* \"#utility.yul\":7924:7936   */\n      revert\n        /* \"#utility.yul\":7876:7938   */\n    tag_361:\n        /* \"#utility.yul\":7824:7944   */\n      pop\n      jump\t// out\n        /* \"#utility.yul\":7950:8087   */\n    tag_247:\n        /* \"#utility.yul\":7995:8000   */\n      0x00\n        /* \"#utility.yul\":8033:8039   */\n      dup2\n        /* \"#utility.yul\":8020:8040   */\n      calldataload\n        /* \"#utility.yul\":8011:8040   */\n      swap1\n      pop\n        /* \"#utility.yul\":8049:8081   */\n      tag_363\n        /* \"#utility.yul\":8075:8080   */\n      dup2\n        /* \"#utility.yul\":8049:8081   */\n      tag_246\n      jump\t// in\n    tag_363:\n        /* \"#utility.yul\":7950:8087   */\n      swap3\n      swap2\n      pop\n      pop\n      jump\t// out\n        /* \"#utility.yul\":8093:8213   */\n    tag_248:\n        /* \"#utility.yul\":8165:8188   */\n      tag_365\n        /* \"#utility.yul\":8182:8187   */\n      dup2\n        /* \"#utility.yul\":8165:8188   */\n      tag_225\n      jump\t// in\n    tag_365:\n        /* \"#utility.yul\":8158:8163   */\n      dup2\n        /* \"#utility.yul\":8155:8189   */\n      eq\n        /* \"#utility.yul\":8145:8207   */\n      tag_366\n      jumpi\n        /* \"#utility.yul\":8203:8204   */\n      0x00\n        /* \"#utility.yul\":8200:8201   */\n      dup1\n        /* \"#utility.yul\":8193:8205   */\n      revert\n        /* \"#utility.yul\":8145:8207   */\n    tag_366:\n        /* \"#utility.yul\":8093:8213   */\n      pop\n      jump\t// out\n        /* \"#utility.yul\":8219:8356   */\n    tag_249:\n        /* \"#utility.yul\":8264:8269   */\n      0x00\n        /* \"#utility.yul\":8302:8308   */\n      dup2\n        /* \"#utility.yul\":8289:8309   */\n      calldataload\n        /* \"#utility.yul\":8280:8309   */\n      swap1\n      pop\n        /* \"#utility.yul\":8318:8350   */\n      tag_368\n        /* \"#utility.yul\":8344:8349   */\n      dup2\n        /* \"#utility.yul\":8318:8350   */\n      tag_248\n      jump\t// in\n    tag_368:\n        /* \"#utility.yul\":8219:8356   */\n      swap3\n      swap2\n      pop\n      pop\n      jump\t// out\n        /* \"#utility.yul\":8399:9139   */\n    tag_250:\n        /* \"#utility.yul\":8475:8480   */\n      0x00\n        /* \"#utility.yul\":8519:8523   */\n      0x60\n        /* \"#utility.yul\":8507:8516   */\n      dup3\n        /* \"#utility.yul\":8502:8505   */\n      dup5\n        /* \"#utility.yul\":8498:8517   */\n      sub\n        /* \"#utility.yul\":8494:8524   */\n      slt\n        /* \"#utility.yul\":8491:8608   */\n      iszero\n      tag_370\n      jumpi\n        /* \"#utility.yul\":8527:8606   */\n      tag_371\n      tag_242\n      jump\t// in\n    tag_371:\n        /* \"#utility.yul\":8491:8608   */\n    tag_370:\n        /* \"#utility.yul\":8626:8647   */\n      tag_372\n        /* \"#utility.yul\":8642:8646   */\n      0x60\n        /* \"#utility.yul\":8626:8647   */\n      tag_240\n      jump\t// in\n    tag_372:\n        /* \"#utility.yul\":8617:8647   */\n      swap1\n      pop\n        /* \"#utility.yul\":8708:8709   */\n      0x00\n        /* \"#utility.yul\":8748:8797   */\n      tag_373\n        /* \"#utility.yul\":8793:8796   */\n      dup5\n        /* \"#utility.yul\":8784:8790   */\n      dup3\n        /* \"#utility.yul\":8773:8782   */\n      dup6\n        /* \"#utility.yul\":8769:8791   */\n      add\n        /* \"#utility.yul\":8748:8797   */\n      tag_245\n      jump\t// in\n    tag_373:\n        /* \"#utility.yul\":8741:8745   */\n      0x00\n        /* \"#utility.yul\":8734:8739   */\n      dup4\n        /* \"#utility.yul\":8730:8746   */\n      add\n        /* \"#utility.yul\":8723:8798   */\n      mstore\n        /* \"#utility.yul\":8657:8809   */\n      pop\n        /* \"#utility.yul\":8870:8872   */\n      0x20\n        /* \"#utility.yul\":8911:8959   */\n      tag_374\n        /* \"#utility.yul\":8955:8958   */\n      dup5\n        /* \"#utility.yul\":8946:8952   */\n      dup3\n        /* \"#utility.yul\":8935:8944   */\n      dup6\n        /* \"#utility.yul\":8931:8953   */\n      add\n        /* \"#utility.yul\":8911:8959   */\n      tag_247\n      jump\t// in\n    tag_374:\n        /* \"#utility.yul\":8904:8908   */\n      0x20\n        /* \"#utility.yul\":8897:8902   */\n      dup4\n        /* \"#utility.yul\":8893:8909   */\n      add\n        /* \"#utility.yul\":8886:8960   */\n      mstore\n        /* \"#utility.yul\":8819:8971   */\n      pop\n        /* \"#utility.yul\":9031:9033   */\n      0x40\n        /* \"#utility.yul\":9072:9120   */\n      tag_375\n        /* \"#utility.yul\":9116:9119   */\n      dup5\n        /* \"#utility.yul\":9107:9113   */\n      dup3\n        /* \"#utility.yul\":9096:9105   */\n      dup6\n        /* \"#utility.yul\":9092:9114   */\n      add\n        /* \"#utility.yul\":9072:9120   */\n      tag_249\n      jump\t// in\n    tag_375:\n        /* \"#utility.yul\":9065:9069   */\n      0x40\n        /* \"#utility.yul\":9058:9063   */\n      dup4\n        /* \"#utility.yul\":9054:9070   */\n      add\n        /* \"#utility.yul\":9047:9121   */\n      mstore\n        /* \"#utility.yul\":8981:9132   */\n      pop\n        /* \"#utility.yul\":8399:9139   */\n      swap3\n      swap2\n      pop\n      pop\n      jump\t// out\n        /* \"#utility.yul\":9184:9975   */\n    tag_251:\n        /* \"#utility.yul\":9307:9312   */\n      0x00\n        /* \"#utility.yul\":9332:9440   */\n      tag_377\n        /* \"#utility.yul\":9348:9439   */\n      tag_378\n        /* \"#utility.yul\":9432:9438   */\n      dup5\n        /* \"#utility.yul\":9348:9439   */\n      tag_241\n      jump\t// in\n    tag_378:\n        /* \"#utility.yul\":9332:9440   */\n      tag_240\n      jump\t// in\n    tag_377:\n        /* \"#utility.yul\":9323:9440   */\n      swap1\n      pop\n        /* \"#utility.yul\":9460:9465   */\n      dup1\n        /* \"#utility.yul\":9489:9495   */\n      dup4\n        /* \"#utility.yul\":9482:9487   */\n      dup3\n        /* \"#utility.yul\":9475:9496   */\n      mstore\n        /* \"#utility.yul\":9523:9527   */\n      0x20\n        /* \"#utility.yul\":9516:9521   */\n      dup3\n        /* \"#utility.yul\":9512:9528   */\n      add\n        /* \"#utility.yul\":9505:9528   */\n      swap1\n      pop\n        /* \"#utility.yul\":9576:9580   */\n      0x60\n        /* \"#utility.yul\":9568:9574   */\n      dup5\n        /* \"#utility.yul\":9564:9581   */\n      mul\n        /* \"#utility.yul\":9556:9562   */\n      dup4\n        /* \"#utility.yul\":9552:9582   */\n      add\n        /* \"#utility.yul\":9605:9608   */\n      dup6\n        /* \"#utility.yul\":9597:9603   */\n      dup2\n        /* \"#utility.yul\":9594:9609   */\n      gt\n        /* \"#utility.yul\":9591:9713   */\n      iszero\n      tag_379\n      jumpi\n        /* \"#utility.yul\":9624:9703   */\n      tag_380\n      tag_236\n      jump\t// in\n    tag_380:\n        /* \"#utility.yul\":9591:9713   */\n    tag_379:\n        /* \"#utility.yul\":9739:9745   */\n      dup4\n        /* \"#utility.yul\":9722:9969   */\n    tag_381:\n        /* \"#utility.yul\":9756:9762   */\n      dup2\n        /* \"#utility.yul\":9751:9754   */\n      dup2\n        /* \"#utility.yul\":9748:9763   */\n      lt\n        /* \"#utility.yul\":9722:9969   */\n      iszero\n      tag_383\n      jumpi\n        /* \"#utility.yul\":9831:9834   */\n      dup1\n        /* \"#utility.yul\":9860:9924   */\n      tag_384\n        /* \"#utility.yul\":9920:9923   */\n      dup9\n        /* \"#utility.yul\":9908:9918   */\n      dup3\n        /* \"#utility.yul\":9860:9924   */\n      tag_250\n      jump\t// in\n    tag_384:\n        /* \"#utility.yul\":9855:9858   */\n      dup5\n        /* \"#utility.yul\":9848:9925   */\n      mstore\n        /* \"#utility.yul\":9954:9958   */\n      0x20\n        /* \"#utility.yul\":9949:9952   */\n      dup5\n        /* \"#utility.yul\":9945:9959   */\n      add\n        /* \"#utility.yul\":9938:9959   */\n      swap4\n      pop\n        /* \"#utility.yul\":9798:9969   */\n      pop\n        /* \"#utility.yul\":9782:9786   */\n      0x60\n        /* \"#utility.yul\":9777:9780   */\n      dup2\n        /* \"#utility.yul\":9773:9787   */\n      add\n        /* \"#utility.yul\":9766:9787   */\n      swap1\n      pop\n        /* \"#utility.yul\":9722:9969   */\n      jump(tag_381)\n    tag_383:\n        /* \"#utility.yul\":9726:9747   */\n      pop\n        /* \"#utility.yul\":9313:9975   */\n      pop\n      pop\n        /* \"#utility.yul\":9184:9975   */\n      swap4\n      swap3\n      pop\n      pop\n      pop\n      jump\t// out\n        /* \"#utility.yul\":10020:10444   */\n    tag_252:\n        /* \"#utility.yul\":10118:10123   */\n      0x00\n        /* \"#utility.yul\":10167:10170   */\n      dup3\n        /* \"#utility.yul\":10160:10164   */\n      0x1f\n        /* \"#utility.yul\":10152:10158   */\n      dup4\n        /* \"#utility.yul\":10148:10165   */\n      add\n        /* \"#utility.yul\":10144:10171   */\n      slt\n        /* \"#utility.yul\":10134:10256   */\n      tag_386\n      jumpi\n        /* \"#utility.yul\":10175:10254   */\n      tag_387\n      tag_234\n      jump\t// in\n    tag_387:\n        /* \"#utility.yul\":10134:10256   */\n    tag_386:\n        /* \"#utility.yul\":10292:10298   */\n      dup2\n        /* \"#utility.yul\":10279:10299   */\n      calldataload\n        /* \"#utility.yul\":10317:10438   */\n      tag_388\n        /* \"#utility.yul\":10434:10437   */\n      dup5\n        /* \"#utility.yul\":10426:10432   */\n      dup3\n        /* \"#utility.yul\":10419:10423   */\n      0x20\n        /* \"#utility.yul\":10411:10417   */\n      dup7\n        /* \"#utility.yul\":10407:10424   */\n      add\n        /* \"#utility.yul\":10317:10438   */\n      tag_251\n      jump\t// in\n    tag_388:\n        /* \"#utility.yul\":10308:10438   */\n      swap2\n      pop\n        /* \"#utility.yul\":10124:10444   */\n      pop\n        /* \"#utility.yul\":10020:10444   */\n      swap3\n      swap2\n      pop\n      pop\n      jump\t// out\n        /* \"#utility.yul\":10450:10787   */\n    tag_253:\n        /* \"#utility.yul\":10553:10557   */\n      0x00\n        /* \"#utility.yul\":10643:10661   */\n      0xffffffffffffffff\n        /* \"#utility.yul\":10635:10641   */\n      dup3\n        /* \"#utility.yul\":10632:10662   */\n      gt\n        /* \"#utility.yul\":10629:10685   */\n      iszero\n      tag_390\n      jumpi\n        /* \"#utility.yul\":10665:10683   */\n      tag_391\n      tag_181\n      jump\t// in\n    tag_391:\n        /* \"#utility.yul\":10629:10685   */\n    tag_390:\n        /* \"#utility.yul\":10715:10719   */\n      0x20\n        /* \"#utility.yul\":10707:10713   */\n      dup3\n        /* \"#utility.yul\":10703:10720   */\n      mul\n        /* \"#utility.yul\":10695:10720   */\n      swap1\n      pop\n        /* \"#utility.yul\":10775:10779   */\n      0x20\n        /* \"#utility.yul\":10769:10773   */\n      dup2\n        /* \"#utility.yul\":10765:10780   */\n      add\n        /* \"#utility.yul\":10757:10780   */\n      swap1\n      pop\n        /* \"#utility.yul\":10450:10787   */\n      swap2\n      swap1\n      pop\n      jump\t// out\n        /* \"#utility.yul\":10829:11567   */\n    tag_254:\n        /* \"#utility.yul\":10904:10909   */\n      0x00\n        /* \"#utility.yul\":10948:10952   */\n      0x60\n        /* \"#utility.yul\":10936:10945   */\n      dup3\n        /* \"#utility.yul\":10931:10934   */\n      dup5\n        /* \"#utility.yul\":10927:10946   */\n      sub\n        /* \"#utility.yul\":10923:10953   */\n      slt\n        /* \"#utility.yul\":10920:11037   */\n      iszero\n      tag_393\n      jumpi\n        /* \"#utility.yul\":10956:11035   */\n      tag_394\n      tag_242\n      jump\t// in\n    tag_394:\n        /* \"#utility.yul\":10920:11037   */\n    tag_393:\n        /* \"#utility.yul\":11055:11076   */\n      tag_395\n        /* \"#utility.yul\":11071:11075   */\n      0x60\n        /* \"#utility.yul\":11055:11076   */\n      tag_240\n      jump\t// in\n    tag_395:\n        /* \"#utility.yul\":11046:11076   */\n      swap1\n      pop\n        /* \"#utility.yul\":11136:11137   */\n      0x00\n        /* \"#utility.yul\":11176:11225   */\n      tag_396\n        /* \"#utility.yul\":11221:11224   */\n      dup5\n        /* \"#utility.yul\":11212:11218   */\n      dup3\n        /* \"#utility.yul\":11201:11210   */\n      dup6\n        /* \"#utility.yul\":11197:11219   */\n      add\n        /* \"#utility.yul\":11176:11225   */\n      tag_245\n      jump\t// in\n    tag_396:\n        /* \"#utility.yul\":11169:11173   */\n      0x00\n        /* \"#utility.yul\":11162:11167   */\n      dup4\n        /* \"#utility.yul\":11158:11174   */\n      add\n        /* \"#utility.yul\":11151:11226   */\n      mstore\n        /* \"#utility.yul\":11086:11237   */\n      pop\n        /* \"#utility.yul\":11298:11300   */\n      0x20\n        /* \"#utility.yul\":11339:11387   */\n      tag_397\n        /* \"#utility.yul\":11383:11386   */\n      dup5\n        /* \"#utility.yul\":11374:11380   */\n      dup3\n        /* \"#utility.yul\":11363:11372   */\n      dup6\n        /* \"#utility.yul\":11359:11381   */\n      add\n        /* \"#utility.yul\":11339:11387   */\n      tag_247\n      jump\t// in\n    tag_397:\n        /* \"#utility.yul\":11332:11336   */\n      0x20\n        /* \"#utility.yul\":11325:11330   */\n      dup4\n        /* \"#utility.yul\":11321:11337   */\n      add\n        /* \"#utility.yul\":11314:11388   */\n      mstore\n        /* \"#utility.yul\":11247:11399   */\n      pop\n        /* \"#utility.yul\":11459:11461   */\n      0x40\n        /* \"#utility.yul\":11500:11548   */\n      tag_398\n        /* \"#utility.yul\":11544:11547   */\n      dup5\n        /* \"#utility.yul\":11535:11541   */\n      dup3\n        /* \"#utility.yul\":11524:11533   */\n      dup6\n        /* \"#utility.yul\":11520:11542   */\n      add\n        /* \"#utility.yul\":11500:11548   */\n      tag_249\n      jump\t// in\n    tag_398:\n        /* \"#utility.yul\":11493:11497   */\n      0x40\n        /* \"#utility.yul\":11486:11491   */\n      dup4\n        /* \"#utility.yul\":11482:11498   */\n      add\n        /* \"#utility.yul\":11475:11549   */\n      mstore\n        /* \"#utility.yul\":11409:11560   */\n      pop\n        /* \"#utility.yul\":10829:11567   */\n      swap3\n      swap2\n      pop\n      pop\n      jump\t// out\n        /* \"#utility.yul\":11611:12399   */\n    tag_255:\n        /* \"#utility.yul\":11733:11738   */\n      0x00\n        /* \"#utility.yul\":11758:11865   */\n      tag_400\n        /* \"#utility.yul\":11774:11864   */\n      tag_401\n        /* \"#utility.yul\":11857:11863   */\n      dup5\n        /* \"#utility.yul\":11774:11864   */\n      tag_253\n      jump\t// in\n    tag_401:\n        /* \"#utility.yul\":11758:11865   */\n      tag_240\n      jump\t// in\n    tag_400:\n        /* \"#utility.yul\":11749:11865   */\n      swap1\n      pop\n        /* \"#utility.yul\":11885:11890   */\n      dup1\n        /* \"#utility.yul\":11914:11920   */\n      dup4\n        /* \"#utility.yul\":11907:11912   */\n      dup3\n        /* \"#utility.yul\":11900:11921   */\n      mstore\n        /* \"#utility.yul\":11948:11952   */\n      0x20\n        /* \"#utility.yul\":11941:11946   */\n      dup3\n        /* \"#utility.yul\":11937:11953   */\n      add\n        /* \"#utility.yul\":11930:11953   */\n      swap1\n      pop\n        /* \"#utility.yul\":12001:12005   */\n      0x60\n        /* \"#utility.yul\":11993:11999   */\n      dup5\n        /* \"#utility.yul\":11989:12006   */\n      mul\n        /* \"#utility.yul\":11981:11987   */\n      dup4\n        /* \"#utility.yul\":11977:12007   */\n      add\n        /* \"#utility.yul\":12030:12033   */\n      dup6\n        /* \"#utility.yul\":12022:12028   */\n      dup2\n        /* \"#utility.yul\":12019:12034   */\n      gt\n        /* \"#utility.yul\":12016:12138   */\n      iszero\n      tag_402\n      jumpi\n        /* \"#utility.yul\":12049:12128   */\n      tag_403\n      tag_236\n      jump\t// in\n    tag_403:\n        /* \"#utility.yul\":12016:12138   */\n    tag_402:\n        /* \"#utility.yul\":12164:12170   */\n      dup4\n        /* \"#utility.yul\":12147:12393   */\n    tag_404:\n        /* \"#utility.yul\":12181:12187   */\n      dup2\n        /* \"#utility.yul\":12176:12179   */\n      dup2\n        /* \"#utility.yul\":12173:12188   */\n      lt\n        /* \"#utility.yul\":12147:12393   */\n      iszero\n      tag_406\n      jumpi\n        /* \"#utility.yul\":12256:12259   */\n      dup1\n        /* \"#utility.yul\":12285:12348   */\n      tag_407\n        /* \"#utility.yul\":12344:12347   */\n      dup9\n        /* \"#utility.yul\":12332:12342   */\n      dup3\n        /* \"#utility.yul\":12285:12348   */\n      tag_254\n      jump\t// in\n    tag_407:\n        /* \"#utility.yul\":12280:12283   */\n      dup5\n        /* \"#utility.yul\":12273:12349   */\n      mstore\n        /* \"#utility.yul\":12378:12382   */\n      0x20\n        /* \"#utility.yul\":12373:12376   */\n      dup5\n        /* \"#utility.yul\":12369:12383   */\n      add\n        /* \"#utility.yul\":12362:12383   */\n      swap4\n      pop\n        /* \"#utility.yul\":12223:12393   */\n      pop\n        /* \"#utility.yul\":12207:12211   */\n      0x60\n        /* \"#utility.yul\":12202:12205   */\n      dup2\n        /* \"#utility.yul\":12198:12212   */\n      add\n        /* \"#utility.yul\":12191:12212   */\n      swap1\n      pop\n        /* \"#utility.yul\":12147:12393   */\n      jump(tag_404)\n    tag_406:\n        /* \"#utility.yul\":12151:12172   */\n      pop\n        /* \"#utility.yul\":11739:12399   */\n      pop\n      pop\n        /* \"#utility.yul\":11611:12399   */\n      swap4\n      swap3\n      pop\n      pop\n      pop\n      jump\t// out\n        /* \"#utility.yul\":12443:12865   */\n    tag_256:\n        /* \"#utility.yul\":12540:12545   */\n      0x00\n        /* \"#utility.yul\":12589:12592   */\n      dup3\n        /* \"#utility.yul\":12582:12586   */\n      0x1f\n        /* \"#utility.yul\":12574:12580   */\n      dup4\n        /* \"#utility.yul\":12570:12587   */\n      add\n        /* \"#utility.yul\":12566:12593   */\n      slt\n        /* \"#utility.yul\":12556:12678   */\n      tag_409\n      jumpi\n        /* \"#utility.yul\":12597:12676   */\n      tag_410\n      tag_234\n      jump\t// in\n    tag_410:\n        /* \"#utility.yul\":12556:12678   */\n    tag_409:\n        /* \"#utility.yul\":12714:12720   */\n      dup2\n        /* \"#utility.yul\":12701:12721   */\n      calldataload\n        /* \"#utility.yul\":12739:12859   */\n      tag_411\n        /* \"#utility.yul\":12855:12858   */\n      dup5\n        /* \"#utility.yul\":12847:12853   */\n      dup3\n        /* \"#utility.yul\":12840:12844   */\n      0x20\n        /* \"#utility.yul\":12832:12838   */\n      dup7\n        /* \"#utility.yul\":12828:12845   */\n      add\n        /* \"#utility.yul\":12739:12859   */\n      tag_255\n      jump\t// in\n    tag_411:\n        /* \"#utility.yul\":12730:12859   */\n      swap2\n      pop\n        /* \"#utility.yul\":12546:12865   */\n      pop\n        /* \"#utility.yul\":12443:12865   */\n      swap3\n      swap2\n      pop\n      pop\n      jump\t// out\n        /* \"#utility.yul\":12871:13871   */\n    tag_21:\n        /* \"#utility.yul\":13042:13048   */\n      0x00\n        /* \"#utility.yul\":13050:13056   */\n      dup1\n        /* \"#utility.yul\":13099:13101   */\n      0x40\n        /* \"#utility.yul\":13087:13096   */\n      dup4\n        /* \"#utility.yul\":13078:13085   */\n      dup6\n        /* \"#utility.yul\":13074:13097   */\n      sub\n        /* \"#utility.yul\":13070:13102   */\n      slt\n        /* \"#utility.yul\":13067:13186   */\n      iszero\n      tag_413\n      jumpi\n        /* \"#utility.yul\":13105:13184   */\n      tag_414\n      tag_232\n      jump\t// in\n    tag_414:\n        /* \"#utility.yul\":13067:13186   */\n    tag_413:\n        /* \"#utility.yul\":13253:13254   */\n      0x00\n        /* \"#utility.yul\":13242:13251   */\n      dup4\n        /* \"#utility.yul\":13238:13255   */\n      add\n        /* \"#utility.yul\":13225:13256   */\n      calldataload\n        /* \"#utility.yul\":13283:13301   */\n      0xffffffffffffffff\n        /* \"#utility.yul\":13275:13281   */\n      dup2\n        /* \"#utility.yul\":13272:13302   */\n      gt\n        /* \"#utility.yul\":13269:13386   */\n      iszero\n      tag_415\n      jumpi\n        /* \"#utility.yul\":13305:13384   */\n      tag_416\n      tag_233\n      jump\t// in\n    tag_416:\n        /* \"#utility.yul\":13269:13386   */\n    tag_415:\n        /* \"#utility.yul\":13410:13515   */\n      tag_417\n        /* \"#utility.yul\":13507:13514   */\n      dup6\n        /* \"#utility.yul\":13498:13504   */\n      dup3\n        /* \"#utility.yul\":13487:13496   */\n      dup7\n        /* \"#utility.yul\":13483:13505   */\n      add\n        /* \"#utility.yul\":13410:13515   */\n      tag_252\n      jump\t// in\n    tag_417:\n        /* \"#utility.yul\":13400:13515   */\n      swap3\n      pop\n        /* \"#utility.yul\":13196:13525   */\n      pop\n        /* \"#utility.yul\":13592:13594   */\n      0x20\n        /* \"#utility.yul\":13581:13590   */\n      dup4\n        /* \"#utility.yul\":13577:13595   */\n      add\n        /* \"#utility.yul\":13564:13596   */\n      calldataload\n        /* \"#utility.yul\":13623:13641   */\n      0xffffffffffffffff\n        /* \"#utility.yul\":13615:13621   */\n      dup2\n        /* \"#utility.yul\":13612:13642   */\n      gt\n        /* \"#utility.yul\":13609:13726   */\n      iszero\n      tag_418\n      jumpi\n        /* \"#utility.yul\":13645:13724   */\n      tag_419\n      tag_233\n      jump\t// in\n    tag_419:\n        /* \"#utility.yul\":13609:13726   */\n    tag_418:\n        /* \"#utility.yul\":13750:13854   */\n      tag_420\n        /* \"#utility.yul\":13846:13853   */\n      dup6\n        /* \"#utility.yul\":13837:13843   */\n      dup3\n        /* \"#utility.yul\":13826:13835   */\n      dup7\n        /* \"#utility.yul\":13822:13844   */\n      add\n        /* \"#utility.yul\":13750:13854   */\n      tag_256\n      jump\t// in\n    tag_420:\n        /* \"#utility.yul\":13740:13854   */\n      swap2\n      pop\n        /* \"#utility.yul\":13535:13864   */\n      pop\n        /* \"#utility.yul\":12871:13871   */\n      swap3\n      pop\n      swap3\n      swap1\n      pop\n      jump\t// out\n        /* \"#utility.yul\":13877:14017   */\n    tag_257:\n        /* \"#utility.yul\":13970:13976   */\n      0x00\n        /* \"#utility.yul\":14004:14009   */\n      dup2\n        /* \"#utility.yul\":13998:14010   */\n      mload\n        /* \"#utility.yul\":13988:14010   */\n      swap1\n      pop\n        /* \"#utility.yul\":13877:14017   */\n      swap2\n      swap1\n      pop\n      jump\t// out\n        /* \"#utility.yul\":14023:14233   */\n    tag_258:\n        /* \"#utility.yul\":14148:14159   */\n      0x00\n        /* \"#utility.yul\":14182:14188   */\n      dup3\n        /* \"#utility.yul\":14177:14180   */\n      dup3\n        /* \"#utility.yul\":14170:14189   */\n      mstore\n        /* \"#utility.yul\":14222:14226   */\n      0x20\n        /* \"#utility.yul\":14217:14220   */\n      dup3\n        /* \"#utility.yul\":14213:14227   */\n      add\n        /* \"#utility.yul\":14198:14227   */\n      swap1\n      pop\n        /* \"#utility.yul\":14023:14233   */\n      swap3\n      swap2\n      pop\n      pop\n      jump\t// out\n        /* \"#utility.yul\":14239:14397   */\n    tag_259:\n        /* \"#utility.yul\":14332:14336   */\n      0x00\n        /* \"#utility.yul\":14355:14358   */\n      dup2\n        /* \"#utility.yul\":14347:14358   */\n      swap1\n      pop\n        /* \"#utility.yul\":14385:14389   */\n      0x20\n        /* \"#utility.yul\":14380:14383   */\n      dup3\n        /* \"#utility.yul\":14376:14390   */\n      add\n        /* \"#utility.yul\":14368:14390   */\n      swap1\n      pop\n        /* \"#utility.yul\":14239:14397   */\n      swap2\n      swap1\n      pop\n      jump\t// out\n        /* \"#utility.yul\":14471:15144   */\n    tag_260:\n        /* \"#utility.yul\":14610:14614   */\n      0x60\n        /* \"#utility.yul\":14605:14608   */\n      dup3\n        /* \"#utility.yul\":14601:14615   */\n      add\n        /* \"#utility.yul\":14698:14702   */\n      0x00\n        /* \"#utility.yul\":14691:14696   */\n      dup3\n        /* \"#utility.yul\":14687:14703   */\n      add\n        /* \"#utility.yul\":14681:14704   */\n      mload\n        /* \"#utility.yul\":14717:14780   */\n      tag_425\n        /* \"#utility.yul\":14774:14778   */\n      0x00\n        /* \"#utility.yul\":14769:14772   */\n      dup6\n        /* \"#utility.yul\":14765:14779   */\n      add\n        /* \"#utility.yul\":14751:14763   */\n      dup3\n        /* \"#utility.yul\":14717:14780   */\n      tag_222\n      jump\t// in\n    tag_425:\n        /* \"#utility.yul\":14625:14790   */\n      pop\n        /* \"#utility.yul\":14874:14878   */\n      0x20\n        /* \"#utility.yul\":14867:14872   */\n      dup3\n        /* \"#utility.yul\":14863:14879   */\n      add\n        /* \"#utility.yul\":14857:14880   */\n      mload\n        /* \"#utility.yul\":14893:14954   */\n      tag_426\n        /* \"#utility.yul\":14948:14952   */\n      0x20\n        /* \"#utility.yul\":14943:14946   */\n      dup6\n        /* \"#utility.yul\":14939:14953   */\n      add\n        /* \"#utility.yul\":14925:14937   */\n      dup3\n        /* \"#utility.yul\":14893:14954   */\n      tag_224\n      jump\t// in\n    tag_426:\n        /* \"#utility.yul\":14800:14964   */\n      pop\n        /* \"#utility.yul\":15047:15051   */\n      0x40\n        /* \"#utility.yul\":15040:15045   */\n      dup3\n        /* \"#utility.yul\":15036:15052   */\n      add\n        /* \"#utility.yul\":15030:15053   */\n      mload\n        /* \"#utility.yul\":15066:15127   */\n      tag_427\n        /* \"#utility.yul\":15121:15125   */\n      0x40\n        /* \"#utility.yul\":15116:15119   */\n      dup6\n        /* \"#utility.yul\":15112:15126   */\n      add\n        /* \"#utility.yul\":15098:15110   */\n      dup3\n        /* \"#utility.yul\":15066:15127   */\n      tag_226\n      jump\t// in\n    tag_427:\n        /* \"#utility.yul\":14974:15137   */\n      pop\n        /* \"#utility.yul\":14579:15144   */\n      pop\n        /* \"#utility.yul\":14471:15144   */\n      pop\n      pop\n      jump\t// out\n        /* \"#utility.yul\":15150:15433   */\n    tag_261:\n        /* \"#utility.yul\":15271:15281   */\n      0x00\n        /* \"#utility.yul\":15292:15390   */\n      tag_429\n        /* \"#utility.yul\":15386:15389   */\n      dup4\n        /* \"#utility.yul\":15378:15384   */\n      dup4\n        /* \"#utility.yul\":15292:15390   */\n      tag_260\n      jump\t// in\n    tag_429:\n        /* \"#utility.yul\":15422:15426   */\n      0x60\n        /* \"#utility.yul\":15417:15420   */\n      dup4\n        /* \"#utility.yul\":15413:15427   */\n      add\n        /* \"#utility.yul\":15399:15427   */\n      swap1\n      pop\n        /* \"#utility.yul\":15150:15433   */\n      swap3\n      swap2\n      pop\n      pop\n      jump\t// out\n        /* \"#utility.yul\":15439:15578   */\n    tag_262:\n        /* \"#utility.yul\":15535:15539   */\n      0x00\n        /* \"#utility.yul\":15567:15571   */\n      0x20\n        /* \"#utility.yul\":15562:15565   */\n      dup3\n        /* \"#utility.yul\":15558:15572   */\n      add\n        /* \"#utility.yul\":15550:15572   */\n      swap1\n      pop\n        /* \"#utility.yul\":15439:15578   */\n      swap2\n      swap1\n      pop\n      jump\t// out\n        /* \"#utility.yul\":15656:16596   */\n    tag_263:\n        /* \"#utility.yul\":15827:15830   */\n      0x00\n        /* \"#utility.yul\":15856:15936   */\n      tag_432\n        /* \"#utility.yul\":15930:15935   */\n      dup3\n        /* \"#utility.yul\":15856:15936   */\n      tag_257\n      jump\t// in\n    tag_432:\n        /* \"#utility.yul\":15952:16064   */\n      tag_433\n        /* \"#utility.yul\":16057:16063   */\n      dup2\n        /* \"#utility.yul\":16052:16055   */\n      dup6\n        /* \"#utility.yul\":15952:16064   */\n      tag_258\n      jump\t// in\n    tag_433:\n        /* \"#utility.yul\":15945:16064   */\n      swap4\n      pop\n        /* \"#utility.yul\":16088:16170   */\n      tag_434\n        /* \"#utility.yul\":16164:16169   */\n      dup4\n        /* \"#utility.yul\":16088:16170   */\n      tag_259\n      jump\t// in\n    tag_434:\n        /* \"#utility.yul\":16193:16200   */\n      dup1\n        /* \"#utility.yul\":16224:16225   */\n      0x00\n        /* \"#utility.yul\":16209:16571   */\n    tag_435:\n        /* \"#utility.yul\":16234:16240   */\n      dup4\n        /* \"#utility.yul\":16231:16232   */\n      dup2\n        /* \"#utility.yul\":16228:16241   */\n      lt\n        /* \"#utility.yul\":16209:16571   */\n      iszero\n      tag_437\n      jumpi\n        /* \"#utility.yul\":16310:16316   */\n      dup2\n        /* \"#utility.yul\":16304:16317   */\n      mload\n        /* \"#utility.yul\":16337:16452   */\n      tag_438\n        /* \"#utility.yul\":16448:16451   */\n      dup9\n        /* \"#utility.yul\":16433:16446   */\n      dup3\n        /* \"#utility.yul\":16337:16452   */\n      tag_261\n      jump\t// in\n    tag_438:\n        /* \"#utility.yul\":16330:16452   */\n      swap8\n      pop\n        /* \"#utility.yul\":16475:16561   */\n      tag_439\n        /* \"#utility.yul\":16554:16560   */\n      dup4\n        /* \"#utility.yul\":16475:16561   */\n      tag_262\n      jump\t// in\n    tag_439:\n        /* \"#utility.yul\":16465:16561   */\n      swap3\n      pop\n        /* \"#utility.yul\":16269:16571   */\n      pop\n        /* \"#utility.yul\":16256:16257   */\n      0x01\n        /* \"#utility.yul\":16253:16254   */\n      dup2\n        /* \"#utility.yul\":16249:16258   */\n      add\n        /* \"#utility.yul\":16244:16258   */\n      swap1\n      pop\n        /* \"#utility.yul\":16209:16571   */\n      jump(tag_435)\n    tag_437:\n        /* \"#utility.yul\":16213:16227   */\n      pop\n        /* \"#utility.yul\":16587:16590   */\n      dup6\n        /* \"#utility.yul\":16580:16590   */\n      swap4\n      pop\n        /* \"#utility.yul\":15832:16596   */\n      pop\n      pop\n      pop\n        /* \"#utility.yul\":15656:16596   */\n      swap3\n      swap2\n      pop\n      pop\n      jump\t// out\n        /* \"#utility.yul\":16602:17079   */\n    tag_26:\n        /* \"#utility.yul\":16797:16801   */\n      0x00\n        /* \"#utility.yul\":16835:16837   */\n      0x20\n        /* \"#utility.yul\":16824:16833   */\n      dup3\n        /* \"#utility.yul\":16820:16838   */\n      add\n        /* \"#utility.yul\":16812:16838   */\n      swap1\n      pop\n        /* \"#utility.yul\":16884:16893   */\n      dup2\n        /* \"#utility.yul\":16878:16882   */\n      dup2\n        /* \"#utility.yul\":16874:16894   */\n      sub\n        /* \"#utility.yul\":16870:16871   */\n      0x00\n        /* \"#utility.yul\":16859:16868   */\n      dup4\n        /* \"#utility.yul\":16855:16872   */\n      add\n        /* \"#utility.yul\":16848:16895   */\n      mstore\n        /* \"#utility.yul\":16912:17072   */\n      tag_441\n        /* \"#utility.yul\":17067:17071   */\n      dup2\n        /* \"#utility.yul\":17058:17064   */\n      dup5\n        /* \"#utility.yul\":16912:17072   */\n      tag_263\n      jump\t// in\n    tag_441:\n        /* \"#utility.yul\":16904:17072   */\n      swap1\n      pop\n        /* \"#utility.yul\":16602:17079   */\n      swap3\n      swap2\n      pop\n      pop\n      jump\t// out\n        /* \"#utility.yul\":17085:17265   */\n    tag_39:\n        /* \"#utility.yul\":17133:17210   */\n      0x4e487b7100000000000000000000000000000000000000000000000000000000\n        /* \"#utility.yul\":17130:17131   */\n      0x00\n        /* \"#utility.yul\":17123:17211   */\n      mstore\n        /* \"#utility.yul\":17230:17234   */\n      0x32\n        /* \"#utility.yul\":17227:17228   */\n      0x04\n        /* \"#utility.yul\":17220:17235   */\n      mstore\n        /* \"#utility.yul\":17254:17258   */\n      0x24\n        /* \"#utility.yul\":17251:17252   */\n      0x00\n        /* \"#utility.yul\":17244:17259   */\n      revert\n        /* \"#utility.yul\":17271:17348   */\n    tag_264:\n        /* \"#utility.yul\":17308:17315   */\n      0x00\n        /* \"#utility.yul\":17337:17342   */\n      dup2\n        /* \"#utility.yul\":17326:17342   */\n      swap1\n      pop\n        /* \"#utility.yul\":17271:17348   */\n      swap2\n      swap1\n      pop\n      jump\t// out\n        /* \"#utility.yul\":17354:17472   */\n    tag_265:\n        /* \"#utility.yul\":17441:17465   */\n      tag_445\n        /* \"#utility.yul\":17459:17464   */\n      dup2\n        /* \"#utility.yul\":17441:17465   */\n      tag_264\n      jump\t// in\n    tag_445:\n        /* \"#utility.yul\":17436:17439   */\n      dup3\n        /* \"#utility.yul\":17429:17466   */\n      mstore\n        /* \"#utility.yul\":17354:17472   */\n      pop\n      pop\n      jump\t// out\n        /* \"#utility.yul\":17478:17700   */\n    tag_47:\n        /* \"#utility.yul\":17571:17575   */\n      0x00\n        /* \"#utility.yul\":17609:17611   */\n      0x20\n        /* \"#utility.yul\":17598:17607   */\n      dup3\n        /* \"#utility.yul\":17594:17612   */\n      add\n        /* \"#utility.yul\":17586:17612   */\n      swap1\n      pop\n        /* \"#utility.yul\":17622:17693   */\n      tag_447\n        /* \"#utility.yul\":17690:17691   */\n      0x00\n        /* \"#utility.yul\":17679:17688   */\n      dup4\n        /* \"#utility.yul\":17675:17692   */\n      add\n        /* \"#utility.yul\":17666:17672   */\n      dup5\n        /* \"#utility.yul\":17622:17693   */\n      tag_265\n      jump\t// in\n    tag_447:\n        /* \"#utility.yul\":17478:17700   */\n      swap3\n      swap2\n      pop\n      pop\n      jump\t// out\n        /* \"#utility.yul\":17706:17824   */\n    tag_266:\n        /* \"#utility.yul\":17793:17817   */\n      tag_449\n        /* \"#utility.yul\":17811:17816   */\n      dup2\n        /* \"#utility.yul\":17793:17817   */\n      tag_221\n      jump\t// in\n    tag_449:\n        /* \"#utility.yul\":17788:17791   */\n      dup3\n        /* \"#utility.yul\":17781:17818   */\n      mstore\n        /* \"#utility.yul\":17706:17824   */\n      pop\n      pop\n      jump\t// out\n        /* \"#utility.yul\":17830:17890   */\n    tag_267:\n        /* \"#utility.yul\":17858:17861   */\n      0x00\n        /* \"#utility.yul\":17879:17884   */\n      dup2\n        /* \"#utility.yul\":17872:17884   */\n      swap1\n      pop\n        /* \"#utility.yul\":17830:17890   */\n      swap2\n      swap1\n      pop\n      jump\t// out\n        /* \"#utility.yul\":17896:18036   */\n    tag_268:\n        /* \"#utility.yul\":17945:17954   */\n      0x00\n        /* \"#utility.yul\":17978:18030   */\n      tag_452\n        /* \"#utility.yul\":17996:18029   */\n      tag_453\n        /* \"#utility.yul\":18005:18028   */\n      tag_454\n        /* \"#utility.yul\":18022:18027   */\n      dup5\n        /* \"#utility.yul\":18005:18028   */\n      tag_225\n      jump\t// in\n    tag_454:\n        /* \"#utility.yul\":17996:18029   */\n      tag_267\n      jump\t// in\n    tag_453:\n        /* \"#utility.yul\":17978:18030   */\n      tag_264\n      jump\t// in\n    tag_452:\n        /* \"#utility.yul\":17965:18030   */\n      swap1\n      pop\n        /* \"#utility.yul\":17896:18036   */\n      swap2\n      swap1\n      pop\n      jump\t// out\n        /* \"#utility.yul\":18042:18171   */\n    tag_269:\n        /* \"#utility.yul\":18128:18164   */\n      tag_456\n        /* \"#utility.yul\":18158:18163   */\n      dup2\n        /* \"#utility.yul\":18128:18164   */\n      tag_268\n      jump\t// in\n    tag_456:\n        /* \"#utility.yul\":18123:18126   */\n      dup3\n        /* \"#utility.yul\":18116:18165   */\n      mstore\n        /* \"#utility.yul\":18042:18171   */\n      pop\n      pop\n      jump\t// out\n        /* \"#utility.yul\":18177:18617   */\n    tag_54:\n        /* \"#utility.yul\":18325:18329   */\n      0x00\n        /* \"#utility.yul\":18363:18365   */\n      0x60\n        /* \"#utility.yul\":18352:18361   */\n      dup3\n        /* \"#utility.yul\":18348:18366   */\n      add\n        /* \"#utility.yul\":18340:18366   */\n      swap1\n      pop\n        /* \"#utility.yul\":18376:18447   */\n      tag_458\n        /* \"#utility.yul\":18444:18445   */\n      0x00\n        /* \"#utility.yul\":18433:18442   */\n      dup4\n        /* \"#utility.yul\":18429:18446   */\n      add\n        /* \"#utility.yul\":18420:18426   */\n      dup7\n        /* \"#utility.yul\":18376:18447   */\n      tag_266\n      jump\t// in\n    tag_458:\n        /* \"#utility.yul\":18457:18529   */\n      tag_459\n        /* \"#utility.yul\":18525:18527   */\n      0x20\n        /* \"#utility.yul\":18514:18523   */\n      dup4\n        /* \"#utility.yul\":18510:18528   */\n      add\n        /* \"#utility.yul\":18501:18507   */\n      dup6\n        /* \"#utility.yul\":18457:18529   */\n      tag_266\n      jump\t// in\n    tag_459:\n        /* \"#utility.yul\":18539:18610   */\n      tag_460\n        /* \"#utility.yul\":18606:18608   */\n      0x40\n        /* \"#utility.yul\":18595:18604   */\n      dup4\n        /* \"#utility.yul\":18591:18609   */\n      add\n        /* \"#utility.yul\":18582:18588   */\n      dup5\n        /* \"#utility.yul\":18539:18610   */\n      tag_269\n      jump\t// in\n    tag_460:\n        /* \"#utility.yul\":18177:18617   */\n      swap5\n      swap4\n      pop\n      pop\n      pop\n      pop\n      jump\t// out\n        /* \"#utility.yul\":18623:18763   */\n    tag_270:\n        /* \"#utility.yul\":18672:18681   */\n      0x00\n        /* \"#utility.yul\":18705:18757   */\n      tag_462\n        /* \"#utility.yul\":18723:18756   */\n      tag_463\n        /* \"#utility.yul\":18732:18755   */\n      tag_464\n        /* \"#utility.yul\":18749:18754   */\n      dup5\n        /* \"#utility.yul\":18732:18755   */\n      tag_223\n      jump\t// in\n    tag_464:\n        /* \"#utility.yul\":18723:18756   */\n      tag_267\n      jump\t// in\n    tag_463:\n        /* \"#utility.yul\":18705:18757   */\n      tag_264\n      jump\t// in\n    tag_462:\n        /* \"#utility.yul\":18692:18757   */\n      swap1\n      pop\n        /* \"#utility.yul\":18623:18763   */\n      swap2\n      swap1\n      pop\n      jump\t// out\n        /* \"#utility.yul\":18769:18898   */\n    tag_271:\n        /* \"#utility.yul\":18855:18891   */\n      tag_466\n        /* \"#utility.yul\":18885:18890   */\n      dup2\n        /* \"#utility.yul\":18855:18891   */\n      tag_270\n      jump\t// in\n    tag_466:\n        /* \"#utility.yul\":18850:18853   */\n      dup3\n        /* \"#utility.yul\":18843:18892   */\n      mstore\n        /* \"#utility.yul\":18769:18898   */\n      pop\n      pop\n      jump\t// out\n        /* \"#utility.yul\":18904:19234   */\n    tag_59:\n        /* \"#utility.yul\":19024:19028   */\n      0x00\n        /* \"#utility.yul\":19062:19064   */\n      0x40\n        /* \"#utility.yul\":19051:19060   */\n      dup3\n        /* \"#utility.yul\":19047:19065   */\n      add\n        /* \"#utility.yul\":19039:19065   */\n      swap1\n      pop\n        /* \"#utility.yul\":19075:19146   */\n      tag_468\n        /* \"#utility.yul\":19143:19144   */\n      0x00\n        /* \"#utility.yul\":19132:19141   */\n      dup4\n        /* \"#utility.yul\":19128:19145   */\n      add\n        /* \"#utility.yul\":19119:19125   */\n      dup6\n        /* \"#utility.yul\":19075:19146   */\n      tag_266\n      jump\t// in\n    tag_468:\n        /* \"#utility.yul\":19156:19227   */\n      tag_469\n        /* \"#utility.yul\":19223:19225   */\n      0x20\n        /* \"#utility.yul\":19212:19221   */\n      dup4\n        /* \"#utility.yul\":19208:19226   */\n      add\n        /* \"#utility.yul\":19199:19205   */\n      dup5\n        /* \"#utility.yul\":19156:19227   */\n      tag_271\n      jump\t// in\n    tag_469:\n        /* \"#utility.yul\":18904:19234   */\n      swap4\n      swap3\n      pop\n      pop\n      pop\n      jump\t// out\n        /* \"#utility.yul\":19240:19355   */\n    tag_272:\n        /* \"#utility.yul\":19325:19348   */\n      tag_471\n        /* \"#utility.yul\":19342:19347   */\n      dup2\n        /* \"#utility.yul\":19325:19348   */\n      tag_223\n      jump\t// in\n    tag_471:\n        /* \"#utility.yul\":19320:19323   */\n      dup3\n        /* \"#utility.yul\":19313:19349   */\n      mstore\n        /* \"#utility.yul\":19240:19355   */\n      pop\n      pop\n      jump\t// out\n        /* \"#utility.yul\":19361:19476   */\n    tag_273:\n        /* \"#utility.yul\":19446:19469   */\n      tag_473\n        /* \"#utility.yul\":19463:19468   */\n      dup2\n        /* \"#utility.yul\":19446:19469   */\n      tag_225\n      jump\t// in\n    tag_473:\n        /* \"#utility.yul\":19441:19444   */\n      dup3\n        /* \"#utility.yul\":19434:19470   */\n      mstore\n        /* \"#utility.yul\":19361:19476   */\n      pop\n      pop\n      jump\t// out\n        /* \"#utility.yul\":19482:19806   */\n    tag_64:\n        /* \"#utility.yul\":19599:19603   */\n      0x00\n        /* \"#utility.yul\":19637:19639   */\n      0x40\n        /* \"#utility.yul\":19626:19635   */\n      dup3\n        /* \"#utility.yul\":19622:19640   */\n      add\n        /* \"#utility.yul\":19614:19640   */\n      swap1\n      pop\n        /* \"#utility.yul\":19650:19719   */\n      tag_475\n        /* \"#utility.yul\":19716:19717   */\n      0x00\n        /* \"#utility.yul\":19705:19714   */\n      dup4\n        /* \"#utility.yul\":19701:19718   */\n      add\n        /* \"#utility.yul\":19692:19698   */\n      dup6\n        /* \"#utility.yul\":19650:19719   */\n      tag_272\n      jump\t// in\n    tag_475:\n        /* \"#utility.yul\":19729:19799   */\n      tag_476\n        /* \"#utility.yul\":19795:19797   */\n      0x20\n        /* \"#utility.yul\":19784:19793   */\n      dup4\n        /* \"#utility.yul\":19780:19798   */\n      add\n        /* \"#utility.yul\":19771:19777   */\n      dup5\n        /* \"#utility.yul\":19729:19799   */\n      tag_273\n      jump\t// in\n    tag_476:\n        /* \"#utility.yul\":19482:19806   */\n      swap4\n      swap3\n      pop\n      pop\n      pop\n      jump\t// out\n        /* \"#utility.yul\":19812:19992   */\n    tag_274:\n        /* \"#utility.yul\":19860:19937   */\n      0x4e487b7100000000000000000000000000000000000000000000000000000000\n        /* \"#utility.yul\":19857:19858   */\n      0x00\n        /* \"#utility.yul\":19850:19938   */\n      mstore\n        /* \"#utility.yul\":19957:19961   */\n      0x11\n        /* \"#utility.yul\":19954:19955   */\n      0x04\n        /* \"#utility.yul\":19947:19962   */\n      mstore\n        /* \"#utility.yul\":19981:19985   */\n      0x24\n        /* \"#utility.yul\":19978:19979   */\n      0x00\n        /* \"#utility.yul\":19971:19986   */\n      revert\n        /* \"#utility.yul\":19998:20189   */\n    tag_83:\n        /* \"#utility.yul\":20038:20041   */\n      0x00\n        /* \"#utility.yul\":20057:20077   */\n      tag_479\n        /* \"#utility.yul\":20075:20076   */\n      dup3\n        /* \"#utility.yul\":20057:20077   */\n      tag_264\n      jump\t// in\n    tag_479:\n        /* \"#utility.yul\":20052:20077   */\n      swap2\n      pop\n        /* \"#utility.yul\":20091:20111   */\n      tag_480\n        /* \"#utility.yul\":20109:20110   */\n      dup4\n        /* \"#utility.yul\":20091:20111   */\n      tag_264\n      jump\t// in\n    tag_480:\n        /* \"#utility.yul\":20086:20111   */\n      swap3\n      pop\n        /* \"#utility.yul\":20134:20135   */\n      dup3\n        /* \"#utility.yul\":20131:20132   */\n      dup3\n        /* \"#utility.yul\":20127:20136   */\n      add\n        /* \"#utility.yul\":20120:20136   */\n      swap1\n      pop\n        /* \"#utility.yul\":20155:20158   */\n      dup1\n        /* \"#utility.yul\":20152:20153   */\n      dup3\n        /* \"#utility.yul\":20149:20159   */\n      gt\n        /* \"#utility.yul\":20146:20182   */\n      iszero\n      tag_481\n      jumpi\n        /* \"#utility.yul\":20162:20180   */\n      tag_482\n      tag_274\n      jump\t// in\n    tag_482:\n        /* \"#utility.yul\":20146:20182   */\n    tag_481:\n        /* \"#utility.yul\":19998:20189   */\n      swap3\n      swap2\n      pop\n      pop\n      jump\t// out\n        /* \"#utility.yul\":20195:20635   */\n    tag_85:\n        /* \"#utility.yul\":20343:20347   */\n      0x00\n        /* \"#utility.yul\":20381:20383   */\n      0x60\n        /* \"#utility.yul\":20370:20379   */\n      dup3\n        /* \"#utility.yul\":20366:20384   */\n      add\n        /* \"#utility.yul\":20358:20384   */\n      swap1\n      pop\n        /* \"#utility.yul\":20394:20465   */\n      tag_484\n        /* \"#utility.yul\":20462:20463   */\n      0x00\n        /* \"#utility.yul\":20451:20460   */\n      dup4\n        /* \"#utility.yul\":20447:20464   */\n      add\n        /* \"#utility.yul\":20438:20444   */\n      dup7\n        /* \"#utility.yul\":20394:20465   */\n      tag_266\n      jump\t// in\n    tag_484:\n        /* \"#utility.yul\":20475:20547   */\n      tag_485\n        /* \"#utility.yul\":20543:20545   */\n      0x20\n        /* \"#utility.yul\":20532:20541   */\n      dup4\n        /* \"#utility.yul\":20528:20546   */\n      add\n        /* \"#utility.yul\":20519:20525   */\n      dup6\n        /* \"#utility.yul\":20475:20547   */\n      tag_266\n      jump\t// in\n    tag_485:\n        /* \"#utility.yul\":20557:20628   */\n      tag_486\n        /* \"#utility.yul\":20624:20626   */\n      0x40\n        /* \"#utility.yul\":20613:20622   */\n      dup4\n        /* \"#utility.yul\":20609:20627   */\n      add\n        /* \"#utility.yul\":20600:20606   */\n      dup5\n        /* \"#utility.yul\":20557:20628   */\n      tag_271\n      jump\t// in\n    tag_486:\n        /* \"#utility.yul\":20195:20635   */\n      swap5\n      swap4\n      pop\n      pop\n      pop\n      pop\n      jump\t// out\n        /* \"#utility.yul\":20641:20973   */\n    tag_91:\n        /* \"#utility.yul\":20762:20766   */\n      0x00\n        /* \"#utility.yul\":20800:20802   */\n      0x40\n        /* \"#utility.yul\":20789:20798   */\n      dup3\n        /* \"#utility.yul\":20785:20803   */\n      add\n        /* \"#utility.yul\":20777:20803   */\n      swap1\n      pop\n        /* \"#utility.yul\":20813:20884   */\n      tag_488\n        /* \"#utility.yul\":20881:20882   */\n      0x00\n        /* \"#utility.yul\":20870:20879   */\n      dup4\n        /* \"#utility.yul\":20866:20883   */\n      add\n        /* \"#utility.yul\":20857:20863   */\n      dup6\n        /* \"#utility.yul\":20813:20884   */\n      tag_266\n      jump\t// in\n    tag_488:\n        /* \"#utility.yul\":20894:20966   */\n      tag_489\n        /* \"#utility.yul\":20962:20964   */\n      0x20\n        /* \"#utility.yul\":20951:20960   */\n      dup4\n        /* \"#utility.yul\":20947:20965   */\n      add\n        /* \"#utility.yul\":20938:20944   */\n      dup5\n        /* \"#utility.yul\":20894:20966   */\n      tag_265\n      jump\t// in\n    tag_489:\n        /* \"#utility.yul\":20641:20973   */\n      swap4\n      swap3\n      pop\n      pop\n      pop\n      jump\t// out\n        /* \"#utility.yul\":20979:21069   */\n    tag_275:\n        /* \"#utility.yul\":21013:21020   */\n      0x00\n        /* \"#utility.yul\":21056:21061   */\n      dup2\n        /* \"#utility.yul\":21049:21062   */\n      iszero\n        /* \"#utility.yul\":21042:21063   */\n      iszero\n        /* \"#utility.yul\":21031:21063   */\n      swap1\n      pop\n        /* \"#utility.yul\":20979:21069   */\n      swap2\n      swap1\n      pop\n      jump\t// out\n        /* \"#utility.yul\":21075:21191   */\n    tag_276:\n        /* \"#utility.yul\":21145:21166   */\n      tag_492\n        /* \"#utility.yul\":21160:21165   */\n      dup2\n        /* \"#utility.yul\":21145:21166   */\n      tag_275\n      jump\t// in\n    tag_492:\n        /* \"#utility.yul\":21138:21143   */\n      dup2\n        /* \"#utility.yul\":21135:21167   */\n      eq\n        /* \"#utility.yul\":21125:21185   */\n      tag_493\n      jumpi\n        /* \"#utility.yul\":21181:21182   */\n      0x00\n        /* \"#utility.yul\":21178:21179   */\n      dup1\n        /* \"#utility.yul\":21171:21183   */\n      revert\n        /* \"#utility.yul\":21125:21185   */\n    tag_493:\n        /* \"#utility.yul\":21075:21191   */\n      pop\n      jump\t// out\n        /* \"#utility.yul\":21197:21334   */\n    tag_277:\n        /* \"#utility.yul\":21251:21256   */\n      0x00\n        /* \"#utility.yul\":21282:21288   */\n      dup2\n        /* \"#utility.yul\":21276:21289   */\n      mload\n        /* \"#utility.yul\":21267:21289   */\n      swap1\n      pop\n        /* \"#utility.yul\":21298:21328   */\n      tag_495\n        /* \"#utility.yul\":21322:21327   */\n      dup2\n        /* \"#utility.yul\":21298:21328   */\n      tag_276\n      jump\t// in\n    tag_495:\n        /* \"#utility.yul\":21197:21334   */\n      swap3\n      swap2\n      pop\n      pop\n      jump\t// out\n        /* \"#utility.yul\":21340:21685   */\n    tag_95:\n        /* \"#utility.yul\":21407:21413   */\n      0x00\n        /* \"#utility.yul\":21456:21458   */\n      0x20\n        /* \"#utility.yul\":21444:21453   */\n      dup3\n        /* \"#utility.yul\":21435:21442   */\n      dup5\n        /* \"#utility.yul\":21431:21454   */\n      sub\n        /* \"#utility.yul\":21427:21459   */\n      slt\n        /* \"#utility.yul\":21424:21543   */\n      iszero\n      tag_497\n      jumpi\n        /* \"#utility.yul\":21462:21541   */\n      tag_498\n      tag_232\n      jump\t// in\n    tag_498:\n        /* \"#utility.yul\":21424:21543   */\n    tag_497:\n        /* \"#utility.yul\":21582:21583   */\n      0x00\n        /* \"#utility.yul\":21607:21668   */\n      tag_499\n        /* \"#utility.yul\":21660:21667   */\n      dup5\n        /* \"#utility.yul\":21651:21657   */\n      dup3\n        /* \"#utility.yul\":21640:21649   */\n      dup6\n        /* \"#utility.yul\":21636:21658   */\n      add\n        /* \"#utility.yul\":21607:21668   */\n      tag_277\n      jump\t// in\n    tag_499:\n        /* \"#utility.yul\":21597:21668   */\n      swap2\n      pop\n        /* \"#utility.yul\":21553:21678   */\n      pop\n        /* \"#utility.yul\":21340:21685   */\n      swap3\n      swap2\n      pop\n      pop\n      jump\t// out\n        /* \"#utility.yul\":21691:22133   */\n    tag_175:\n        /* \"#utility.yul\":21840:21844   */\n      0x00\n        /* \"#utility.yul\":21878:21880   */\n      0x60\n        /* \"#utility.yul\":21867:21876   */\n      dup3\n        /* \"#utility.yul\":21863:21881   */\n      add\n        /* \"#utility.yul\":21855:21881   */\n      swap1\n      pop\n        /* \"#utility.yul\":21891:21962   */\n      tag_501\n        /* \"#utility.yul\":21959:21960   */\n      0x00\n        /* \"#utility.yul\":21948:21957   */\n      dup4\n        /* \"#utility.yul\":21944:21961   */\n      add\n        /* \"#utility.yul\":21935:21941   */\n      dup7\n        /* \"#utility.yul\":21891:21962   */\n      tag_266\n      jump\t// in\n    tag_501:\n        /* \"#utility.yul\":21972:22044   */\n      tag_502\n        /* \"#utility.yul\":22040:22042   */\n      0x20\n        /* \"#utility.yul\":22029:22038   */\n      dup4\n        /* \"#utility.yul\":22025:22043   */\n      add\n        /* \"#utility.yul\":22016:22022   */\n      dup6\n        /* \"#utility.yul\":21972:22044   */\n      tag_266\n      jump\t// in\n    tag_502:\n        /* \"#utility.yul\":22054:22126   */\n      tag_503\n        /* \"#utility.yul\":22122:22124   */\n      0x40\n        /* \"#utility.yul\":22111:22120   */\n      dup4\n        /* \"#utility.yul\":22107:22125   */\n      add\n        /* \"#utility.yul\":22098:22104   */\n      dup5\n        /* \"#utility.yul\":22054:22126   */\n      tag_265\n      jump\t// in\n    tag_503:\n        /* \"#utility.yul\":21691:22133   */\n      swap5\n      swap4\n      pop\n      pop\n      pop\n      pop\n      jump\t// out\n        /* \"#utility.yul\":22139:22253   */\n    tag_278:\n        /* \"#utility.yul\":22206:22212   */\n      0x00\n        /* \"#utility.yul\":22240:22245   */\n      dup2\n        /* \"#utility.yul\":22234:22246   */\n      mload\n        /* \"#utility.yul\":22224:22246   */\n      swap1\n      pop\n        /* \"#utility.yul\":22139:22253   */\n      swap2\n      swap1\n      pop\n      jump\t// out\n        /* \"#utility.yul\":22259:22443   */\n    tag_279:\n        /* \"#utility.yul\":22358:22369   */\n      0x00\n        /* \"#utility.yul\":22392:22398   */\n      dup3\n        /* \"#utility.yul\":22387:22390   */\n      dup3\n        /* \"#utility.yul\":22380:22399   */\n      mstore\n        /* \"#utility.yul\":22432:22436   */\n      0x20\n        /* \"#utility.yul\":22427:22430   */\n      dup3\n        /* \"#utility.yul\":22423:22437   */\n      add\n        /* \"#utility.yul\":22408:22437   */\n      swap1\n      pop\n        /* \"#utility.yul\":22259:22443   */\n      swap3\n      swap2\n      pop\n      pop\n      jump\t// out\n        /* \"#utility.yul\":22449:22581   */\n    tag_280:\n        /* \"#utility.yul\":22516:22520   */\n      0x00\n        /* \"#utility.yul\":22539:22542   */\n      dup2\n        /* \"#utility.yul\":22531:22542   */\n      swap1\n      pop\n        /* \"#utility.yul\":22569:22573   */\n      0x20\n        /* \"#utility.yul\":22564:22567   */\n      dup3\n        /* \"#utility.yul\":22560:22574   */\n      add\n        /* \"#utility.yul\":22552:22574   */\n      swap1\n      pop\n        /* \"#utility.yul\":22449:22581   */\n      swap2\n      swap1\n      pop\n      jump\t// out\n        /* \"#utility.yul\":22587:22695   */\n    tag_281:\n        /* \"#utility.yul\":22664:22688   */\n      tag_508\n        /* \"#utility.yul\":22682:22687   */\n      dup2\n        /* \"#utility.yul\":22664:22688   */\n      tag_264\n      jump\t// in\n    tag_508:\n        /* \"#utility.yul\":22659:22662   */\n      dup3\n        /* \"#utility.yul\":22652:22689   */\n      mstore\n        /* \"#utility.yul\":22587:22695   */\n      pop\n      pop\n      jump\t// out\n        /* \"#utility.yul\":22701:22880   */\n    tag_282:\n        /* \"#utility.yul\":22770:22780   */\n      0x00\n        /* \"#utility.yul\":22791:22837   */\n      tag_510\n        /* \"#utility.yul\":22833:22836   */\n      dup4\n        /* \"#utility.yul\":22825:22831   */\n      dup4\n        /* \"#utility.yul\":22791:22837   */\n      tag_281\n      jump\t// in\n    tag_510:\n        /* \"#utility.yul\":22869:22873   */\n      0x20\n        /* \"#utility.yul\":22864:22867   */\n      dup4\n        /* \"#utility.yul\":22860:22874   */\n      add\n        /* \"#utility.yul\":22846:22874   */\n      swap1\n      pop\n        /* \"#utility.yul\":22701:22880   */\n      swap3\n      swap2\n      pop\n      pop\n      jump\t// out\n        /* \"#utility.yul\":22886:22999   */\n    tag_283:\n        /* \"#utility.yul\":22956:22960   */\n      0x00\n        /* \"#utility.yul\":22988:22992   */\n      0x20\n        /* \"#utility.yul\":22983:22986   */\n      dup3\n        /* \"#utility.yul\":22979:22993   */\n      add\n        /* \"#utility.yul\":22971:22993   */\n      swap1\n      pop\n        /* \"#utility.yul\":22886:22999   */\n      swap2\n      swap1\n      pop\n      jump\t// out\n        /* \"#utility.yul\":23035:23767   */\n    tag_284:\n        /* \"#utility.yul\":23154:23157   */\n      0x00\n        /* \"#utility.yul\":23183:23237   */\n      tag_513\n        /* \"#utility.yul\":23231:23236   */\n      dup3\n        /* \"#utility.yul\":23183:23237   */\n      tag_278\n      jump\t// in\n    tag_513:\n        /* \"#utility.yul\":23253:23339   */\n      tag_514\n        /* \"#utility.yul\":23332:23338   */\n      dup2\n        /* \"#utility.yul\":23327:23330   */\n      dup6\n        /* \"#utility.yul\":23253:23339   */\n      tag_279\n      jump\t// in\n    tag_514:\n        /* \"#utility.yul\":23246:23339   */\n      swap4\n      pop\n        /* \"#utility.yul\":23363:23419   */\n      tag_515\n        /* \"#utility.yul\":23413:23418   */\n      dup4\n        /* \"#utility.yul\":23363:23419   */\n      tag_280\n      jump\t// in\n    tag_515:\n        /* \"#utility.yul\":23442:23449   */\n      dup1\n        /* \"#utility.yul\":23473:23474   */\n      0x00\n        /* \"#utility.yul\":23458:23742   */\n    tag_516:\n        /* \"#utility.yul\":23483:23489   */\n      dup4\n        /* \"#utility.yul\":23480:23481   */\n      dup2\n        /* \"#utility.yul\":23477:23490   */\n      lt\n        /* \"#utility.yul\":23458:23742   */\n      iszero\n      tag_518\n      jumpi\n        /* \"#utility.yul\":23559:23565   */\n      dup2\n        /* \"#utility.yul\":23553:23566   */\n      mload\n        /* \"#utility.yul\":23586:23649   */\n      tag_519\n        /* \"#utility.yul\":23645:23648   */\n      dup9\n        /* \"#utility.yul\":23630:23643   */\n      dup3\n        /* \"#utility.yul\":23586:23649   */\n      tag_282\n      jump\t// in\n    tag_519:\n        /* \"#utility.yul\":23579:23649   */\n      swap8\n      pop\n        /* \"#utility.yul\":23672:23732   */\n      tag_520\n        /* \"#utility.yul\":23725:23731   */\n      dup4\n        /* \"#utility.yul\":23672:23732   */\n      tag_283\n      jump\t// in\n    tag_520:\n        /* \"#utility.yul\":23662:23732   */\n      swap3\n      pop\n        /* \"#utility.yul\":23518:23742   */\n      pop\n        /* \"#utility.yul\":23505:23506   */\n      0x01\n        /* \"#utility.yul\":23502:23503   */\n      dup2\n        /* \"#utility.yul\":23498:23507   */\n      add\n        /* \"#utility.yul\":23493:23507   */\n      swap1\n      pop\n        /* \"#utility.yul\":23458:23742   */\n      jump(tag_516)\n    tag_518:\n        /* \"#utility.yul\":23462:23476   */\n      pop\n        /* \"#utility.yul\":23758:23761   */\n      dup6\n        /* \"#utility.yul\":23751:23761   */\n      swap4\n      pop\n        /* \"#utility.yul\":23159:23767   */\n      pop\n      pop\n      pop\n        /* \"#utility.yul\":23035:23767   */\n      swap3\n      swap2\n      pop\n      pop\n      jump\t// out\n        /* \"#utility.yul\":23773:24517   */\n    tag_209:\n        /* \"#utility.yul\":24022:24026   */\n      0x00\n        /* \"#utility.yul\":24060:24062   */\n      0x60\n        /* \"#utility.yul\":24049:24058   */\n      dup3\n        /* \"#utility.yul\":24045:24063   */\n      add\n        /* \"#utility.yul\":24037:24063   */\n      swap1\n      pop\n        /* \"#utility.yul\":24073:24144   */\n      tag_522\n        /* \"#utility.yul\":24141:24142   */\n      0x00\n        /* \"#utility.yul\":24130:24139   */\n      dup4\n        /* \"#utility.yul\":24126:24143   */\n      add\n        /* \"#utility.yul\":24117:24123   */\n      dup7\n        /* \"#utility.yul\":24073:24144   */\n      tag_266\n      jump\t// in\n    tag_522:\n        /* \"#utility.yul\":24191:24200   */\n      dup2\n        /* \"#utility.yul\":24185:24189   */\n      dup2\n        /* \"#utility.yul\":24181:24201   */\n      sub\n        /* \"#utility.yul\":24176:24178   */\n      0x20\n        /* \"#utility.yul\":24165:24174   */\n      dup4\n        /* \"#utility.yul\":24161:24179   */\n      add\n        /* \"#utility.yul\":24154:24202   */\n      mstore\n        /* \"#utility.yul\":24219:24327   */\n      tag_523\n        /* \"#utility.yul\":24322:24326   */\n      dup2\n        /* \"#utility.yul\":24313:24319   */\n      dup6\n        /* \"#utility.yul\":24219:24327   */\n      tag_284\n      jump\t// in\n    tag_523:\n        /* \"#utility.yul\":24211:24327   */\n      swap1\n      pop\n        /* \"#utility.yul\":24374:24383   */\n      dup2\n        /* \"#utility.yul\":24368:24372   */\n      dup2\n        /* \"#utility.yul\":24364:24384   */\n      sub\n        /* \"#utility.yul\":24359:24361   */\n      0x40\n        /* \"#utility.yul\":24348:24357   */\n      dup4\n        /* \"#utility.yul\":24344:24362   */\n      add\n        /* \"#utility.yul\":24337:24385   */\n      mstore\n        /* \"#utility.yul\":24402:24510   */\n      tag_524\n        /* \"#utility.yul\":24505:24509   */\n      dup2\n        /* \"#utility.yul\":24496:24502   */\n      dup5\n        /* \"#utility.yul\":24402:24510   */\n      tag_284\n      jump\t// in\n    tag_524:\n        /* \"#utility.yul\":24394:24510   */\n      swap1\n      pop\n        /* \"#utility.yul\":23773:24517   */\n      swap5\n      swap4\n      pop\n      pop\n      pop\n      pop\n      jump\t// out\n\n    auxdata: 0xa264697066735822122024f4def5c135e0d699e7976693af69cfe7a65ff0fa6f66c65af31b10eb38448664736f6c63430008120033\n}\n",
				"bytecode": {
					"linkReferences": {},
					"object": "60c06040523480156200001157600080fd5b50604051620026f9380380620026f983398181016040528101906200003791906200016a565b8173ffffffffffffffffffffffffffffffffffffffff1660808173ffffffffffffffffffffffffffffffffffffffff16815250508073ffffffffffffffffffffffffffffffffffffffff1660a08173ffffffffffffffffffffffffffffffffffffffff16815250505050620001b1565b600080fd5b600073ffffffffffffffffffffffffffffffffffffffff82169050919050565b6000620000d982620000ac565b9050919050565b6000620000ed82620000cc565b9050919050565b620000ff81620000e0565b81146200010b57600080fd5b50565b6000815190506200011f81620000f4565b92915050565b60006200013282620000cc565b9050919050565b620001448162000125565b81146200015057600080fd5b50565b600081519050620001648162000139565b92915050565b60008060408385031215620001845762000183620000a7565b5b600062000194858286016200010e565b9250506020620001a78582860162000153565b9150509250929050565b60805160a0516124f86200020160003960008181610467015281816109390152818161110d01526114320152600081816104fe0152818161083901528181610cdc01526117bf01526124f86000f3fe608060405234801561001057600080fd5b50600436106100575760003560e01c806314dca6021461005c57806388a66e581461007a5780638d4f8186146100965780639b47bce7146100b2578063e0c5a277146100ce575b600080fd5b6100646100ec565b6040516100719190611ad1565b60405180910390f35b610094600480360381019061008f9190611b6c565b6101f5565b005b6100b060048036038101906100ab9190611b6c565b6109dd565b005b6100cc60048036038101906100c79190611f50565b6111b1565b005b6100d6611854565b6040516100e391906120b9565b60405180910390f35b60606001805480602002602001604051908101604052809291908181526020016000905b828210156101ec578382906000526020600020016040518060600160405290816000820160009054906101000a900473ffffffffffffffffffffffffffffffffffffffff1673ffffffffffffffffffffffffffffffffffffffff1673ffffffffffffffffffffffffffffffffffffffff1681526020016000820160149054906101000a900461ffff1661ffff1661ffff1681526020016000820160169054906101000a900469ffffffffffffffffffff1669ffffffffffffffffffff1669ffffffffffffffffffff168152505081526020019060010190610110565b50505050905090565b60008484905014801561020b5750600082829050145b15610242576040517f07da169700000000000000000000000000000000000000000000000000000000815260040160405180910390fd5b60005b848490508110156105f55760006001868684818110610267576102666120db565b5b905060200201358154811061027f5761027e6120db565b5b906000526020600020016040518060600160405290816000820160009054906101000a900473ffffffffffffffffffffffffffffffffffffffff1673ffffffffffffffffffffffffffffffffffffffff1673ffffffffffffffffffffffffffffffffffffffff1681526020016000820160149054906101000a900461ffff1661ffff1661ffff1681526020016000820160169054906101000a900469ffffffffffffffffffff1669ffffffffffffffffffff1669ffffffffffffffffffff16815250509050600073ffffffffffffffffffffffffffffffffffffffff16816000015173ffffffffffffffffffffffffffffffffffffffff16036103d25785858381811061038f5761038e6120db565b5b905060200201356040517f2a0b2cb50000000000000000000000000000000000000000000000000000000081526004016103c99190612123565b60405180910390fd5b60018686848181106103e7576103e66120db565b5b90506020020135815481106103ff576103fe6120db565b5b90600052602060002001600080820160006101000a81549073ffffffffffffffffffffffffffffffffffffffff02191690556000820160146101000a81549061ffff02191690556000820160166101000a81549069ffffffffffffffffffff021916905550507f000000000000000000000000000000000000000000000000000000000000000073ffffffffffffffffffffffffffffffffffffffff1663a8c0a10033836000015184604001516040518463ffffffff1660e01b81526004016104ca93929190612188565b600060405180830381600087803b1580156104e457600080fd5b505af11580156104f8573d6000803e3d6000fd5b505050507f000000000000000000000000000000000000000000000000000000000000000073ffffffffffffffffffffffffffffffffffffffff166340c10f193383602001516040518363ffffffff1660e01b815260040161055b9291906121f0565b600060405180830381600087803b15801561057557600080fd5b505af1158015610589573d6000803e3d6000fd5b50505050806000015173ffffffffffffffffffffffffffffffffffffffff167f42575477750d93faa6263d63274a24b7107221fd2d093eadf4a094a6894db052826020015183604001516040516105e1929190612237565b60405180910390a281600101915050610245565b506000805b838390508110156109365760008085858481811061061b5761061a6120db565b5b9050602002013581548110610633576106326120db565b5b906000526020600020016040518060600160405290816000820160009054906101000a900473ffffffffffffffffffffffffffffffffffffffff1673ffffffffffffffffffffffffffffffffffffffff1673ffffffffffffffffffffffffffffffffffffffff1681526020016000820160149054906101000a900461ffff1661ffff1661ffff1681526020016000820160169054906101000a900469ffffffffffffffffffff1669ffffffffffffffffffff1669ffffffffffffffffffff16815250509050600073ffffffffffffffffffffffffffffffffffffffff16816000015173ffffffffffffffffffffffffffffffffffffffff160361078657848483818110610743576107426120db565b5b905060200201356040517fac1b1ef500000000000000000000000000000000000000000000000000000000815260040161077d9190612123565b60405180910390fd5b600085858481811061079b5761079a6120db565b5b90506020020135815481106107b3576107b26120db565b5b90600052602060002001600080820160006101000a81549073ffffffffffffffffffffffffffffffffffffffff02191690556000820160146101000a81549061ffff02191690556000820160166101000a81549069ffffffffffffffffffff02191690555050806040015169ffffffffffffffffffff1683610835919061228f565b92507f000000000000000000000000000000000000000000000000000000000000000073ffffffffffffffffffffffffffffffffffffffff16638372075333836000015184602001516040518463ffffffff1660e01b815260040161089c939291906122c3565b600060405180830381600087803b1580156108b657600080fd5b505af11580156108ca573d6000803e3d6000fd5b50505050806000015173ffffffffffffffffffffffffffffffffffffffff167fce60f425c1b79c667f6b28f3e98e7f44bbda72ae106ec8f06c2ef8a6645be87582602001518360400151604051610922929190612237565b60405180910390a2816001019150506105fa565b507f000000000000000000000000000000000000000000000000000000000000000073ffffffffffffffffffffffffffffffffffffffff1663a9059cbb33836040518363ffffffff1660e01b81526004016109929291906122fa565b6020604051808303816000875af11580156109b1573d6000803e3d6000fd5b505050506040513d601f19601f820116820180604052508101906109d5919061235b565b505050505050565b6000848490501480156109f35750600082829050145b15610a2a576040517f07da169700000000000000000000000000000000000000000000000000000000815260040160405180910390fd5b60005b84849050811015610dd35760006001868684818110610a4f57610a4e6120db565b5b9050602002013581548110610a6757610a666120db565b5b906000526020600020016040518060600160405290816000820160009054906101000a900473ffffffffffffffffffffffffffffffffffffffff1673ffffffffffffffffffffffffffffffffffffffff1673ffffffffffffffffffffffffffffffffffffffff1681526020016000820160149054906101000a900461ffff1661ffff1661ffff1681526020016000820160169054906101000a900469ffffffffffffffffffff1669ffffffffffffffffffff1669ffffffffffffffffffff16815250509050600073ffffffffffffffffffffffffffffffffffffffff16816000015173ffffffffffffffffffffffffffffffffffffffff1603610bba57858583818110610b7757610b766120db565b5b905060200201356040517f2a0b2cb5000000000000000000000000000000000000000000000000000000008152600401610bb19190612123565b60405180910390fd5b3373ffffffffffffffffffffffffffffffffffffffff16816000015173ffffffffffffffffffffffffffffffffffffffff1614610c4757858583818110610c0457610c036120db565b5b905060200201356040517f257abc94000000000000000000000000000000000000000000000000000000008152600401610c3e9190612123565b60405180910390fd5b6001868684818110610c5c57610c5b6120db565b5b9050602002013581548110610c7457610c736120db565b5b90600052602060002001600080820160006101000a81549073ffffffffffffffffffffffffffffffffffffffff02191690556000820160146101000a81549061ffff02191690556000820160166101000a81549069ffffffffffffffffffff021916905550507f000000000000000000000000000000000000000000000000000000000000000073ffffffffffffffffffffffffffffffffffffffff166340c10f193383602001516040518363ffffffff1660e01b8152600401610d399291906121f0565b600060405180830381600087803b158015610d5357600080fd5b505af1158015610d67573d6000803e3d6000fd5b50505050806000015173ffffffffffffffffffffffffffffffffffffffff167fe0d2d550f275a4f9605d9c8bbf2f4dd37b05a67cb1fa5a62aef750f97d082a7c82602001518360400151604051610dbf929190612237565b60405180910390a281600101915050610a2d565b506000805b8383905081101561110a57600080858584818110610df957610df86120db565b5b9050602002013581548110610e1157610e106120db565b5b906000526020600020016040518060600160405290816000820160009054906101000a900473ffffffffffffffffffffffffffffffffffffffff1673ffffffffffffffffffffffffffffffffffffffff1673ffffffffffffffffffffffffffffffffffffffff1681526020016000820160149054906101000a900461ffff1661ffff1661ffff1681526020016000820160169054906101000a900469ffffffffffffffffffff1669ffffffffffffffffffff1669ffffffffffffffffffff16815250509050600073ffffffffffffffffffffffffffffffffffffffff16816000015173ffffffffffffffffffffffffffffffffffffffff1603610f6457848483818110610f2157610f206120db565b5b905060200201356040517fac1b1ef5000000000000000000000000000000000000000000000000000000008152600401610f5b9190612123565b60405180910390fd5b3373ffffffffffffffffffffffffffffffffffffffff16816000015173ffffffffffffffffffffffffffffffffffffffff1614610ff157848483818110610fae57610fad6120db565b5b905060200201356040517fba64fd57000000000000000000000000000000000000000000000000000000008152600401610fe89190612123565b60405180910390fd5b6000858584818110611006576110056120db565b5b905060200201358154811061101e5761101d6120db565b5b90600052602060002001600080820160006101000a81549073ffffffffffffffffffffffffffffffffffffffff02191690556000820160146101000a81549061ffff02191690556000820160166101000a81549069ffffffffffffffffffff02191690555050806040015169ffffffffffffffffffff16836110a0919061228f565b9250806000015173ffffffffffffffffffffffffffffffffffffffff167fd012ffa67ba231feebb0c72dfb6363a78738c94e9f08a2eb205fb727d3cc35ef826020015183604001516040516110f6929190612237565b60405180910390a281600101915050610dd8565b507f000000000000000000000000000000000000000000000000000000000000000073ffffffffffffffffffffffffffffffffffffffff1663a9059cbb33836040518363ffffffff1660e01b81526004016111669291906122fa565b6020604051808303816000875af1158015611185573d6000803e3d6000fd5b505050506040513d601f19601f820116820180604052508101906111a9919061235b565b505050505050565b600082511480156111c3575060008151145b156111fa576040517f07da169700000000000000000000000000000000000000000000000000000000815260040160405180910390fd5b6000805b8251811015611427573383828151811061121b5761121a6120db565b5b60200260200101516000019073ffffffffffffffffffffffffffffffffffffffff16908173ffffffffffffffffffffffffffffffffffffffff168152505082818151811061126c5761126b6120db565b5b60200260200101516040015169ffffffffffffffffffff168261128f919061228f565b915060008382815181106112a6576112a56120db565b5b60200260200101519080600181540180825580915050600190039060005260206000200160009091909190915060008201518160000160006101000a81548173ffffffffffffffffffffffffffffffffffffffff021916908373ffffffffffffffffffffffffffffffffffffffff16021790555060208201518160000160146101000a81548161ffff021916908361ffff16021790555060408201518160000160166101000a81548169ffffffffffffffffffff021916908369ffffffffffffffffffff1602179055505050828181518110611385576113846120db565b5b60200260200101516000015173ffffffffffffffffffffffffffffffffffffffff167f6fb194c0ed9d019bf344980591e10498571b0a8271fc464513aabc5a21448ca18483815181106113db576113da6120db565b5b6020026020010151602001518584815181106113fa576113f96120db565b5b602002602001015160400151604051611414929190612237565b60405180910390a28060010190506111fe565b50600081146114c0577f000000000000000000000000000000000000000000000000000000000000000073ffffffffffffffffffffffffffffffffffffffff1663a8c0a1003330846040518463ffffffff1660e01b815260040161148d93929190612388565b600060405180830381600087803b1580156114a757600080fd5b505af11580156114bb573d6000803e3d6000fd5b505050505b6000835167ffffffffffffffff8111156114dd576114dc611bfe565b5b60405190808252806020026020018201604052801561150b5781602001602082028036833780820191505090505b5090506000845167ffffffffffffffff81111561152b5761152a611bfe565b5b6040519080825280602002602001820160405280156115595781602001602082028036833780820191505090505b50905060005b85518110156117b3573386828151811061157c5761157b6120db565b5b60200260200101516000019073ffffffffffffffffffffffffffffffffffffffff16908173ffffffffffffffffffffffffffffffffffffffff16815250508581815181106115cd576115cc6120db565b5b60200260200101516020015161ffff168382815181106115f0576115ef6120db565b5b6020026020010181815250506001828281518110611611576116106120db565b5b6020026020010181815250506001868281518110611632576116316120db565b5b60200260200101519080600181540180825580915050600190039060005260206000200160009091909190915060008201518160000160006101000a81548173ffffffffffffffffffffffffffffffffffffffff021916908373ffffffffffffffffffffffffffffffffffffffff16021790555060208201518160000160146101000a81548161ffff021916908361ffff16021790555060408201518160000160166101000a81548169ffffffffffffffffffff021916908369ffffffffffffffffffff1602179055505050858181518110611711576117106120db565b5b60200260200101516000015173ffffffffffffffffffffffffffffffffffffffff167f1465588286d363e8152f7fe441d891f2e6d5852f4048e883f144b5768ba9cda2878381518110611767576117666120db565b5b602002602001015160200151888481518110611786576117856120db565b5b6020026020010151604001516040516117a0929190612237565b60405180910390a280600101905061155f565b50600082511461184d577f000000000000000000000000000000000000000000000000000000000000000073ffffffffffffffffffffffffffffffffffffffff16636b20c4543384846040518463ffffffff1660e01b815260040161181a9392919061247d565b600060405180830381600087803b15801561183457600080fd5b505af1158015611848573d6000803e3d6000fd5b505050505b5050505050565b60606000805480602002602001604051908101604052809291908181526020016000905b82821015611954578382906000526020600020016040518060600160405290816000820160009054906101000a900473ffffffffffffffffffffffffffffffffffffffff1673ffffffffffffffffffffffffffffffffffffffff1673ffffffffffffffffffffffffffffffffffffffff1681526020016000820160149054906101000a900461ffff1661ffff1661ffff1681526020016000820160169054906101000a900469ffffffffffffffffffff1669ffffffffffffffffffff1669ffffffffffffffffffff168152505081526020019060010190611878565b50505050905090565b600081519050919050565b600082825260208201905092915050565b6000819050602082019050919050565b600073ffffffffffffffffffffffffffffffffffffffff82169050919050565b60006119b482611989565b9050919050565b6119c4816119a9565b82525050565b600061ffff82169050919050565b6119e1816119ca565b82525050565b600069ffffffffffffffffffff82169050919050565b611a06816119e7565b82525050565b606082016000820151611a2260008501826119bb565b506020820151611a3560208501826119d8565b506040820151611a4860408501826119fd565b50505050565b6000611a5a8383611a0c565b60608301905092915050565b6000602082019050919050565b6000611a7e8261195d565b611a888185611968565b9350611a9383611979565b8060005b83811015611ac4578151611aab8882611a4e565b9750611ab683611a66565b925050600181019050611a97565b5085935050505092915050565b60006020820190508181036000830152611aeb8184611a73565b905092915050565b6000604051905090565b600080fd5b600080fd5b600080fd5b600080fd5b600080fd5b60008083601f840112611b2c57611b2b611b07565b5b8235905067ffffffffffffffff811115611b4957611b48611b0c565b5b602083019150836020820283011115611b6557611b64611b11565b5b9250929050565b60008060008060408587031215611b8657611b85611afd565b5b600085013567ffffffffffffffff811115611ba457611ba3611b02565b5b611bb087828801611b16565b9450945050602085013567ffffffffffffffff811115611bd357611bd2611b02565b5b611bdf87828801611b16565b925092505092959194509250565b6000601f19601f8301169050919050565b7f4e487b7100000000000000000000000000000000000000000000000000000000600052604160045260246000fd5b611c3682611bed565b810181811067ffffffffffffffff82111715611c5557611c54611bfe565b5b80604052505050565b6000611c68611af3565b9050611c748282611c2d565b919050565b600067ffffffffffffffff821115611c9457611c93611bfe565b5b602082029050602081019050919050565b600080fd5b611cb3816119a9565b8114611cbe57600080fd5b50565b600081359050611cd081611caa565b92915050565b611cdf816119ca565b8114611cea57600080fd5b50565b600081359050611cfc81611cd6565b92915050565b611d0b816119e7565b8114611d1657600080fd5b50565b600081359050611d2881611d02565b92915050565b600060608284031215611d4457611d43611ca5565b5b611d4e6060611c5e565b90506000611d5e84828501611cc1565b6000830152506020611d7284828501611ced565b6020830152506040611d8684828501611d19565b60408301525092915050565b6000611da5611da084611c79565b611c5e565b90508083825260208201905060608402830185811115611dc857611dc7611b11565b5b835b81811015611df15780611ddd8882611d2e565b845260208401935050606081019050611dca565b5050509392505050565b600082601f830112611e1057611e0f611b07565b5b8135611e20848260208601611d92565b91505092915050565b600067ffffffffffffffff821115611e4457611e43611bfe565b5b602082029050602081019050919050565b600060608284031215611e6b57611e6a611ca5565b5b611e756060611c5e565b90506000611e8584828501611cc1565b6000830152506020611e9984828501611ced565b6020830152506040611ead84828501611d19565b60408301525092915050565b6000611ecc611ec784611e29565b611c5e565b90508083825260208201905060608402830185811115611eef57611eee611b11565b5b835b81811015611f185780611f048882611e55565b845260208401935050606081019050611ef1565b5050509392505050565b600082601f830112611f3757611f36611b07565b5b8135611f47848260208601611eb9565b91505092915050565b60008060408385031215611f6757611f66611afd565b5b600083013567ffffffffffffffff811115611f8557611f84611b02565b5b611f9185828601611dfb565b925050602083013567ffffffffffffffff811115611fb257611fb1611b02565b5b611fbe85828601611f22565b9150509250929050565b600081519050919050565b600082825260208201905092915050565b6000819050602082019050919050565b60608201600082015161200a60008501826119bb565b50602082015161201d60208501826119d8565b50604082015161203060408501826119fd565b50505050565b60006120428383611ff4565b60608301905092915050565b6000602082019050919050565b600061206682611fc8565b6120708185611fd3565b935061207b83611fe4565b8060005b838110156120ac5781516120938882612036565b975061209e8361204e565b92505060018101905061207f565b5085935050505092915050565b600060208201905081810360008301526120d3818461205b565b905092915050565b7f4e487b7100000000000000000000000000000000000000000000000000000000600052603260045260246000fd5b6000819050919050565b61211d8161210a565b82525050565b60006020820190506121386000830184612114565b92915050565b612147816119a9565b82525050565b6000819050919050565b600061217261216d612168846119e7565b61214d565b61210a565b9050919050565b61218281612157565b82525050565b600060608201905061219d600083018661213e565b6121aa602083018561213e565b6121b76040830184612179565b949350505050565b60006121da6121d56121d0846119ca565b61214d565b61210a565b9050919050565b6121ea816121bf565b82525050565b6000604082019050612205600083018561213e565b61221260208301846121e1565b9392505050565b612222816119ca565b82525050565b612231816119e7565b82525050565b600060408201905061224c6000830185612219565b6122596020830184612228565b9392505050565b7f4e487b7100000000000000000000000000000000000000000000000000000000600052601160045260246000fd5b600061229a8261210a565b91506122a58361210a565b92508282019050808211156122bd576122bc612260565b5b92915050565b60006060820190506122d8600083018661213e565b6122e5602083018561213e565b6122f260408301846121e1565b949350505050565b600060408201905061230f600083018561213e565b61231c6020830184612114565b9392505050565b60008115159050919050565b61233881612323565b811461234357600080fd5b50565b6000815190506123558161232f565b92915050565b60006020828403121561237157612370611afd565b5b600061237f84828501612346565b91505092915050565b600060608201905061239d600083018661213e565b6123aa602083018561213e565b6123b76040830184612114565b949350505050565b600081519050919050565b600082825260208201905092915050565b6000819050602082019050919050565b6123f48161210a565b82525050565b600061240683836123eb565b60208301905092915050565b6000602082019050919050565b600061242a826123bf565b61243481856123ca565b935061243f836123db565b8060005b8381101561247057815161245788826123fa565b975061246283612412565b925050600181019050612443565b5085935050505092915050565b6000606082019050612492600083018661213e565b81810360208301526124a4818561241f565b905081810360408301526124b8818461241f565b905094935050505056fea264697066735822122024f4def5c135e0d699e7976693af69cfe7a65ff0fa6f66c65af31b10eb38448664736f6c63430008120033",
					"opcodes": "PUSH1 0xC0 PUSH1 0x40 MSTORE CALLVALUE DUP1 ISZERO PUSH3 0x11 JUMPI PUSH1 0x0 DUP1 REVERT JUMPDEST POP PUSH1 0x40 MLOAD PUSH3 0x26F9 CODESIZE SUB DUP1 PUSH3 0x26F9 DUP4 CODECOPY DUP2 DUP2 ADD PUSH1 0x40 MSTORE DUP2 ADD SWAP1 PUSH3 0x37 SWAP2 SWAP1 PUSH3 0x16A JUMP JUMPDEST DUP2 PUSH20 0xFFFFFFFFFFFFFFFFFFFFFFFFFFFFFFFFFFFFFFFF AND PUSH1 0x80 DUP2 PUSH20 0xFFFFFFFFFFFFFFFFFFFFFFFFFFFFFFFFFFFFFFFF AND DUP2 MSTORE POP POP DUP1 PUSH20 0xFFFFFFFFFFFFFFFFFFFFFFFFFFFFFFFFFFFFFFFF AND PUSH1 0xA0 DUP2 PUSH20 0xFFFFFFFFFFFFFFFFFFFFFFFFFFFFFFFFFFFFFFFF AND DUP2 MSTORE POP POP POP POP PUSH3 0x1B1 JUMP JUMPDEST PUSH1 0x0 DUP1 REVERT JUMPDEST PUSH1 0x0 PUSH20 0xFFFFFFFFFFFFFFFFFFFFFFFFFFFFFFFFFFFFFFFF DUP3 AND SWAP1 POP SWAP2 SWAP1 POP JUMP JUMPDEST PUSH1 0x0 PUSH3 0xD9 DUP3 PUSH3 0xAC JUMP JUMPDEST SWAP1 POP SWAP2 SWAP1 POP JUMP JUMPDEST PUSH1 0x0 PUSH3 0xED DUP3 PUSH3 0xCC JUMP JUMPDEST SWAP1 POP SWAP2 SWAP1 POP JUMP JUMPDEST PUSH3 0xFF DUP2 PUSH3 0xE0 JUMP JUMPDEST DUP2 EQ PUSH3 0x10B JUMPI PUSH1 0x0 DUP1 REVERT JUMPDEST POP JUMP JUMPDEST PUSH1 0x0 DUP2 MLOAD SWAP1 POP PUSH3 0x11F DUP2 PUSH3 0xF4 JUMP JUMPDEST SWAP3 SWAP2 POP POP JUMP JUMPDEST PUSH1 0x0 PUSH3 0x132 DUP3 PUSH3 0xCC JUMP JUMPDEST SWAP1 POP SWAP2 SWAP1 POP JUMP JUMPDEST PUSH3 0x144 DUP2 PUSH3 0x125 JUMP JUMPDEST DUP2 EQ PUSH3 0x150 JUMPI PUSH1 0x0 DUP1 REVERT JUMPDEST POP JUMP JUMPDEST PUSH1 0x0 DUP2 MLOAD SWAP1 POP PUSH3 0x164 DUP2 PUSH3 0x139 JUMP JUMPDEST SWAP3 SWAP2 POP POP JUMP JUMPDEST PUSH1 0x0 DUP1 PUSH1 0x40 DUP4 DUP6 SUB SLT ISZERO PUSH3 0x184 JUMPI PUSH3 0x183 PUSH3 0xA7 JUMP JUMPDEST JUMPDEST PUSH1 0x0 PUSH3 0x194 DUP6 DUP3 DUP7 ADD PUSH3 0x10E JUMP JUMPDEST SWAP3 POP POP PUSH1 0x20 PUSH3 0x1A7 DUP6 DUP3 DUP7 ADD PUSH3 0x153 JUMP JUMPDEST SWAP2 POP POP SWAP3 POP SWAP3 SWAP1 POP JUMP JUMPDEST PUSH1 0x80 MLOAD PUSH1 0xA0 MLOAD PUSH2 0x24F8 PUSH3 0x201 PUSH1 0x0 CODECOPY PUSH1 0x0 DUP2 DUP2 PUSH2 0x467 ADD MSTORE DUP2 DUP2 PUSH2 0x939 ADD MSTORE DUP2 DUP2 PUSH2 0x110D ADD MSTORE PUSH2 0x1432 ADD MSTORE PUSH1 0x0 DUP2 DUP2 PUSH2 0x4FE ADD MSTORE DUP2 DUP2 PUSH2 0x839 ADD MSTORE DUP2 DUP2 PUSH2 0xCDC ADD MSTORE PUSH2 0x17BF ADD MSTORE PUSH2 0x24F8 PUSH1 0x0 RETURN INVALID PUSH1 0x80 PUSH1 0x40 MSTORE CALLVALUE DUP1 ISZERO PUSH2 0x10 JUMPI PUSH1 0x0 DUP1 REVERT JUMPDEST POP PUSH1 0x4 CALLDATASIZE LT PUSH2 0x57 JUMPI PUSH1 0x0 CALLDATALOAD PUSH1 0xE0 SHR DUP1 PUSH4 0x14DCA602 EQ PUSH2 0x5C JUMPI DUP1 PUSH4 0x88A66E58 EQ PUSH2 0x7A JUMPI DUP1 PUSH4 0x8D4F8186 EQ PUSH2 0x96 JUMPI DUP1 PUSH4 0x9B47BCE7 EQ PUSH2 0xB2 JUMPI DUP1 PUSH4 0xE0C5A277 EQ PUSH2 0xCE JUMPI JUMPDEST PUSH1 0x0 DUP1 REVERT JUMPDEST PUSH2 0x64 PUSH2 0xEC JUMP JUMPDEST PUSH1 0x40 MLOAD PUSH2 0x71 SWAP2 SWAP1 PUSH2 0x1AD1 JUMP JUMPDEST PUSH1 0x40 MLOAD DUP1 SWAP2 SUB SWAP1 RETURN JUMPDEST PUSH2 0x94 PUSH1 0x4 DUP1 CALLDATASIZE SUB DUP2 ADD SWAP1 PUSH2 0x8F SWAP2 SWAP1 PUSH2 0x1B6C JUMP JUMPDEST PUSH2 0x1F5 JUMP JUMPDEST STOP JUMPDEST PUSH2 0xB0 PUSH1 0x4 DUP1 CALLDATASIZE SUB DUP2 ADD SWAP1 PUSH2 0xAB SWAP2 SWAP1 PUSH2 0x1B6C JUMP JUMPDEST PUSH2 0x9DD JUMP JUMPDEST STOP JUMPDEST PUSH2 0xCC PUSH1 0x4 DUP1 CALLDATASIZE SUB DUP2 ADD SWAP1 PUSH2 0xC7 SWAP2 SWAP1 PUSH2 0x1F50 JUMP JUMPDEST PUSH2 0x11B1 JUMP JUMPDEST STOP JUMPDEST PUSH2 0xD6 PUSH2 0x1854 JUMP JUMPDEST PUSH1 0x40 MLOAD PUSH2 0xE3 SWAP2 SWAP1 PUSH2 0x20B9 JUMP JUMPDEST PUSH1 0x40 MLOAD DUP1 SWAP2 SUB SWAP1 RETURN JUMPDEST PUSH1 0x60 PUSH1 0x1 DUP1 SLOAD DUP1 PUSH1 0x20 MUL PUSH1 0x20 ADD PUSH1 0x40 MLOAD SWAP1 DUP2 ADD PUSH1 0x40 MSTORE DUP1 SWAP3 SWAP2 SWAP1 DUP2 DUP2 MSTORE PUSH1 0x20 ADD PUSH1 0x0 SWAP1 JUMPDEST DUP3 DUP3 LT ISZERO PUSH2 0x1EC JUMPI DUP4 DUP3 SWAP1 PUSH1 0x0 MSTORE PUSH1 0x20 PUSH1 0x0 KECCAK256 ADD PUSH1 0x40 MLOAD DUP1 PUSH1 0x60 ADD PUSH1 0x40 MSTORE SWAP1 DUP2 PUSH1 0x0 DUP3 ADD PUSH1 0x0 SWAP1 SLOAD SWAP1 PUSH2 0x100 EXP SWAP1 DIV PUSH20 0xFFFFFFFFFFFFFFFFFFFFFFFFFFFFFFFFFFFFFFFF AND PUSH20 0xFFFFFFFFFFFFFFFFFFFFFFFFFFFFFFFFFFFFFFFF AND PUSH20 0xFFFFFFFFFFFFFFFFFFFFFFFFFFFFFFFFFFFFFFFF AND DUP2 MSTORE PUSH1 0x20 ADD PUSH1 0x0 DUP3 ADD PUSH1 0x14 SWAP1 SLOAD SWAP1 PUSH2 0x100 EXP SWAP1 DIV PUSH2 0xFFFF AND PUSH2 0xFFFF AND PUSH2 0xFFFF AND DUP2 MSTORE PUSH1 0x20 ADD PUSH1 0x0 DUP3 ADD PUSH1 0x16 SWAP1 SLOAD SWAP1 PUSH2 0x100 EXP SWAP1 DIV PUSH10 0xFFFFFFFFFFFFFFFFFFFF AND PUSH10 0xFFFFFFFFFFFFFFFFFFFF AND PUSH10 0xFFFFFFFFFFFFFFFFFFFF AND DUP2 MSTORE POP POP DUP2 MSTORE PUSH1 0x20 ADD SWAP1 PUSH1 0x1 ADD SWAP1 PUSH2 0x110 JUMP JUMPDEST POP POP POP POP SWAP1 POP SWAP1 JUMP JUMPDEST PUSH1 0x0 DUP5 DUP5 SWAP1 POP EQ DUP1 ISZERO PUSH2 0x20B JUMPI POP PUSH1 0x0 DUP3 DUP3 SWAP1 POP EQ JUMPDEST ISZERO PUSH2 0x242 JUMPI PUSH1 0x40 MLOAD PUSH32 0x7DA169700000000000000000000000000000000000000000000000000000000 DUP2 MSTORE PUSH1 0x4 ADD PUSH1 0x40 MLOAD DUP1 SWAP2 SUB SWAP1 REVERT JUMPDEST PUSH1 0x0 JUMPDEST DUP5 DUP5 SWAP1 POP DUP2 LT ISZERO PUSH2 0x5F5 JUMPI PUSH1 0x0 PUSH1 0x1 DUP7 DUP7 DUP5 DUP2 DUP2 LT PUSH2 0x267 JUMPI PUSH2 0x266 PUSH2 0x20DB JUMP JUMPDEST JUMPDEST SWAP1 POP PUSH1 0x20 MUL ADD CALLDATALOAD DUP2 SLOAD DUP2 LT PUSH2 0x27F JUMPI PUSH2 0x27E PUSH2 0x20DB JUMP JUMPDEST JUMPDEST SWAP1 PUSH1 0x0 MSTORE PUSH1 0x20 PUSH1 0x0 KECCAK256 ADD PUSH1 0x40 MLOAD DUP1 PUSH1 0x60 ADD PUSH1 0x40 MSTORE SWAP1 DUP2 PUSH1 0x0 DUP3 ADD PUSH1 0x0 SWAP1 SLOAD SWAP1 PUSH2 0x100 EXP SWAP1 DIV PUSH20 0xFFFFFFFFFFFFFFFFFFFFFFFFFFFFFFFFFFFFFFFF AND PUSH20 0xFFFFFFFFFFFFFFFFFFFFFFFFFFFFFFFFFFFFFFFF AND PUSH20 0xFFFFFFFFFFFFFFFFFFFFFFFFFFFFFFFFFFFFFFFF AND DUP2 MSTORE PUSH1 0x20 ADD PUSH1 0x0 DUP3 ADD PUSH1 0x14 SWAP1 SLOAD SWAP1 PUSH2 0x100 EXP SWAP1 DIV PUSH2 0xFFFF AND PUSH2 0xFFFF AND PUSH2 0xFFFF AND DUP2 MSTORE PUSH1 0x20 ADD PUSH1 0x0 DUP3 ADD PUSH1 0x16 SWAP1 SLOAD SWAP1 PUSH2 0x100 EXP SWAP1 DIV PUSH10 0xFFFFFFFFFFFFFFFFFFFF AND PUSH10 0xFFFFFFFFFFFFFFFFFFFF AND PUSH10 0xFFFFFFFFFFFFFFFFFFFF AND DUP2 MSTORE POP POP SWAP1 POP PUSH1 0x0 PUSH20 0xFFFFFFFFFFFFFFFFFFFFFFFFFFFFFFFFFFFFFFFF AND DUP2 PUSH1 0x0 ADD MLOAD PUSH20 0xFFFFFFFFFFFFFFFFFFFFFFFFFFFFFFFFFFFFFFFF AND SUB PUSH2 0x3D2 JUMPI DUP6 DUP6 DUP4 DUP2 DUP2 LT PUSH2 0x38F JUMPI PUSH2 0x38E PUSH2 0x20DB JUMP JUMPDEST JUMPDEST SWAP1 POP PUSH1 0x20 MUL ADD CALLDATALOAD PUSH1 0x40 MLOAD PUSH32 0x2A0B2CB500000000000000000000000000000000000000000000000000000000 DUP2 MSTORE PUSH1 0x4 ADD PUSH2 0x3C9 SWAP2 SWAP1 PUSH2 0x2123 JUMP JUMPDEST PUSH1 0x40 MLOAD DUP1 SWAP2 SUB SWAP1 REVERT JUMPDEST PUSH1 0x1 DUP7 DUP7 DUP5 DUP2 DUP2 LT PUSH2 0x3E7 JUMPI PUSH2 0x3E6 PUSH2 0x20DB JUMP JUMPDEST JUMPDEST SWAP1 POP PUSH1 0x20 MUL ADD CALLDATALOAD DUP2 SLOAD DUP2 LT PUSH2 0x3FF JUMPI PUSH2 0x3FE PUSH2 0x20DB JUMP JUMPDEST JUMPDEST SWAP1 PUSH1 0x0 MSTORE PUSH1 0x20 PUSH1 0x0 KECCAK256 ADD PUSH1 0x0 DUP1 DUP3 ADD PUSH1 0x0 PUSH2 0x100 EXP DUP2 SLOAD SWAP1 PUSH20 0xFFFFFFFFFFFFFFFFFFFFFFFFFFFFFFFFFFFFFFFF MUL NOT AND SWAP1 SSTORE PUSH1 0x0 DUP3 ADD PUSH1 0x14 PUSH2 0x100 EXP DUP2 SLOAD SWAP1 PUSH2 0xFFFF MUL NOT AND SWAP1 SSTORE PUSH1 0x0 DUP3 ADD PUSH1 0x16 PUSH2 0x100 EXP DUP2 SLOAD SWAP1 PUSH10 0xFFFFFFFFFFFFFFFFFFFF MUL NOT AND SWAP1 SSTORE POP POP PUSH32 0x0 PUSH20 0xFFFFFFFFFFFFFFFFFFFFFFFFFFFFFFFFFFFFFFFF AND PUSH4 0xA8C0A100 CALLER DUP4 PUSH1 0x0 ADD MLOAD DUP5 PUSH1 0x40 ADD MLOAD PUSH1 0x40 MLOAD DUP5 PUSH4 0xFFFFFFFF AND PUSH1 0xE0 SHL DUP2 MSTORE PUSH1 0x4 ADD PUSH2 0x4CA SWAP4 SWAP3 SWAP2 SWAP1 PUSH2 0x2188 JUMP JUMPDEST PUSH1 0x0 PUSH1 0x40 MLOAD DUP1 DUP4 SUB DUP2 PUSH1 0x0 DUP8 DUP1 EXTCODESIZE ISZERO DUP1 ISZERO PUSH2 0x4E4 JUMPI PUSH1 0x0 DUP1 REVERT JUMPDEST POP GAS CALL ISZERO DUP1 ISZERO PUSH2 0x4F8 JUMPI RETURNDATASIZE PUSH1 0x0 DUP1 RETURNDATACOPY RETURNDATASIZE PUSH1 0x0 REVERT JUMPDEST POP POP POP POP PUSH32 0x0 PUSH20 0xFFFFFFFFFFFFFFFFFFFFFFFFFFFFFFFFFFFFFFFF AND PUSH4 0x40C10F19 CALLER DUP4 PUSH1 0x20 ADD MLOAD PUSH1 0x40 MLOAD DUP4 PUSH4 0xFFFFFFFF AND PUSH1 0xE0 SHL DUP2 MSTORE PUSH1 0x4 ADD PUSH2 0x55B SWAP3 SWAP2 SWAP1 PUSH2 0x21F0 JUMP JUMPDEST PUSH1 0x0 PUSH1 0x40 MLOAD DUP1 DUP4 SUB DUP2 PUSH1 0x0 DUP8 DUP1 EXTCODESIZE ISZERO DUP1 ISZERO PUSH2 0x575 JUMPI PUSH1 0x0 DUP1 REVERT JUMPDEST POP GAS CALL ISZERO DUP1 ISZERO PUSH2 0x589 JUMPI RETURNDATASIZE PUSH1 0x0 DUP1 RETURNDATACOPY RETURNDATASIZE PUSH1 0x0 REVERT JUMPDEST POP POP POP POP DUP1 PUSH1 0x0 ADD MLOAD PUSH20 0xFFFFFFFFFFFFFFFFFFFFFFFFFFFFFFFFFFFFFFFF AND PUSH32 0x42575477750D93FAA6263D63274A24B7107221FD2D093EADF4A094A6894DB052 DUP3 PUSH1 0x20 ADD MLOAD DUP4 PUSH1 0x40 ADD MLOAD PUSH1 0x40 MLOAD PUSH2 0x5E1 SWAP3 SWAP2 SWAP1 PUSH2 0x2237 JUMP JUMPDEST PUSH1 0x40 MLOAD DUP1 SWAP2 SUB SWAP1 LOG2 DUP2 PUSH1 0x1 ADD SWAP2 POP POP PUSH2 0x245 JUMP JUMPDEST POP PUSH1 0x0 DUP1 JUMPDEST DUP4 DUP4 SWAP1 POP DUP2 LT ISZERO PUSH2 0x936 JUMPI PUSH1 0x0 DUP1 DUP6 DUP6 DUP5 DUP2 DUP2 LT PUSH2 0x61B JUMPI PUSH2 0x61A PUSH2 0x20DB JUMP JUMPDEST JUMPDEST SWAP1 POP PUSH1 0x20 MUL ADD CALLDATALOAD DUP2 SLOAD DUP2 LT PUSH2 0x633 JUMPI PUSH2 0x632 PUSH2 0x20DB JUMP JUMPDEST JUMPDEST SWAP1 PUSH1 0x0 MSTORE PUSH1 0x20 PUSH1 0x0 KECCAK256 ADD PUSH1 0x40 MLOAD DUP1 PUSH1 0x60 ADD PUSH1 0x40 MSTORE SWAP1 DUP2 PUSH1 0x0 DUP3 ADD PUSH1 0x0 SWAP1 SLOAD SWAP1 PUSH2 0x100 EXP SWAP1 DIV PUSH20 0xFFFFFFFFFFFFFFFFFFFFFFFFFFFFFFFFFFFFFFFF AND PUSH20 0xFFFFFFFFFFFFFFFFFFFFFFFFFFFFFFFFFFFFFFFF AND PUSH20 0xFFFFFFFFFFFFFFFFFFFFFFFFFFFFFFFFFFFFFFFF AND DUP2 MSTORE PUSH1 0x20 ADD PUSH1 0x0 DUP3 ADD PUSH1 0x14 SWAP1 SLOAD SWAP1 PUSH2 0x100 EXP SWAP1 DIV PUSH2 0xFFFF AND PUSH2 0xFFFF AND PUSH2 0xFFFF AND DUP2 MSTORE PUSH1 0x20 ADD PUSH1 0x0 DUP3 ADD PUSH1 0x16 SWAP1 SLOAD SWAP1 PUSH2 0x100 EXP SWAP1 DIV PUSH10 0xFFFFFFFFFFFFFFFFFFFF AND PUSH10 0xFFFFFFFFFFFFFFFFFFFF AND PUSH10 0xFFFFFFFFFFFFFFFFFFFF AND DUP2 MSTORE POP POP SWAP1 POP PUSH1 0x0 PUSH20 0xFFFFFFFFFFFFFFFFFFFFFFFFFFFFFFFFFFFFFFFF AND DUP2 PUSH1 0x0 ADD MLOAD PUSH20 0xFFFFFFFFFFFFFFFFFFFFFFFFFFFFFFFFFFFFFFFF AND SUB PUSH2 0x786 JUMPI DUP5 DUP5 DUP4 DUP2 DUP2 LT PUSH2 0x743 JUMPI PUSH2 0x742 PUSH2 0x20DB JUMP JUMPDEST JUMPDEST SWAP1 POP PUSH1 0x20 MUL ADD CALLDATALOAD PUSH1 0x40 MLOAD PUSH32 0xAC1B1EF500000000000000000000000000000000000000000000000000000000 DUP2 MSTORE PUSH1 0x4 ADD PUSH2 0x77D SWAP2 SWAP1 PUSH2 0x2123 JUMP JUMPDEST PUSH1 0x40 MLOAD DUP1 SWAP2 SUB SWAP1 REVERT JUMPDEST PUSH1 0x0 DUP6 DUP6 DUP5 DUP2 DUP2 LT PUSH2 0x79B JUMPI PUSH2 0x79A PUSH2 0x20DB JUMP JUMPDEST JUMPDEST SWAP1 POP PUSH1 0x20 MUL ADD CALLDATALOAD DUP2 SLOAD DUP2 LT PUSH2 0x7B3 JUMPI PUSH2 0x7B2 PUSH2 0x20DB JUMP JUMPDEST JUMPDEST SWAP1 PUSH1 0x0 MSTORE PUSH1 0x20 PUSH1 0x0 KECCAK256 ADD PUSH1 0x0 DUP1 DUP3 ADD PUSH1 0x0 PUSH2 0x100 EXP DUP2 SLOAD SWAP1 PUSH20 0xFFFFFFFFFFFFFFFFFFFFFFFFFFFFFFFFFFFFFFFF MUL NOT AND SWAP1 SSTORE PUSH1 0x0 DUP3 ADD PUSH1 0x14 PUSH2 0x100 EXP DUP2 SLOAD SWAP1 PUSH2 0xFFFF MUL NOT AND SWAP1 SSTORE PUSH1 0x0 DUP3 ADD PUSH1 0x16 PUSH2 0x100 EXP DUP2 SLOAD SWAP1 PUSH10 0xFFFFFFFFFFFFFFFFFFFF MUL NOT AND SWAP1 SSTORE POP POP DUP1 PUSH1 0x40 ADD MLOAD PUSH10 0xFFFFFFFFFFFFFFFFFFFF AND DUP4 PUSH2 0x835 SWAP2 SWAP1 PUSH2 0x228F JUMP JUMPDEST SWAP3 POP PUSH32 0x0 PUSH20 0xFFFFFFFFFFFFFFFFFFFFFFFFFFFFFFFFFFFFFFFF AND PUSH4 0x83720753 CALLER DUP4 PUSH1 0x0 ADD MLOAD DUP5 PUSH1 0x20 ADD MLOAD PUSH1 0x40 MLOAD DUP5 PUSH4 0xFFFFFFFF AND PUSH1 0xE0 SHL DUP2 MSTORE PUSH1 0x4 ADD PUSH2 0x89C SWAP4 SWAP3 SWAP2 SWAP1 PUSH2 0x22C3 JUMP JUMPDEST PUSH1 0x0 PUSH1 0x40 MLOAD DUP1 DUP4 SUB DUP2 PUSH1 0x0 DUP8 DUP1 EXTCODESIZE ISZERO DUP1 ISZERO PUSH2 0x8B6 JUMPI PUSH1 0x0 DUP1 REVERT JUMPDEST POP GAS CALL ISZERO DUP1 ISZERO PUSH2 0x8CA JUMPI RETURNDATASIZE PUSH1 0x0 DUP1 RETURNDATACOPY RETURNDATASIZE PUSH1 0x0 REVERT JUMPDEST POP POP POP POP DUP1 PUSH1 0x0 ADD MLOAD PUSH20 0xFFFFFFFFFFFFFFFFFFFFFFFFFFFFFFFFFFFFFFFF AND PUSH32 0xCE60F425C1B79C667F6B28F3E98E7F44BBDA72AE106EC8F06C2EF8A6645BE875 DUP3 PUSH1 0x20 ADD MLOAD DUP4 PUSH1 0x40 ADD MLOAD PUSH1 0x40 MLOAD PUSH2 0x922 SWAP3 SWAP2 SWAP1 PUSH2 0x2237 JUMP JUMPDEST PUSH1 0x40 MLOAD DUP1 SWAP2 SUB SWAP1 LOG2 DUP2 PUSH1 0x1 ADD SWAP2 POP POP PUSH2 0x5FA JUMP JUMPDEST POP PUSH32 0x0 PUSH20 0xFFFFFFFFFFFFFFFFFFFFFFFFFFFFFFFFFFFFFFFF AND PUSH4 0xA9059CBB CALLER DUP4 PUSH1 0x40 MLOAD DUP4 PUSH4 0xFFFFFFFF AND PUSH1 0xE0 SHL DUP2 MSTORE PUSH1 0x4 ADD PUSH2 0x992 SWAP3 SWAP2 SWAP1 PUSH2 0x22FA JUMP JUMPDEST PUSH1 0x20 PUSH1 0x40 MLOAD DUP1 DUP4 SUB DUP2 PUSH1 0x0 DUP8 GAS CALL ISZERO DUP1 ISZERO PUSH2 0x9B1 JUMPI RETURNDATASIZE PUSH1 0x0 DUP1 RETURNDATACOPY RETURNDATASIZE PUSH1 0x0 REVERT JUMPDEST POP POP POP POP PUSH1 0x40 MLOAD RETURNDATASIZE PUSH1 0x1F NOT PUSH1 0x1F DUP3 ADD AND DUP3 ADD DUP1 PUSH1 0x40 MSTORE POP DUP2 ADD SWAP1 PUSH2 0x9D5 SWAP2 SWAP1 PUSH2 0x235B JUMP JUMPDEST POP POP POP POP POP POP JUMP JUMPDEST PUSH1 0x0 DUP5 DUP5 SWAP1 POP EQ DUP1 ISZERO PUSH2 0x9F3 JUMPI POP PUSH1 0x0 DUP3 DUP3 SWAP1 POP EQ JUMPDEST ISZERO PUSH2 0xA2A JUMPI PUSH1 0x40 MLOAD PUSH32 0x7DA169700000000000000000000000000000000000000000000000000000000 DUP2 MSTORE PUSH1 0x4 ADD PUSH1 0x40 MLOAD DUP1 SWAP2 SUB SWAP1 REVERT JUMPDEST PUSH1 0x0 JUMPDEST DUP5 DUP5 SWAP1 POP DUP2 LT ISZERO PUSH2 0xDD3 JUMPI PUSH1 0x0 PUSH1 0x1 DUP7 DUP7 DUP5 DUP2 DUP2 LT PUSH2 0xA4F JUMPI PUSH2 0xA4E PUSH2 0x20DB JUMP JUMPDEST JUMPDEST SWAP1 POP PUSH1 0x20 MUL ADD CALLDATALOAD DUP2 SLOAD DUP2 LT PUSH2 0xA67 JUMPI PUSH2 0xA66 PUSH2 0x20DB JUMP JUMPDEST JUMPDEST SWAP1 PUSH1 0x0 MSTORE PUSH1 0x20 PUSH1 0x0 KECCAK256 ADD PUSH1 0x40 MLOAD DUP1 PUSH1 0x60 ADD PUSH1 0x40 MSTORE SWAP1 DUP2 PUSH1 0x0 DUP3 ADD PUSH1 0x0 SWAP1 SLOAD SWAP1 PUSH2 0x100 EXP SWAP1 DIV PUSH20 0xFFFFFFFFFFFFFFFFFFFFFFFFFFFFFFFFFFFFFFFF AND PUSH20 0xFFFFFFFFFFFFFFFFFFFFFFFFFFFFFFFFFFFFFFFF AND PUSH20 0xFFFFFFFFFFFFFFFFFFFFFFFFFFFFFFFFFFFFFFFF AND DUP2 MSTORE PUSH1 0x20 ADD PUSH1 0x0 DUP3 ADD PUSH1 0x14 SWAP1 SLOAD SWAP1 PUSH2 0x100 EXP SWAP1 DIV PUSH2 0xFFFF AND PUSH2 0xFFFF AND PUSH2 0xFFFF AND DUP2 MSTORE PUSH1 0x20 ADD PUSH1 0x0 DUP3 ADD PUSH1 0x16 SWAP1 SLOAD SWAP1 PUSH2 0x100 EXP SWAP1 DIV PUSH10 0xFFFFFFFFFFFFFFFFFFFF AND PUSH10 0xFFFFFFFFFFFFFFFFFFFF AND PUSH10 0xFFFFFFFFFFFFFFFFFFFF AND DUP2 MSTORE POP POP SWAP1 POP PUSH1 0x0 PUSH20 0xFFFFFFFFFFFFFFFFFFFFFFFFFFFFFFFFFFFFFFFF AND DUP2 PUSH1 0x0 ADD MLOAD PUSH20 0xFFFFFFFFFFFFFFFFFFFFFFFFFFFFFFFFFFFFFFFF AND SUB PUSH2 0xBBA JUMPI DUP6 DUP6 DUP4 DUP2 DUP2 LT PUSH2 0xB77 JUMPI PUSH2 0xB76 PUSH2 0x20DB JUMP JUMPDEST JUMPDEST SWAP1 POP PUSH1 0x20 MUL ADD CALLDATALOAD PUSH1 0x40 MLOAD PUSH32 0x2A0B2CB500000000000000000000000000000000000000000000000000000000 DUP2 MSTORE PUSH1 0x4 ADD PUSH2 0xBB1 SWAP2 SWAP1 PUSH2 0x2123 JUMP JUMPDEST PUSH1 0x40 MLOAD DUP1 SWAP2 SUB SWAP1 REVERT JUMPDEST CALLER PUSH20 0xFFFFFFFFFFFFFFFFFFFFFFFFFFFFFFFFFFFFFFFF AND DUP2 PUSH1 0x0 ADD MLOAD PUSH20 0xFFFFFFFFFFFFFFFFFFFFFFFFFFFFFFFFFFFFFFFF AND EQ PUSH2 0xC47 JUMPI DUP6 DUP6 DUP4 DUP2 DUP2 LT PUSH2 0xC04 JUMPI PUSH2 0xC03 PUSH2 0x20DB JUMP JUMPDEST JUMPDEST SWAP1 POP PUSH1 0x20 MUL ADD CALLDATALOAD PUSH1 0x40 MLOAD PUSH32 0x257ABC9400000000000000000000000000000000000000000000000000000000 DUP2 MSTORE PUSH1 0x4 ADD PUSH2 0xC3E SWAP2 SWAP1 PUSH2 0x2123 JUMP JUMPDEST PUSH1 0x40 MLOAD DUP1 SWAP2 SUB SWAP1 REVERT JUMPDEST PUSH1 0x1 DUP7 DUP7 DUP5 DUP2 DUP2 LT PUSH2 0xC5C JUMPI PUSH2 0xC5B PUSH2 0x20DB JUMP JUMPDEST JUMPDEST SWAP1 POP PUSH1 0x20 MUL ADD CALLDATALOAD DUP2 SLOAD DUP2 LT PUSH2 0xC74 JUMPI PUSH2 0xC73 PUSH2 0x20DB JUMP JUMPDEST JUMPDEST SWAP1 PUSH1 0x0 MSTORE PUSH1 0x20 PUSH1 0x0 KECCAK256 ADD PUSH1 0x0 DUP1 DUP3 ADD PUSH1 0x0 PUSH2 0x100 EXP DUP2 SLOAD SWAP1 PUSH20 0xFFFFFFFFFFFFFFFFFFFFFFFFFFFFFFFFFFFFFFFF MUL NOT AND SWAP1 SSTORE PUSH1 0x0 DUP3 ADD PUSH1 0x14 PUSH2 0x100 EXP DUP2 SLOAD SWAP1 PUSH2 0xFFFF MUL NOT AND SWAP1 SSTORE PUSH1 0x0 DUP3 ADD PUSH1 0x16 PUSH2 0x100 EXP DUP2 SLOAD SWAP1 PUSH10 0xFFFFFFFFFFFFFFFFFFFF MUL NOT AND SWAP1 SSTORE POP POP PUSH32 0x0 PUSH20 0xFFFFFFFFFFFFFFFFFFFFFFFFFFFFFFFFFFFFFFFF AND PUSH4 0x40C10F19 CALLER DUP4 PUSH1 0x20 ADD MLOAD PUSH1 0x40 MLOAD DUP4 PUSH4 0xFFFFFFFF AND PUSH1 0xE0 SHL DUP2 MSTORE PUSH1 0x4 ADD PUSH2 0xD39 SWAP3 SWAP2 SWAP1 PUSH2 0x21F0 JUMP JUMPDEST PUSH1 0x0 PUSH1 0x40 MLOAD DUP1 DUP4 SUB DUP2 PUSH1 0x0 DUP8 DUP1 EXTCODESIZE ISZERO DUP1 ISZERO PUSH2 0xD53 JUMPI PUSH1 0x0 DUP1 REVERT JUMPDEST POP GAS CALL ISZERO DUP1 ISZERO PUSH2 0xD67 JUMPI RETURNDATASIZE PUSH1 0x0 DUP1 RETURNDATACOPY RETURNDATASIZE PUSH1 0x0 REVERT JUMPDEST POP POP POP POP DUP1 PUSH1 0x0 ADD MLOAD PUSH20 0xFFFFFFFFFFFFFFFFFFFFFFFFFFFFFFFFFFFFFFFF AND PUSH32 0xE0D2D550F275A4F9605D9C8BBF2F4DD37B05A67CB1FA5A62AEF750F97D082A7C DUP3 PUSH1 0x20 ADD MLOAD DUP4 PUSH1 0x40 ADD MLOAD PUSH1 0x40 MLOAD PUSH2 0xDBF SWAP3 SWAP2 SWAP1 PUSH2 0x2237 JUMP JUMPDEST PUSH1 0x40 MLOAD DUP1 SWAP2 SUB SWAP1 LOG2 DUP2 PUSH1 0x1 ADD SWAP2 POP POP PUSH2 0xA2D JUMP JUMPDEST POP PUSH1 0x0 DUP1 JUMPDEST DUP4 DUP4 SWAP1 POP DUP2 LT ISZERO PUSH2 0x110A JUMPI PUSH1 0x0 DUP1 DUP6 DUP6 DUP5 DUP2 DUP2 LT PUSH2 0xDF9 JUMPI PUSH2 0xDF8 PUSH2 0x20DB JUMP JUMPDEST JUMPDEST SWAP1 POP PUSH1 0x20 MUL ADD CALLDATALOAD DUP2 SLOAD DUP2 LT PUSH2 0xE11 JUMPI PUSH2 0xE10 PUSH2 0x20DB JUMP JUMPDEST JUMPDEST SWAP1 PUSH1 0x0 MSTORE PUSH1 0x20 PUSH1 0x0 KECCAK256 ADD PUSH1 0x40 MLOAD DUP1 PUSH1 0x60 ADD PUSH1 0x40 MSTORE SWAP1 DUP2 PUSH1 0x0 DUP3 ADD PUSH1 0x0 SWAP1 SLOAD SWAP1 PUSH2 0x100 EXP SWAP1 DIV PUSH20 0xFFFFFFFFFFFFFFFFFFFFFFFFFFFFFFFFFFFFFFFF AND PUSH20 0xFFFFFFFFFFFFFFFFFFFFFFFFFFFFFFFFFFFFFFFF AND PUSH20 0xFFFFFFFFFFFFFFFFFFFFFFFFFFFFFFFFFFFFFFFF AND DUP2 MSTORE PUSH1 0x20 ADD PUSH1 0x0 DUP3 ADD PUSH1 0x14 SWAP1 SLOAD SWAP1 PUSH2 0x100 EXP SWAP1 DIV PUSH2 0xFFFF AND PUSH2 0xFFFF AND PUSH2 0xFFFF AND DUP2 MSTORE PUSH1 0x20 ADD PUSH1 0x0 DUP3 ADD PUSH1 0x16 SWAP1 SLOAD SWAP1 PUSH2 0x100 EXP SWAP1 DIV PUSH10 0xFFFFFFFFFFFFFFFFFFFF AND PUSH10 0xFFFFFFFFFFFFFFFFFFFF AND PUSH10 0xFFFFFFFFFFFFFFFFFFFF AND DUP2 MSTORE POP POP SWAP1 POP PUSH1 0x0 PUSH20 0xFFFFFFFFFFFFFFFFFFFFFFFFFFFFFFFFFFFFFFFF AND DUP2 PUSH1 0x0 ADD MLOAD PUSH20 0xFFFFFFFFFFFFFFFFFFFFFFFFFFFFFFFFFFFFFFFF AND SUB PUSH2 0xF64 JUMPI DUP5 DUP5 DUP4 DUP2 DUP2 LT PUSH2 0xF21 JUMPI PUSH2 0xF20 PUSH2 0x20DB JUMP JUMPDEST JUMPDEST SWAP1 POP PUSH1 0x20 MUL ADD CALLDATALOAD PUSH1 0x40 MLOAD PUSH32 0xAC1B1EF500000000000000000000000000000000000000000000000000000000 DUP2 MSTORE PUSH1 0x4 ADD PUSH2 0xF5B SWAP2 SWAP1 PUSH2 0x2123 JUMP JUMPDEST PUSH1 0x40 MLOAD DUP1 SWAP2 SUB SWAP1 REVERT JUMPDEST CALLER PUSH20 0xFFFFFFFFFFFFFFFFFFFFFFFFFFFFFFFFFFFFFFFF AND DUP2 PUSH1 0x0 ADD MLOAD PUSH20 0xFFFFFFFFFFFFFFFFFFFFFFFFFFFFFFFFFFFFFFFF AND EQ PUSH2 0xFF1 JUMPI DUP5 DUP5 DUP4 DUP2 DUP2 LT PUSH2 0xFAE JUMPI PUSH2 0xFAD PUSH2 0x20DB JUMP JUMPDEST JUMPDEST SWAP1 POP PUSH1 0x20 MUL ADD CALLDATALOAD PUSH1 0x40 MLOAD PUSH32 0xBA64FD5700000000000000000000000000000000000000000000000000000000 DUP2 MSTORE PUSH1 0x4 ADD PUSH2 0xFE8 SWAP2 SWAP1 PUSH2 0x2123 JUMP JUMPDEST PUSH1 0x40 MLOAD DUP1 SWAP2 SUB SWAP1 REVERT JUMPDEST PUSH1 0x0 DUP6 DUP6 DUP5 DUP2 DUP2 LT PUSH2 0x1006 JUMPI PUSH2 0x1005 PUSH2 0x20DB JUMP JUMPDEST JUMPDEST SWAP1 POP PUSH1 0x20 MUL ADD CALLDATALOAD DUP2 SLOAD DUP2 LT PUSH2 0x101E JUMPI PUSH2 0x101D PUSH2 0x20DB JUMP JUMPDEST JUMPDEST SWAP1 PUSH1 0x0 MSTORE PUSH1 0x20 PUSH1 0x0 KECCAK256 ADD PUSH1 0x0 DUP1 DUP3 ADD PUSH1 0x0 PUSH2 0x100 EXP DUP2 SLOAD SWAP1 PUSH20 0xFFFFFFFFFFFFFFFFFFFFFFFFFFFFFFFFFFFFFFFF MUL NOT AND SWAP1 SSTORE PUSH1 0x0 DUP3 ADD PUSH1 0x14 PUSH2 0x100 EXP DUP2 SLOAD SWAP1 PUSH2 0xFFFF MUL NOT AND SWAP1 SSTORE PUSH1 0x0 DUP3 ADD PUSH1 0x16 PUSH2 0x100 EXP DUP2 SLOAD SWAP1 PUSH10 0xFFFFFFFFFFFFFFFFFFFF MUL NOT AND SWAP1 SSTORE POP POP DUP1 PUSH1 0x40 ADD MLOAD PUSH10 0xFFFFFFFFFFFFFFFFFFFF AND DUP4 PUSH2 0x10A0 SWAP2 SWAP1 PUSH2 0x228F JUMP JUMPDEST SWAP3 POP DUP1 PUSH1 0x0 ADD MLOAD PUSH20 0xFFFFFFFFFFFFFFFFFFFFFFFFFFFFFFFFFFFFFFFF AND PUSH32 0xD012FFA67BA231FEEBB0C72DFB6363A78738C94E9F08A2EB205FB727D3CC35EF DUP3 PUSH1 0x20 ADD MLOAD DUP4 PUSH1 0x40 ADD MLOAD PUSH1 0x40 MLOAD PUSH2 0x10F6 SWAP3 SWAP2 SWAP1 PUSH2 0x2237 JUMP JUMPDEST PUSH1 0x40 MLOAD DUP1 SWAP2 SUB SWAP1 LOG2 DUP2 PUSH1 0x1 ADD SWAP2 POP POP PUSH2 0xDD8 JUMP JUMPDEST POP PUSH32 0x0 PUSH20 0xFFFFFFFFFFFFFFFFFFFFFFFFFFFFFFFFFFFFFFFF AND PUSH4 0xA9059CBB CALLER DUP4 PUSH1 0x40 MLOAD DUP4 PUSH4 0xFFFFFFFF AND PUSH1 0xE0 SHL DUP2 MSTORE PUSH1 0x4 ADD PUSH2 0x1166 SWAP3 SWAP2 SWAP1 PUSH2 0x22FA JUMP JUMPDEST PUSH1 0x20 PUSH1 0x40 MLOAD DUP1 DUP4 SUB DUP2 PUSH1 0x0 DUP8 GAS CALL ISZERO DUP1 ISZERO PUSH2 0x1185 JUMPI RETURNDATASIZE PUSH1 0x0 DUP1 RETURNDATACOPY RETURNDATASIZE PUSH1 0x0 REVERT JUMPDEST POP POP POP POP PUSH1 0x40 MLOAD RETURNDATASIZE PUSH1 0x1F NOT PUSH1 0x1F DUP3 ADD AND DUP3 ADD DUP1 PUSH1 0x40 MSTORE POP DUP2 ADD SWAP1 PUSH2 0x11A9 SWAP2 SWAP1 PUSH2 0x235B JUMP JUMPDEST POP POP POP POP POP POP JUMP JUMPDEST PUSH1 0x0 DUP3 MLOAD EQ DUP1 ISZERO PUSH2 0x11C3 JUMPI POP PUSH1 0x0 DUP2 MLOAD EQ JUMPDEST ISZERO PUSH2 0x11FA JUMPI PUSH1 0x40 MLOAD PUSH32 0x7DA169700000000000000000000000000000000000000000000000000000000 DUP2 MSTORE PUSH1 0x4 ADD PUSH1 0x40 MLOAD DUP1 SWAP2 SUB SWAP1 REVERT JUMPDEST PUSH1 0x0 DUP1 JUMPDEST DUP3 MLOAD DUP2 LT ISZERO PUSH2 0x1427 JUMPI CALLER DUP4 DUP3 DUP2 MLOAD DUP2 LT PUSH2 0x121B JUMPI PUSH2 0x121A PUSH2 0x20DB JUMP JUMPDEST JUMPDEST PUSH1 0x20 MUL PUSH1 0x20 ADD ADD MLOAD PUSH1 0x0 ADD SWAP1 PUSH20 0xFFFFFFFFFFFFFFFFFFFFFFFFFFFFFFFFFFFFFFFF AND SWAP1 DUP2 PUSH20 0xFFFFFFFFFFFFFFFFFFFFFFFFFFFFFFFFFFFFFFFF AND DUP2 MSTORE POP POP DUP3 DUP2 DUP2 MLOAD DUP2 LT PUSH2 0x126C JUMPI PUSH2 0x126B PUSH2 0x20DB JUMP JUMPDEST JUMPDEST PUSH1 0x20 MUL PUSH1 0x20 ADD ADD MLOAD PUSH1 0x40 ADD MLOAD PUSH10 0xFFFFFFFFFFFFFFFFFFFF AND DUP3 PUSH2 0x128F SWAP2 SWAP1 PUSH2 0x228F JUMP JUMPDEST SWAP2 POP PUSH1 0x0 DUP4 DUP3 DUP2 MLOAD DUP2 LT PUSH2 0x12A6 JUMPI PUSH2 0x12A5 PUSH2 0x20DB JUMP JUMPDEST JUMPDEST PUSH1 0x20 MUL PUSH1 0x20 ADD ADD MLOAD SWAP1 DUP1 PUSH1 0x1 DUP2 SLOAD ADD DUP1 DUP3 SSTORE DUP1 SWAP2 POP POP PUSH1 0x1 SWAP1 SUB SWAP1 PUSH1 0x0 MSTORE PUSH1 0x20 PUSH1 0x0 KECCAK256 ADD PUSH1 0x0 SWAP1 SWAP2 SWAP1 SWAP2 SWAP1 SWAP2 POP PUSH1 0x0 DUP3 ADD MLOAD DUP2 PUSH1 0x0 ADD PUSH1 0x0 PUSH2 0x100 EXP DUP2 SLOAD DUP2 PUSH20 0xFFFFFFFFFFFFFFFFFFFFFFFFFFFFFFFFFFFFFFFF MUL NOT AND SWAP1 DUP4 PUSH20 0xFFFFFFFFFFFFFFFFFFFFFFFFFFFFFFFFFFFFFFFF AND MUL OR SWAP1 SSTORE POP PUSH1 0x20 DUP3 ADD MLOAD DUP2 PUSH1 0x0 ADD PUSH1 0x14 PUSH2 0x100 EXP DUP2 SLOAD DUP2 PUSH2 0xFFFF MUL NOT AND SWAP1 DUP4 PUSH2 0xFFFF AND MUL OR SWAP1 SSTORE POP PUSH1 0x40 DUP3 ADD MLOAD DUP2 PUSH1 0x0 ADD PUSH1 0x16 PUSH2 0x100 EXP DUP2 SLOAD DUP2 PUSH10 0xFFFFFFFFFFFFFFFFFFFF MUL NOT AND SWAP1 DUP4 PUSH10 0xFFFFFFFFFFFFFFFFFFFF AND MUL OR SWAP1 SSTORE POP POP POP DUP3 DUP2 DUP2 MLOAD DUP2 LT PUSH2 0x1385 JUMPI PUSH2 0x1384 PUSH2 0x20DB JUMP JUMPDEST JUMPDEST PUSH1 0x20 MUL PUSH1 0x20 ADD ADD MLOAD PUSH1 0x0 ADD MLOAD PUSH20 0xFFFFFFFFFFFFFFFFFFFFFFFFFFFFFFFFFFFFFFFF AND PUSH32 0x6FB194C0ED9D019BF344980591E10498571B0A8271FC464513AABC5A21448CA1 DUP5 DUP4 DUP2 MLOAD DUP2 LT PUSH2 0x13DB JUMPI PUSH2 0x13DA PUSH2 0x20DB JUMP JUMPDEST JUMPDEST PUSH1 0x20 MUL PUSH1 0x20 ADD ADD MLOAD PUSH1 0x20 ADD MLOAD DUP6 DUP5 DUP2 MLOAD DUP2 LT PUSH2 0x13FA JUMPI PUSH2 0x13F9 PUSH2 0x20DB JUMP JUMPDEST JUMPDEST PUSH1 0x20 MUL PUSH1 0x20 ADD ADD MLOAD PUSH1 0x40 ADD MLOAD PUSH1 0x40 MLOAD PUSH2 0x1414 SWAP3 SWAP2 SWAP1 PUSH2 0x2237 JUMP JUMPDEST PUSH1 0x40 MLOAD DUP1 SWAP2 SUB SWAP1 LOG2 DUP1 PUSH1 0x1 ADD SWAP1 POP PUSH2 0x11FE JUMP JUMPDEST POP PUSH1 0x0 DUP2 EQ PUSH2 0x14C0 JUMPI PUSH32 0x0 PUSH20 0xFFFFFFFFFFFFFFFFFFFFFFFFFFFFFFFFFFFFFFFF AND PUSH4 0xA8C0A100 CALLER ADDRESS DUP5 PUSH1 0x40 MLOAD DUP5 PUSH4 0xFFFFFFFF AND PUSH1 0xE0 SHL DUP2 MSTORE PUSH1 0x4 ADD PUSH2 0x148D SWAP4 SWAP3 SWAP2 SWAP1 PUSH2 0x2388 JUMP JUMPDEST PUSH1 0x0 PUSH1 0x40 MLOAD DUP1 DUP4 SUB DUP2 PUSH1 0x0 DUP8 DUP1 EXTCODESIZE ISZERO DUP1 ISZERO PUSH2 0x14A7 JUMPI PUSH1 0x0 DUP1 REVERT JUMPDEST POP GAS CALL ISZERO DUP1 ISZERO PUSH2 0x14BB JUMPI RETURNDATASIZE PUSH1 0x0 DUP1 RETURNDATACOPY RETURNDATASIZE PUSH1 0x0 REVERT JUMPDEST POP POP POP POP JUMPDEST PUSH1 0x0 DUP4 MLOAD PUSH8 0xFFFFFFFFFFFFFFFF DUP2 GT ISZERO PUSH2 0x14DD JUMPI PUSH2 0x14DC PUSH2 0x1BFE JUMP JUMPDEST JUMPDEST PUSH1 0x40 MLOAD SWAP1 DUP1 DUP3 MSTORE DUP1 PUSH1 0x20 MUL PUSH1 0x20 ADD DUP3 ADD PUSH1 0x40 MSTORE DUP1 ISZERO PUSH2 0x150B JUMPI DUP2 PUSH1 0x20 ADD PUSH1 0x20 DUP3 MUL DUP1 CALLDATASIZE DUP4 CALLDATACOPY DUP1 DUP3 ADD SWAP2 POP POP SWAP1 POP JUMPDEST POP SWAP1 POP PUSH1 0x0 DUP5 MLOAD PUSH8 0xFFFFFFFFFFFFFFFF DUP2 GT ISZERO PUSH2 0x152B JUMPI PUSH2 0x152A PUSH2 0x1BFE JUMP JUMPDEST JUMPDEST PUSH1 0x40 MLOAD SWAP1 DUP1 DUP3 MSTORE DUP1 PUSH1 0x20 MUL PUSH1 0x20 ADD DUP3 ADD PUSH1 0x40 MSTORE DUP1 ISZERO PUSH2 0x1559 JUMPI DUP2 PUSH1 0x20 ADD PUSH1 0x20 DUP3 MUL DUP1 CALLDATASIZE DUP4 CALLDATACOPY DUP1 DUP3 ADD SWAP2 POP POP SWAP1 POP JUMPDEST POP SWAP1 POP PUSH1 0x0 JUMPDEST DUP6 MLOAD DUP2 LT ISZERO PUSH2 0x17B3 JUMPI CALLER DUP7 DUP3 DUP2 MLOAD DUP2 LT PUSH2 0x157C JUMPI PUSH2 0x157B PUSH2 0x20DB JUMP JUMPDEST JUMPDEST PUSH1 0x20 MUL PUSH1 0x20 ADD ADD MLOAD PUSH1 0x0 ADD SWAP1 PUSH20 0xFFFFFFFFFFFFFFFFFFFFFFFFFFFFFFFFFFFFFFFF AND SWAP1 DUP2 PUSH20 0xFFFFFFFFFFFFFFFFFFFFFFFFFFFFFFFFFFFFFFFF AND DUP2 MSTORE POP POP DUP6 DUP2 DUP2 MLOAD DUP2 LT PUSH2 0x15CD JUMPI PUSH2 0x15CC PUSH2 0x20DB JUMP JUMPDEST JUMPDEST PUSH1 0x20 MUL PUSH1 0x20 ADD ADD MLOAD PUSH1 0x20 ADD MLOAD PUSH2 0xFFFF AND DUP4 DUP3 DUP2 MLOAD DUP2 LT PUSH2 0x15F0 JUMPI PUSH2 0x15EF PUSH2 0x20DB JUMP JUMPDEST JUMPDEST PUSH1 0x20 MUL PUSH1 0x20 ADD ADD DUP2 DUP2 MSTORE POP POP PUSH1 0x1 DUP3 DUP3 DUP2 MLOAD DUP2 LT PUSH2 0x1611 JUMPI PUSH2 0x1610 PUSH2 0x20DB JUMP JUMPDEST JUMPDEST PUSH1 0x20 MUL PUSH1 0x20 ADD ADD DUP2 DUP2 MSTORE POP POP PUSH1 0x1 DUP7 DUP3 DUP2 MLOAD DUP2 LT PUSH2 0x1632 JUMPI PUSH2 0x1631 PUSH2 0x20DB JUMP JUMPDEST JUMPDEST PUSH1 0x20 MUL PUSH1 0x20 ADD ADD MLOAD SWAP1 DUP1 PUSH1 0x1 DUP2 SLOAD ADD DUP1 DUP3 SSTORE DUP1 SWAP2 POP POP PUSH1 0x1 SWAP1 SUB SWAP1 PUSH1 0x0 MSTORE PUSH1 0x20 PUSH1 0x0 KECCAK256 ADD PUSH1 0x0 SWAP1 SWAP2 SWAP1 SWAP2 SWAP1 SWAP2 POP PUSH1 0x0 DUP3 ADD MLOAD DUP2 PUSH1 0x0 ADD PUSH1 0x0 PUSH2 0x100 EXP DUP2 SLOAD DUP2 PUSH20 0xFFFFFFFFFFFFFFFFFFFFFFFFFFFFFFFFFFFFFFFF MUL NOT AND SWAP1 DUP4 PUSH20 0xFFFFFFFFFFFFFFFFFFFFFFFFFFFFFFFFFFFFFFFF AND MUL OR SWAP1 SSTORE POP PUSH1 0x20 DUP3 ADD MLOAD DUP2 PUSH1 0x0 ADD PUSH1 0x14 PUSH2 0x100 EXP DUP2 SLOAD DUP2 PUSH2 0xFFFF MUL NOT AND SWAP1 DUP4 PUSH2 0xFFFF AND MUL OR SWAP1 SSTORE POP PUSH1 0x40 DUP3 ADD MLOAD DUP2 PUSH1 0x0 ADD PUSH1 0x16 PUSH2 0x100 EXP DUP2 SLOAD DUP2 PUSH10 0xFFFFFFFFFFFFFFFFFFFF MUL NOT AND SWAP1 DUP4 PUSH10 0xFFFFFFFFFFFFFFFFFFFF AND MUL OR SWAP1 SSTORE POP POP POP DUP6 DUP2 DUP2 MLOAD DUP2 LT PUSH2 0x1711 JUMPI PUSH2 0x1710 PUSH2 0x20DB JUMP JUMPDEST JUMPDEST PUSH1 0x20 MUL PUSH1 0x20 ADD ADD MLOAD PUSH1 0x0 ADD MLOAD PUSH20 0xFFFFFFFFFFFFFFFFFFFFFFFFFFFFFFFFFFFFFFFF AND PUSH32 0x1465588286D363E8152F7FE441D891F2E6D5852F4048E883F144B5768BA9CDA2 DUP8 DUP4 DUP2 MLOAD DUP2 LT PUSH2 0x1767 JUMPI PUSH2 0x1766 PUSH2 0x20DB JUMP JUMPDEST JUMPDEST PUSH1 0x20 MUL PUSH1 0x20 ADD ADD MLOAD PUSH1 0x20 ADD MLOAD DUP9 DUP5 DUP2 MLOAD DUP2 LT PUSH2 0x1786 JUMPI PUSH2 0x1785 PUSH2 0x20DB JUMP JUMPDEST JUMPDEST PUSH1 0x20 MUL PUSH1 0x20 ADD ADD MLOAD PUSH1 0x40 ADD MLOAD PUSH1 0x40 MLOAD PUSH2 0x17A0 SWAP3 SWAP2 SWAP1 PUSH2 0x2237 JUMP JUMPDEST PUSH1 0x40 MLOAD DUP1 SWAP2 SUB SWAP1 LOG2 DUP1 PUSH1 0x1 ADD SWAP1 POP PUSH2 0x155F JUMP JUMPDEST POP PUSH1 0x0 DUP3 MLOAD EQ PUSH2 0x184D JUMPI PUSH32 0x0 PUSH20 0xFFFFFFFFFFFFFFFFFFFFFFFFFFFFFFFFFFFFFFFF AND PUSH4 0x6B20C454 CALLER DUP5 DUP5 PUSH1 0x40 MLOAD DUP5 PUSH4 0xFFFFFFFF AND PUSH1 0xE0 SHL DUP2 MSTORE PUSH1 0x4 ADD PUSH2 0x181A SWAP4 SWAP3 SWAP2 SWAP1 PUSH2 0x247D JUMP JUMPDEST PUSH1 0x0 PUSH1 0x40 MLOAD DUP1 DUP4 SUB DUP2 PUSH1 0x0 DUP8 DUP1 EXTCODESIZE ISZERO DUP1 ISZERO PUSH2 0x1834 JUMPI PUSH1 0x0 DUP1 REVERT JUMPDEST POP GAS CALL ISZERO DUP1 ISZERO PUSH2 0x1848 JUMPI RETURNDATASIZE PUSH1 0x0 DUP1 RETURNDATACOPY RETURNDATASIZE PUSH1 0x0 REVERT JUMPDEST POP POP POP POP JUMPDEST POP POP POP POP POP JUMP JUMPDEST PUSH1 0x60 PUSH1 0x0 DUP1 SLOAD DUP1 PUSH1 0x20 MUL PUSH1 0x20 ADD PUSH1 0x40 MLOAD SWAP1 DUP2 ADD PUSH1 0x40 MSTORE DUP1 SWAP3 SWAP2 SWAP1 DUP2 DUP2 MSTORE PUSH1 0x20 ADD PUSH1 0x0 SWAP1 JUMPDEST DUP3 DUP3 LT ISZERO PUSH2 0x1954 JUMPI DUP4 DUP3 SWAP1 PUSH1 0x0 MSTORE PUSH1 0x20 PUSH1 0x0 KECCAK256 ADD PUSH1 0x40 MLOAD DUP1 PUSH1 0x60 ADD PUSH1 0x40 MSTORE SWAP1 DUP2 PUSH1 0x0 DUP3 ADD PUSH1 0x0 SWAP1 SLOAD SWAP1 PUSH2 0x100 EXP SWAP1 DIV PUSH20 0xFFFFFFFFFFFFFFFFFFFFFFFFFFFFFFFFFFFFFFFF AND PUSH20 0xFFFFFFFFFFFFFFFFFFFFFFFFFFFFFFFFFFFFFFFF AND PUSH20 0xFFFFFFFFFFFFFFFFFFFFFFFFFFFFFFFFFFFFFFFF AND DUP2 MSTORE PUSH1 0x20 ADD PUSH1 0x0 DUP3 ADD PUSH1 0x14 SWAP1 SLOAD SWAP1 PUSH2 0x100 EXP SWAP1 DIV PUSH2 0xFFFF AND PUSH2 0xFFFF AND PUSH2 0xFFFF AND DUP2 MSTORE PUSH1 0x20 ADD PUSH1 0x0 DUP3 ADD PUSH1 0x16 SWAP1 SLOAD SWAP1 PUSH2 0x100 EXP SWAP1 DIV PUSH10 0xFFFFFFFFFFFFFFFFFFFF AND PUSH10 0xFFFFFFFFFFFFFFFFFFFF AND PUSH10 0xFFFFFFFFFFFFFFFFFFFF AND DUP2 MSTORE POP POP DUP2 MSTORE PUSH1 0x20 ADD SWAP1 PUSH1 0x1 ADD SWAP1 PUSH2 0x1878 JUMP JUMPDEST POP POP POP POP SWAP1 POP SWAP1 JUMP JUMPDEST PUSH1 0x0 DUP2 MLOAD SWAP1 POP SWAP2 SWAP1 POP JUMP JUMPDEST PUSH1 0x0 DUP3 DUP3 MSTORE PUSH1 0x20 DUP3 ADD SWAP1 POP SWAP3 SWAP2 POP POP JUMP JUMPDEST PUSH1 0x0 DUP2 SWAP1 POP PUSH1 0x20 DUP3 ADD SWAP1 POP SWAP2 SWAP1 POP JUMP JUMPDEST PUSH1 0x0 PUSH20 0xFFFFFFFFFFFFFFFFFFFFFFFFFFFFFFFFFFFFFFFF DUP3 AND SWAP1 POP SWAP2 SWAP1 POP JUMP JUMPDEST PUSH1 0x0 PUSH2 0x19B4 DUP3 PUSH2 0x1989 JUMP JUMPDEST SWAP1 POP SWAP2 SWAP1 POP JUMP JUMPDEST PUSH2 0x19C4 DUP2 PUSH2 0x19A9 JUMP JUMPDEST DUP3 MSTORE POP POP JUMP JUMPDEST PUSH1 0x0 PUSH2 0xFFFF DUP3 AND SWAP1 POP SWAP2 SWAP1 POP JUMP JUMPDEST PUSH2 0x19E1 DUP2 PUSH2 0x19CA JUMP JUMPDEST DUP3 MSTORE POP POP JUMP JUMPDEST PUSH1 0x0 PUSH10 0xFFFFFFFFFFFFFFFFFFFF DUP3 AND SWAP1 POP SWAP2 SWAP1 POP JUMP JUMPDEST PUSH2 0x1A06 DUP2 PUSH2 0x19E7 JUMP JUMPDEST DUP3 MSTORE POP POP JUMP JUMPDEST PUSH1 0x60 DUP3 ADD PUSH1 0x0 DUP3 ADD MLOAD PUSH2 0x1A22 PUSH1 0x0 DUP6 ADD DUP3 PUSH2 0x19BB JUMP JUMPDEST POP PUSH1 0x20 DUP3 ADD MLOAD PUSH2 0x1A35 PUSH1 0x20 DUP6 ADD DUP3 PUSH2 0x19D8 JUMP JUMPDEST POP PUSH1 0x40 DUP3 ADD MLOAD PUSH2 0x1A48 PUSH1 0x40 DUP6 ADD DUP3 PUSH2 0x19FD JUMP JUMPDEST POP POP POP POP JUMP JUMPDEST PUSH1 0x0 PUSH2 0x1A5A DUP4 DUP4 PUSH2 0x1A0C JUMP JUMPDEST PUSH1 0x60 DUP4 ADD SWAP1 POP SWAP3 SWAP2 POP POP JUMP JUMPDEST PUSH1 0x0 PUSH1 0x20 DUP3 ADD SWAP1 POP SWAP2 SWAP1 POP JUMP JUMPDEST PUSH1 0x0 PUSH2 0x1A7E DUP3 PUSH2 0x195D JUMP JUMPDEST PUSH2 0x1A88 DUP2 DUP6 PUSH2 0x1968 JUMP JUMPDEST SWAP4 POP PUSH2 0x1A93 DUP4 PUSH2 0x1979 JUMP JUMPDEST DUP1 PUSH1 0x0 JUMPDEST DUP4 DUP2 LT ISZERO PUSH2 0x1AC4 JUMPI DUP2 MLOAD PUSH2 0x1AAB DUP9 DUP3 PUSH2 0x1A4E JUMP JUMPDEST SWAP8 POP PUSH2 0x1AB6 DUP4 PUSH2 0x1A66 JUMP JUMPDEST SWAP3 POP POP PUSH1 0x1 DUP2 ADD SWAP1 POP PUSH2 0x1A97 JUMP JUMPDEST POP DUP6 SWAP4 POP POP POP POP SWAP3 SWAP2 POP POP JUMP JUMPDEST PUSH1 0x0 PUSH1 0x20 DUP3 ADD SWAP1 POP DUP2 DUP2 SUB PUSH1 0x0 DUP4 ADD MSTORE PUSH2 0x1AEB DUP2 DUP5 PUSH2 0x1A73 JUMP JUMPDEST SWAP1 POP SWAP3 SWAP2 POP POP JUMP JUMPDEST PUSH1 0x0 PUSH1 0x40 MLOAD SWAP1 POP SWAP1 JUMP JUMPDEST PUSH1 0x0 DUP1 REVERT JUMPDEST PUSH1 0x0 DUP1 REVERT JUMPDEST PUSH1 0x0 DUP1 REVERT JUMPDEST PUSH1 0x0 DUP1 REVERT JUMPDEST PUSH1 0x0 DUP1 REVERT JUMPDEST PUSH1 0x0 DUP1 DUP4 PUSH1 0x1F DUP5 ADD SLT PUSH2 0x1B2C JUMPI PUSH2 0x1B2B PUSH2 0x1B07 JUMP JUMPDEST JUMPDEST DUP3 CALLDATALOAD SWAP1 POP PUSH8 0xFFFFFFFFFFFFFFFF DUP2 GT ISZERO PUSH2 0x1B49 JUMPI PUSH2 0x1B48 PUSH2 0x1B0C JUMP JUMPDEST JUMPDEST PUSH1 0x20 DUP4 ADD SWAP2 POP DUP4 PUSH1 0x20 DUP3 MUL DUP4 ADD GT ISZERO PUSH2 0x1B65 JUMPI PUSH2 0x1B64 PUSH2 0x1B11 JUMP JUMPDEST JUMPDEST SWAP3 POP SWAP3 SWAP1 POP JUMP JUMPDEST PUSH1 0x0 DUP1 PUSH1 0x0 DUP1 PUSH1 0x40 DUP6 DUP8 SUB SLT ISZERO PUSH2 0x1B86 JUMPI PUSH2 0x1B85 PUSH2 0x1AFD JUMP JUMPDEST JUMPDEST PUSH1 0x0 DUP6 ADD CALLDATALOAD PUSH8 0xFFFFFFFFFFFFFFFF DUP2 GT ISZERO PUSH2 0x1BA4 JUMPI PUSH2 0x1BA3 PUSH2 0x1B02 JUMP JUMPDEST JUMPDEST PUSH2 0x1BB0 DUP8 DUP3 DUP9 ADD PUSH2 0x1B16 JUMP JUMPDEST SWAP5 POP SWAP5 POP POP PUSH1 0x20 DUP6 ADD CALLDATALOAD PUSH8 0xFFFFFFFFFFFFFFFF DUP2 GT ISZERO PUSH2 0x1BD3 JUMPI PUSH2 0x1BD2 PUSH2 0x1B02 JUMP JUMPDEST JUMPDEST PUSH2 0x1BDF DUP8 DUP3 DUP9 ADD PUSH2 0x1B16 JUMP JUMPDEST SWAP3 POP SWAP3 POP POP SWAP3 SWAP6 SWAP2 SWAP5 POP SWAP3 POP JUMP JUMPDEST PUSH1 0x0 PUSH1 0x1F NOT PUSH1 0x1F DUP4 ADD AND SWAP1 POP SWAP2 SWAP1 POP JUMP JUMPDEST PUSH32 0x4E487B7100000000000000000000000000000000000000000000000000000000 PUSH1 0x0 MSTORE PUSH1 0x41 PUSH1 0x4 MSTORE PUSH1 0x24 PUSH1 0x0 REVERT JUMPDEST PUSH2 0x1C36 DUP3 PUSH2 0x1BED JUMP JUMPDEST DUP2 ADD DUP2 DUP2 LT PUSH8 0xFFFFFFFFFFFFFFFF DUP3 GT OR ISZERO PUSH2 0x1C55 JUMPI PUSH2 0x1C54 PUSH2 0x1BFE JUMP JUMPDEST JUMPDEST DUP1 PUSH1 0x40 MSTORE POP POP POP JUMP JUMPDEST PUSH1 0x0 PUSH2 0x1C68 PUSH2 0x1AF3 JUMP JUMPDEST SWAP1 POP PUSH2 0x1C74 DUP3 DUP3 PUSH2 0x1C2D JUMP JUMPDEST SWAP2 SWAP1 POP JUMP JUMPDEST PUSH1 0x0 PUSH8 0xFFFFFFFFFFFFFFFF DUP3 GT ISZERO PUSH2 0x1C94 JUMPI PUSH2 0x1C93 PUSH2 0x1BFE JUMP JUMPDEST JUMPDEST PUSH1 0x20 DUP3 MUL SWAP1 POP PUSH1 0x20 DUP2 ADD SWAP1 POP SWAP2 SWAP1 POP JUMP JUMPDEST PUSH1 0x0 DUP1 REVERT JUMPDEST PUSH2 0x1CB3 DUP2 PUSH2 0x19A9 JUMP JUMPDEST DUP2 EQ PUSH2 0x1CBE JUMPI PUSH1 0x0 DUP1 REVERT JUMPDEST POP JUMP JUMPDEST PUSH1 0x0 DUP2 CALLDATALOAD SWAP1 POP PUSH2 0x1CD0 DUP2 PUSH2 0x1CAA JUMP JUMPDEST SWAP3 SWAP2 POP POP JUMP JUMPDEST PUSH2 0x1CDF DUP2 PUSH2 0x19CA JUMP JUMPDEST DUP2 EQ PUSH2 0x1CEA JUMPI PUSH1 0x0 DUP1 REVERT JUMPDEST POP JUMP JUMPDEST PUSH1 0x0 DUP2 CALLDATALOAD SWAP1 POP PUSH2 0x1CFC DUP2 PUSH2 0x1CD6 JUMP JUMPDEST SWAP3 SWAP2 POP POP JUMP JUMPDEST PUSH2 0x1D0B DUP2 PUSH2 0x19E7 JUMP JUMPDEST DUP2 EQ PUSH2 0x1D16 JUMPI PUSH1 0x0 DUP1 REVERT JUMPDEST POP JUMP JUMPDEST PUSH1 0x0 DUP2 CALLDATALOAD SWAP1 POP PUSH2 0x1D28 DUP2 PUSH2 0x1D02 JUMP JUMPDEST SWAP3 SWAP2 POP POP JUMP JUMPDEST PUSH1 0x0 PUSH1 0x60 DUP3 DUP5 SUB SLT ISZERO PUSH2 0x1D44 JUMPI PUSH2 0x1D43 PUSH2 0x1CA5 JUMP JUMPDEST JUMPDEST PUSH2 0x1D4E PUSH1 0x60 PUSH2 0x1C5E JUMP JUMPDEST SWAP1 POP PUSH1 0x0 PUSH2 0x1D5E DUP5 DUP3 DUP6 ADD PUSH2 0x1CC1 JUMP JUMPDEST PUSH1 0x0 DUP4 ADD MSTORE POP PUSH1 0x20 PUSH2 0x1D72 DUP5 DUP3 DUP6 ADD PUSH2 0x1CED JUMP JUMPDEST PUSH1 0x20 DUP4 ADD MSTORE POP PUSH1 0x40 PUSH2 0x1D86 DUP5 DUP3 DUP6 ADD PUSH2 0x1D19 JUMP JUMPDEST PUSH1 0x40 DUP4 ADD MSTORE POP SWAP3 SWAP2 POP POP JUMP JUMPDEST PUSH1 0x0 PUSH2 0x1DA5 PUSH2 0x1DA0 DUP5 PUSH2 0x1C79 JUMP JUMPDEST PUSH2 0x1C5E JUMP JUMPDEST SWAP1 POP DUP1 DUP4 DUP3 MSTORE PUSH1 0x20 DUP3 ADD SWAP1 POP PUSH1 0x60 DUP5 MUL DUP4 ADD DUP6 DUP2 GT ISZERO PUSH2 0x1DC8 JUMPI PUSH2 0x1DC7 PUSH2 0x1B11 JUMP JUMPDEST JUMPDEST DUP4 JUMPDEST DUP2 DUP2 LT ISZERO PUSH2 0x1DF1 JUMPI DUP1 PUSH2 0x1DDD DUP9 DUP3 PUSH2 0x1D2E JUMP JUMPDEST DUP5 MSTORE PUSH1 0x20 DUP5 ADD SWAP4 POP POP PUSH1 0x60 DUP2 ADD SWAP1 POP PUSH2 0x1DCA JUMP JUMPDEST POP POP POP SWAP4 SWAP3 POP POP POP JUMP JUMPDEST PUSH1 0x0 DUP3 PUSH1 0x1F DUP4 ADD SLT PUSH2 0x1E10 JUMPI PUSH2 0x1E0F PUSH2 0x1B07 JUMP JUMPDEST JUMPDEST DUP2 CALLDATALOAD PUSH2 0x1E20 DUP5 DUP3 PUSH1 0x20 DUP7 ADD PUSH2 0x1D92 JUMP JUMPDEST SWAP2 POP POP SWAP3 SWAP2 POP POP JUMP JUMPDEST PUSH1 0x0 PUSH8 0xFFFFFFFFFFFFFFFF DUP3 GT ISZERO PUSH2 0x1E44 JUMPI PUSH2 0x1E43 PUSH2 0x1BFE JUMP JUMPDEST JUMPDEST PUSH1 0x20 DUP3 MUL SWAP1 POP PUSH1 0x20 DUP2 ADD SWAP1 POP SWAP2 SWAP1 POP JUMP JUMPDEST PUSH1 0x0 PUSH1 0x60 DUP3 DUP5 SUB SLT ISZERO PUSH2 0x1E6B JUMPI PUSH2 0x1E6A PUSH2 0x1CA5 JUMP JUMPDEST JUMPDEST PUSH2 0x1E75 PUSH1 0x60 PUSH2 0x1C5E JUMP JUMPDEST SWAP1 POP PUSH1 0x0 PUSH2 0x1E85 DUP5 DUP3 DUP6 ADD PUSH2 0x1CC1 JUMP JUMPDEST PUSH1 0x0 DUP4 ADD MSTORE POP PUSH1 0x20 PUSH2 0x1E99 DUP5 DUP3 DUP6 ADD PUSH2 0x1CED JUMP JUMPDEST PUSH1 0x20 DUP4 ADD MSTORE POP PUSH1 0x40 PUSH2 0x1EAD DUP5 DUP3 DUP6 ADD PUSH2 0x1D19 JUMP JUMPDEST PUSH1 0x40 DUP4 ADD MSTORE POP SWAP3 SWAP2 POP POP JUMP JUMPDEST PUSH1 0x0 PUSH2 0x1ECC PUSH2 0x1EC7 DUP5 PUSH2 0x1E29 JUMP JUMPDEST PUSH2 0x1C5E JUMP JUMPDEST SWAP1 POP DUP1 DUP4 DUP3 MSTORE PUSH1 0x20 DUP3 ADD SWAP1 POP PUSH1 0x60 DUP5 MUL DUP4 ADD DUP6 DUP2 GT ISZERO PUSH2 0x1EEF JUMPI PUSH2 0x1EEE PUSH2 0x1B11 JUMP JUMPDEST JUMPDEST DUP4 JUMPDEST DUP2 DUP2 LT ISZERO PUSH2 0x1F18 JUMPI DUP1 PUSH2 0x1F04 DUP9 DUP3 PUSH2 0x1E55 JUMP JUMPDEST DUP5 MSTORE PUSH1 0x20 DUP5 ADD SWAP4 POP POP PUSH1 0x60 DUP2 ADD SWAP1 POP PUSH2 0x1EF1 JUMP JUMPDEST POP POP POP SWAP4 SWAP3 POP POP POP JUMP JUMPDEST PUSH1 0x0 DUP3 PUSH1 0x1F DUP4 ADD SLT PUSH2 0x1F37 JUMPI PUSH2 0x1F36 PUSH2 0x1B07 JUMP JUMPDEST JUMPDEST DUP2 CALLDATALOAD PUSH2 0x1F47 DUP5 DUP3 PUSH1 0x20 DUP7 ADD PUSH2 0x1EB9 JUMP JUMPDEST SWAP2 POP POP SWAP3 SWAP2 POP POP JUMP JUMPDEST PUSH1 0x0 DUP1 PUSH1 0x40 DUP4 DUP6 SUB SLT ISZERO PUSH2 0x1F67 JUMPI PUSH2 0x1F66 PUSH2 0x1AFD JUMP JUMPDEST JUMPDEST PUSH1 0x0 DUP4 ADD CALLDATALOAD PUSH8 0xFFFFFFFFFFFFFFFF DUP2 GT ISZERO PUSH2 0x1F85 JUMPI PUSH2 0x1F84 PUSH2 0x1B02 JUMP JUMPDEST JUMPDEST PUSH2 0x1F91 DUP6 DUP3 DUP7 ADD PUSH2 0x1DFB JUMP JUMPDEST SWAP3 POP POP PUSH1 0x20 DUP4 ADD CALLDATALOAD PUSH8 0xFFFFFFFFFFFFFFFF DUP2 GT ISZERO PUSH2 0x1FB2 JUMPI PUSH2 0x1FB1 PUSH2 0x1B02 JUMP JUMPDEST JUMPDEST PUSH2 0x1FBE DUP6 DUP3 DUP7 ADD PUSH2 0x1F22 JUMP JUMPDEST SWAP2 POP POP SWAP3 POP SWAP3 SWAP1 POP JUMP JUMPDEST PUSH1 0x0 DUP2 MLOAD SWAP1 POP SWAP2 SWAP1 POP JUMP JUMPDEST PUSH1 0x0 DUP3 DUP3 MSTORE PUSH1 0x20 DUP3 ADD SWAP1 POP SWAP3 SWAP2 POP POP JUMP JUMPDEST PUSH1 0x0 DUP2 SWAP1 POP PUSH1 0x20 DUP3 ADD SWAP1 POP SWAP2 SWAP1 POP JUMP JUMPDEST PUSH1 0x60 DUP3 ADD PUSH1 0x0 DUP3 ADD MLOAD PUSH2 0x200A PUSH1 0x0 DUP6 ADD DUP3 PUSH2 0x19BB JUMP JUMPDEST POP PUSH1 0x20 DUP3 ADD MLOAD PUSH2 0x201D PUSH1 0x20 DUP6 ADD DUP3 PUSH2 0x19D8 JUMP JUMPDEST POP PUSH1 0x40 DUP3 ADD MLOAD PUSH2 0x2030 PUSH1 0x40 DUP6 ADD DUP3 PUSH2 0x19FD JUMP JUMPDEST POP POP POP POP JUMP JUMPDEST PUSH1 0x0 PUSH2 0x2042 DUP4 DUP4 PUSH2 0x1FF4 JUMP JUMPDEST PUSH1 0x60 DUP4 ADD SWAP1 POP SWAP3 SWAP2 POP POP JUMP JUMPDEST PUSH1 0x0 PUSH1 0x20 DUP3 ADD SWAP1 POP SWAP2 SWAP1 POP JUMP JUMPDEST PUSH1 0x0 PUSH2 0x2066 DUP3 PUSH2 0x1FC8 JUMP JUMPDEST PUSH2 0x2070 DUP2 DUP6 PUSH2 0x1FD3 JUMP JUMPDEST SWAP4 POP PUSH2 0x207B DUP4 PUSH2 0x1FE4 JUMP JUMPDEST DUP1 PUSH1 0x0 JUMPDEST DUP4 DUP2 LT ISZERO PUSH2 0x20AC JUMPI DUP2 MLOAD PUSH2 0x2093 DUP9 DUP3 PUSH2 0x2036 JUMP JUMPDEST SWAP8 POP PUSH2 0x209E DUP4 PUSH2 0x204E JUMP JUMPDEST SWAP3 POP POP PUSH1 0x1 DUP2 ADD SWAP1 POP PUSH2 0x207F JUMP JUMPDEST POP DUP6 SWAP4 POP POP POP POP SWAP3 SWAP2 POP POP JUMP JUMPDEST PUSH1 0x0 PUSH1 0x20 DUP3 ADD SWAP1 POP DUP2 DUP2 SUB PUSH1 0x0 DUP4 ADD MSTORE PUSH2 0x20D3 DUP2 DUP5 PUSH2 0x205B JUMP JUMPDEST SWAP1 POP SWAP3 SWAP2 POP POP JUMP JUMPDEST PUSH32 0x4E487B7100000000000000000000000000000000000000000000000000000000 PUSH1 0x0 MSTORE PUSH1 0x32 PUSH1 0x4 MSTORE PUSH1 0x24 PUSH1 0x0 REVERT JUMPDEST PUSH1 0x0 DUP2 SWAP1 POP SWAP2 SWAP1 POP JUMP JUMPDEST PUSH2 0x211D DUP2 PUSH2 0x210A JUMP JUMPDEST DUP3 MSTORE POP POP JUMP JUMPDEST PUSH1 0x0 PUSH1 0x20 DUP3 ADD SWAP1 POP PUSH2 0x2138 PUSH1 0x0 DUP4 ADD DUP5 PUSH2 0x2114 JUMP JUMPDEST SWAP3 SWAP2 POP POP JUMP JUMPDEST PUSH2 0x2147 DUP2 PUSH2 0x19A9 JUMP JUMPDEST DUP3 MSTORE POP POP JUMP JUMPDEST PUSH1 0x0 DUP2 SWAP1 POP SWAP2 SWAP1 POP JUMP JUMPDEST PUSH1 0x0 PUSH2 0x2172 PUSH2 0x216D PUSH2 0x2168 DUP5 PUSH2 0x19E7 JUMP JUMPDEST PUSH2 0x214D JUMP JUMPDEST PUSH2 0x210A JUMP JUMPDEST SWAP1 POP SWAP2 SWAP1 POP JUMP JUMPDEST PUSH2 0x2182 DUP2 PUSH2 0x2157 JUMP JUMPDEST DUP3 MSTORE POP POP JUMP JUMPDEST PUSH1 0x0 PUSH1 0x60 DUP3 ADD SWAP1 POP PUSH2 0x219D PUSH1 0x0 DUP4 ADD DUP7 PUSH2 0x213E JUMP JUMPDEST PUSH2 0x21AA PUSH1 0x20 DUP4 ADD DUP6 PUSH2 0x213E JUMP JUMPDEST PUSH2 0x21B7 PUSH1 0x40 DUP4 ADD DUP5 PUSH2 0x2179 JUMP JUMPDEST SWAP5 SWAP4 POP POP POP POP JUMP JUMPDEST PUSH1 0x0 PUSH2 0x21DA PUSH2 0x21D5 PUSH2 0x21D0 DUP5 PUSH2 0x19CA JUMP JUMPDEST PUSH2 0x214D JUMP JUMPDEST PUSH2 0x210A JUMP JUMPDEST SWAP1 POP SWAP2 SWAP1 POP JUMP JUMPDEST PUSH2 0x21EA DUP2 PUSH2 0x21BF JUMP JUMPDEST DUP3 MSTORE POP POP JUMP JUMPDEST PUSH1 0x0 PUSH1 0x40 DUP3 ADD SWAP1 POP PUSH2 0x2205 PUSH1 0x0 DUP4 ADD DUP6 PUSH2 0x213E JUMP JUMPDEST PUSH2 0x2212 PUSH1 0x20 DUP4 ADD DUP5 PUSH2 0x21E1 JUMP JUMPDEST SWAP4 SWAP3 POP POP POP JUMP JUMPDEST PUSH2 0x2222 DUP2 PUSH2 0x19CA JUMP JUMPDEST DUP3 MSTORE POP POP JUMP JUMPDEST PUSH2 0x2231 DUP2 PUSH2 0x19E7 JUMP JUMPDEST DUP3 MSTORE POP POP JUMP JUMPDEST PUSH1 0x0 PUSH1 0x40 DUP3 ADD SWAP1 POP PUSH2 0x224C PUSH1 0x0 DUP4 ADD DUP6 PUSH2 0x2219 JUMP JUMPDEST PUSH2 0x2259 PUSH1 0x20 DUP4 ADD DUP5 PUSH2 0x2228 JUMP JUMPDEST SWAP4 SWAP3 POP POP POP JUMP JUMPDEST PUSH32 0x4E487B7100000000000000000000000000000000000000000000000000000000 PUSH1 0x0 MSTORE PUSH1 0x11 PUSH1 0x4 MSTORE PUSH1 0x24 PUSH1 0x0 REVERT JUMPDEST PUSH1 0x0 PUSH2 0x229A DUP3 PUSH2 0x210A JUMP JUMPDEST SWAP2 POP PUSH2 0x22A5 DUP4 PUSH2 0x210A JUMP JUMPDEST SWAP3 POP DUP3 DUP3 ADD SWAP1 POP DUP1 DUP3 GT ISZERO PUSH2 0x22BD JUMPI PUSH2 0x22BC PUSH2 0x2260 JUMP JUMPDEST JUMPDEST SWAP3 SWAP2 POP POP JUMP JUMPDEST PUSH1 0x0 PUSH1 0x60 DUP3 ADD SWAP1 POP PUSH2 0x22D8 PUSH1 0x0 DUP4 ADD DUP7 PUSH2 0x213E JUMP JUMPDEST PUSH2 0x22E5 PUSH1 0x20 DUP4 ADD DUP6 PUSH2 0x213E JUMP JUMPDEST PUSH2 0x22F2 PUSH1 0x40 DUP4 ADD DUP5 PUSH2 0x21E1 JUMP JUMPDEST SWAP5 SWAP4 POP POP POP POP JUMP JUMPDEST PUSH1 0x0 PUSH1 0x40 DUP3 ADD SWAP1 POP PUSH2 0x230F PUSH1 0x0 DUP4 ADD DUP6 PUSH2 0x213E JUMP JUMPDEST PUSH2 0x231C PUSH1 0x20 DUP4 ADD DUP5 PUSH2 0x2114 JUMP JUMPDEST SWAP4 SWAP3 POP POP POP JUMP JUMPDEST PUSH1 0x0 DUP2 ISZERO ISZERO SWAP1 POP SWAP2 SWAP1 POP JUMP JUMPDEST PUSH2 0x2338 DUP2 PUSH2 0x2323 JUMP JUMPDEST DUP2 EQ PUSH2 0x2343 JUMPI PUSH1 0x0 DUP1 REVERT JUMPDEST POP JUMP JUMPDEST PUSH1 0x0 DUP2 MLOAD SWAP1 POP PUSH2 0x2355 DUP2 PUSH2 0x232F JUMP JUMPDEST SWAP3 SWAP2 POP POP JUMP JUMPDEST PUSH1 0x0 PUSH1 0x20 DUP3 DUP5 SUB SLT ISZERO PUSH2 0x2371 JUMPI PUSH2 0x2370 PUSH2 0x1AFD JUMP JUMPDEST JUMPDEST PUSH1 0x0 PUSH2 0x237F DUP5 DUP3 DUP6 ADD PUSH2 0x2346 JUMP JUMPDEST SWAP2 POP POP SWAP3 SWAP2 POP POP JUMP JUMPDEST PUSH1 0x0 PUSH1 0x60 DUP3 ADD SWAP1 POP PUSH2 0x239D PUSH1 0x0 DUP4 ADD DUP7 PUSH2 0x213E JUMP JUMPDEST PUSH2 0x23AA PUSH1 0x20 DUP4 ADD DUP6 PUSH2 0x213E JUMP JUMPDEST PUSH2 0x23B7 PUSH1 0x40 DUP4 ADD DUP5 PUSH2 0x2114 JUMP JUMPDEST SWAP5 SWAP4 POP POP POP POP JUMP JUMPDEST PUSH1 0x0 DUP2 MLOAD SWAP1 POP SWAP2 SWAP1 POP JUMP JUMPDEST PUSH1 0x0 DUP3 DUP3 MSTORE PUSH1 0x20 DUP3 ADD SWAP1 POP SWAP3 SWAP2 POP POP JUMP JUMPDEST PUSH1 0x0 DUP2 SWAP1 POP PUSH1 0x20 DUP3 ADD SWAP1 POP SWAP2 SWAP1 POP JUMP JUMPDEST PUSH2 0x23F4 DUP2 PUSH2 0x210A JUMP JUMPDEST DUP3 MSTORE POP POP JUMP JUMPDEST PUSH1 0x0 PUSH2 0x2406 DUP4 DUP4 PUSH2 0x23EB JUMP JUMPDEST PUSH1 0x20 DUP4 ADD SWAP1 POP SWAP3 SWAP2 POP POP JUMP JUMPDEST PUSH1 0x0 PUSH1 0x20 DUP3 ADD SWAP1 POP SWAP2 SWAP1 POP JUMP JUMPDEST PUSH1 0x0 PUSH2 0x242A DUP3 PUSH2 0x23BF JUMP JUMPDEST PUSH2 0x2434 DUP2 DUP6 PUSH2 0x23CA JUMP JUMPDEST SWAP4 POP PUSH2 0x243F DUP4 PUSH2 0x23DB JUMP JUMPDEST DUP1 PUSH1 0x0 JUMPDEST DUP4 DUP2 LT ISZERO PUSH2 0x2470 JUMPI DUP2 MLOAD PUSH2 0x2457 DUP9 DUP3 PUSH2 0x23FA JUMP JUMPDEST SWAP8 POP PUSH2 0x2462 DUP4 PUSH2 0x2412 JUMP JUMPDEST SWAP3 POP POP PUSH1 0x1 DUP2 ADD SWAP1 POP PUSH2 0x2443 JUMP JUMPDEST POP DUP6 SWAP4 POP POP POP POP SWAP3 SWAP2 POP POP JUMP JUMPDEST PUSH1 0x0 PUSH1 0x60 DUP3 ADD SWAP1 POP PUSH2 0x2492 PUSH1 0x0 DUP4 ADD DUP7 PUSH2 0x213E JUMP JUMPDEST DUP2 DUP2 SUB PUSH1 0x20 DUP4 ADD MSTORE PUSH2 0x24A4 DUP2 DUP6 PUSH2 0x241F JUMP JUMPDEST SWAP1 POP DUP2 DUP2 SUB PUSH1 0x40 DUP4 ADD MSTORE PUSH2 0x24B8 DUP2 DUP5 PUSH2 0x241F JUMP JUMPDEST SWAP1 POP SWAP5 SWAP4 POP POP POP POP JUMP INVALID LOG2 PUSH5 0x6970667358 0x22 SLT KECCAK256 0x24 DELEGATECALL 0xDE CREATE2 0xC1 CALLDATALOAD 0xE0 0xD6 SWAP10 0xE7 SWAP8 PUSH7 0x93AF69CFE7A65F CREATE STATICCALL PUSH16 0x66C65AF31B10EB38448664736F6C6343 STOP ADDMOD SLT STOP CALLER "
				},
				"gasEstimates": {
					"creation": {
						"codeDepositCost": "1892800",
						"executionCost": "infinite",
						"totalCost": "infinite"
					},
					"external": {
						"cancelOrders(uint256[],uint256[])": "infinite",
						"fulfilOrders(uint256[],uint256[])": "infinite",
						"getBuyOrders()": "infinite",
						"getSellOrders()": "infinite",
						"placeOrders((address,uint16,uint80)[],(address,uint16,uint80)[])": "infinite"
					}
				},
				"methodIdentifiers": {
					"cancelOrders(uint256[],uint256[])": "8d4f8186",
					"fulfilOrders(uint256[],uint256[])": "88a66e58",
					"getBuyOrders()": "e0c5a277",
					"getSellOrders()": "14dca602",
					"placeOrders((address,uint16,uint80)[],(address,uint16,uint80)[])": "9b47bce7"
				}
			},
			"storageLayout": {
				"storage": [
					{
						"astId": 225,
						"contract": "src/Marketplace.sol:Marketplace",
						"label": "_buyOrders",
						"offset": 0,
						"slot": "0",
						"type": "t_array(t_struct(BuyOrder)1225_storage)dyn_storage"
					},
					{
						"astId": 229,
						"contract": "src/Marketplace.sol:Marketplace",
						"label": "_sellOrders",
						"offset": 0,
						"slot": "1",
						"type": "t_array(t_struct(SellOrder)1218_storage)dyn_storage"
					}
				],
				"types": {
					"t_address": {
						"encoding": "inplace",
						"label": "address",
						"numberOfBytes": "20"
					},
					"t_array(t_struct(BuyOrder)1225_storage)dyn_storage": {
						"base": "t_struct(BuyOrder)1225_storage",
						"encoding": "dynamic_array",
						"label": "struct IMarketplace.BuyOrder[]",
						"numberOfBytes": "32"
					},
					"t_array(t_struct(SellOrder)1218_storage)dyn_storage": {
						"base": "t_struct(SellOrder)1218_storage",
						"encoding": "dynamic_array",
						"label": "struct IMarketplace.SellOrder[]",
						"numberOfBytes": "32"
					},
					"t_struct(BuyOrder)1225_storage": {
						"encoding": "inplace",
						"label": "struct IMarketplace.BuyOrder",
						"members": [
							{
								"astId": 1220,
								"contract": "src/Marketplace.sol:Marketplace",
								"label": "buyer",
								"offset": 0,
								"slot": "0",
								"type": "t_address"
							},
							{
								"astId": 1222,
								"contract": "src/Marketplace.sol:Marketplace",
								"label": "itemId",
								"offset": 20,
								"slot": "0",
								"type": "t_uint16"
							},
							{
								"astId": 1224,
								"contract": "src/Marketplace.sol:Marketplace",
								"label": "price",
								"offset": 22,
								"slot": "0",
								"type": "t_uint80"
							}
						],
						"numberOfBytes": "32"
					},
					"t_struct(SellOrder)1218_storage": {
						"encoding": "inplace",
						"label": "struct IMarketplace.SellOrder",
						"members": [
							{
								"astId": 1213,
								"contract": "src/Marketplace.sol:Marketplace",
								"label": "seller",
								"offset": 0,
								"slot": "0",
								"type": "t_address"
							},
							{
								"astId": 1215,
								"contract": "src/Marketplace.sol:Marketplace",
								"label": "itemId",
								"offset": 20,
								"slot": "0",
								"type": "t_uint16"
							},
							{
								"astId": 1217,
								"contract": "src/Marketplace.sol:Marketplace",
								"label": "price",
								"offset": 22,
								"slot": "0",
								"type": "t_uint80"
							}
						],
						"numberOfBytes": "32"
					},
					"t_uint16": {
						"encoding": "inplace",
						"label": "uint16",
						"numberOfBytes": "2"
					},
					"t_uint80": {
						"encoding": "inplace",
						"label": "uint80",
						"numberOfBytes": "10"
					}
				}
			},
			"userdoc": {
				"kind": "user",
				"methods": {},
				"version": 1
			}
		}
	}
}